:020000041000EA
:1000000000B5324B212058609868022188439860DF
:10001000D860186158612E4B002199600221596106
:100020000121F02299502B49196001219960352056
:1000300000F044F80222904214D00621196600F024
:1000400034F8196E01211966002018661A6600F04E
:100050002CF8196E196E196E052000F02FF8012189
:100060000842F9D1002199601B49196000215960AB
:100070001A491B48016001219960EB211966A021F2
:10008000196600F012F800219960164914480160C1
:100090000121996001BC002800D000471248134993
:1000A000086003C880F30888084703B5996A0420EC
:1000B0000142FBD001200142F8D103BD02B5186610
:1000C0001866FFF7F2FF186E186E02BD00000240BE
:1000D000000000180000070000035F00212200005C
:1000E000F4000018222000A00001001008ED00E03C
:1000F00000000000000000000000000074B24E7A12
:1001000000200420F7010010C3010010C5010010F9
:10011000C1010010C1010010C1010010C101001097
:10012000C1010010C1010010C1010010C701001081
:10013000C1010010C1010010C9010010CB01001065
:10014000CD010010CD010010CD010010CD01001037
:10015000CD010010CD010010CD010010CD01001027
:10016000CD010010CD010010CD010010CD01001017
:10017000CD010010CD010010CD010010CD01001007
:10018000CD010010CD010010CD010010CD010010F7
:10019000CD010010CD010010CD010010CD010010E7
:1001A000CD010010CD010010CD010010CD010010D7
:1001B000CD010010CD010010CD010010CD010010C7
:1001C00000BE00BE00BE00BE00BE00BEEFF3058054
:1001D000103800BEF2EB8871307B0010507B0010AD
:1001E0003402001090A31AE700201F49086006C8D7
:1001F00081F3088810471D48006800282FD10DA4FE
:100200000ECC002902D000F012F8F9E71849194A7B
:10021000002000E001C19142FCD1174988471749ED
:1002200088471749884700BEFDE701C901C29A42C5
:10023000FBD37047507B0010C0000020B80F002097
:10024000488A00100000042000000420488A0010A2
:10025000001004200010042000000000704709482E
:1002600003F0FEFC0047000008ED00E0000000D0B5
:10027000B80F00203C1D0020D1230010A90300105E
:10028000C12400105756000006005250ABB3605313
:10029000F078001006005250861C0302007900100E
:1002A000060052505422A29D0C79001005005250B5
:1002B000DE65F468488A0010F8B5C046064807496C
:1002C000091A8B10C90FC91810B5491003D0044B77
:1002D000002B00D0984710BDB80F0020B80F0020A9
:1002E00000000000054B10B5002B03D00449054861
:1002F00000E000BFFFF7E2FF10BDC04600000000B5
:10030000C81C0020E075001030B585B004F056FD23
:1003100007F0A8F81F211B2000F0A6FB00220021F7
:100320001B2000F0B9FB00211B2000F0C7FB1F21A0
:100330001A2000F099FB002200211A2000F0ACFBEB
:1003400000211A2000F0BAFB144D280000F03AFA00
:10035000134C1449200006F0ABFF0321042000F0E9
:1003600083FB0321052000F07FFB002201210420F4
:1003700000F092FB00220121052000F08DFB6B2391
:1003800003AA13800023682100932000023306F0A3
:10039000B9FF280000F028FB05B030BDA00E0020FA
:1003A000900F0020A0860100F0B5DE4657464E466D
:1003B00045460023E0B589B004AA1372FFF7A4FFF5
:1003C0005B4A5C4B03925C4A984604925B4A5C4BE6
:1003D00005925C4A474693460122994692465A4CFA
:1003E000E0222368D2011340584A136004225B467E
:1003F0001A60FC3223681342FCD0802366682268AE
:100400005B015340E022D2011340504A360413608E
:1004100004225B46360C1A60FC3223681342FCD07F
:100420003B2304AA04A98C466568D37253460B2269
:100430006821624400933800012306F063FF002323
:1004400068219846009307AA0233380006F0C2FFDD
:100450003D2304AA04A98C46937253460A226821BC
:10046000624400933800012306F04CFF43466821A4
:10047000009307AA0233380006F0ACFF3F2304AA1A
:1004800004A98C46537253460922682162440093A2
:100490003800012306F036FF4346682100933800F8
:1004A000023307AA06F096FF294B2D04F3182D0CF2
:1004B000C62B1AD8264B9C466544C62D02D8424608
:1004C00004AB1A724A46012106A800F045F800283C
:1004D0001CD004AB197A039804F064FC049804F06F
:1004E0006FFBC82001F0B0F97AE7312E12D8184B13
:1004F0009C466544C62DE5D8524604AB1A720121CC
:100500004A4606A800F028F80028E2D1059804F031
:1005100057FBE6E70F4B9C466644C62ED2D80C4BE1
:100520009C466544C62DCDD8022304AA1372C9E7A0
:10053000E0750010900F0020F07500100476001098
:10054000A00E002000E0044000C0044000D00440A1
:100550002FF8FFFF5FF0FFFFF0B5CE4647460D00D6
:1005600080B583B0060000AF4E48140004F01AFCBA
:100570002A00202D00D920226946531C98460733B3
:10058000DB08DB00CB1A9D46E946A02349460B70E9
:10059000002D03D0481C310004F044FA012632003B
:1005A000A378D0259A402D064946AA613E48424686
:1005B00006F0EEFF3200A378391D9A406A611300FD
:1005C0000022FA7017323A713748AB61163A06F0DA
:1005D000DFFF0123FF21FA1C334806F099FF3200A8
:1005E000A3789A406A6117223049FB78304804F0BA
:1005F000D9FB3200E3780F209A4000216A6101F0B4
:100600000FF93200E378391D9A400723AA613200BE
:100610003B71A37824489A40AA61012206F0B8FFF2
:100620000123BA1CFF21204806F072FF3200A37894
:100630009A406A61BB78DA0608D49B0622D400206F
:10064000BD4603B0C0BCB946B046F0BDE1233200A0
:10065000FB70A378F91C9A401348AA61012206F0A6
:1006600097FF3200A378391D9A4013006A61114A3E
:100670000D48BA80AB61022206F08AFFA3789E4043
:100680006E61DCE732000C4B0748BB80A378391D54
:100690009A40AA61022206F07BFFA37801209E40C7
:1006A0006E61CDE75476001000C00340287600103C
:1006B000347600102710000027200000F0B5D64641
:1006C0004F464646C0B582B06B4601246A469F1C21
:1006D0000023D61CD370220001AD3B701D332B705C
:1006E000837880469A401300D02212069361344BDF
:1006F00091469A4629000122180006F049FF3A0067
:100700000123FF21504606F003FF434622009B7859
:1007100029009A4013004A46536104223B78504610
:1007200013433B706B70434639322A7022009B782A
:100730009A4013004A469361022206F029FF43467D
:1007400022009B7829009A4013004A4653611C23DB
:100750002B70434622009B7850469A4013004A462D
:100760009361012206F014FF32000123FF2150465D
:1007700006F0CEFE434622009B7829009A401300E3
:100780004A465361012233785046134333706B70ED
:1007900043463B322A7022009B789A4013004A4617
:1007A0009361022206F0F4FE43469B789C404B4640
:1007B0005C6102B0E0BCBA46B146A846F0BDC04696
:1007C00000C00340F0B5C646012600B5040082B063
:1007D000807800F087F93200A378D0259A402D0662
:1007E0006A626A61E07800F07DF93200E37820788F
:1007F0009A406A62AA6100F075F9320023786F4F5F
:100800009A40AA62607800F06DF9320063789A40ED
:100810006A62207900F066F93200237938009A4044
:1008200067496A6206F03AFC02237A6865491A4011
:10083000904607220B6038684240CF201040624A41
:1008400010604246614802607A680B601A400233C9
:100850000B6002602079012100F006F96078012127
:1008600000F002F92078012100F0FEF888236A46A2
:100870009B0013803200A37869469A403800AA6131
:10088000022206F085FE3200A37802209A406A61B7
:1008900000F0DAFF6A464E4B694613803200A378B7
:1008A00038009A40AA61022206F072FE3200A37854
:1008B00069469A406A616A46464B380013803200A6
:1008C000A3789A40AA61022206F062FE3200A37861
:1008D00069469A406A616A463F4B3800138032008D
:1008E000A3789A40AA61022206F052FE3200A37851
:1008F00069469A406A616A46384B38001380320074
:10090000A3789A40AA61022206F042FE3200A37840
:1009100069469A4091236A616A465B0013803200FF
:10092000A37838009A40AA61022206F031FE320014
:10093000A37869469A4021236A616A46138032008F
:10094000A37838009A40AA61022206F021FE320004
:10095000A37820009A406A61FFF7B0FE6A462A2316
:1009600013706B4605221E49581C04F05BF83200D8
:10097000A37869469A403800AA61062206F008FE6C
:100980003200A3789A4030236A616A4613706B463E
:1009900005221449581C04F045F83200A378694632
:1009A0009A403800AA61062206F0F2FDA3789E4024
:1009B0006E6102B080BCB846F0BDC04600C00340C6
:1009C00040420F0004F0034000D0034004E0034025
:1009D00023030000254C0000260E0000248FFFFF9B
:1009E000A80E0020B00E0020F0B50124C64600235A
:1009F000220000B582B001AF3B708378D0269A40C8
:100A0000184B360605003900B261180001229846DD
:100A100006F0BEFD6A460123FF214046033206F080
:100A200077FD2200AB7839009A406B4672616A46C6
:100A3000DB784046A343D37020223A7022007B70BB
:100A4000AB789A40B261022206F0A2FD2200AB7898
:100A50009A407261EB789C40B46102B080BCB846A9
:100A6000F0BDC04600C00340094A10B5944640247A
:100A7000830063441A68C0006240803414408022BE
:100A8000520113431C60034B9C466044416010BDFF
:100A900004C0014000400140074B80009C46604478
:100AA0000368C90092000A435A400C231A4080236D
:100AB0005B0103431A60704704C00140084B80008B
:100AC0009C466044002905D0802340229B010343BB
:100AD0001A607047C02340229B0103431A60F8E765
:100AE00004C001400123D022834012069362936127
:100AF000094A40219446830063441A68C0004A4072
:100B0000803111408022520113431960034B9C46EF
:100B1000052360444360704704C001400040014029
:100B2000024B18688007C00F7047C04600C00640DF
:100B300070B5EFF3108C72B60D4D2B68002BFCD006
:100B4000BFF35F8F0724CB08C618C05C01230C409D
:100B5000A3401C000440034207D118433070BFF388
:100B60005F8F2C608CF3108870BD100001F0ACFC1E
:100B70002C0100D0F8B54746CE46884680B5EFF345
:100B8000108C72B6214D2C68002CFCD0BFF35F8F07
:100B90009A422CD8D4080727055D0619012417406E
:100BA000BC402C421FD007210127894609E0D40808
:100BB000055D06194C4639001440A1400C0029423D
:100BC00011D001329342F2D201204042BFF35F8F35
:100BD00000220E4B1A608CF3108800280FDBC0BC7B
:100BE000B946B046F8BD254310003570EEE7BFF3B7
:100BF0005F8F00232B608CF3108801204042434616
:100C0000002BECD0089801F05FFCC0462C0100D00E
:100C10000021044B044ABFF35F8F02C39342FAD111
:100C20007047C046000100D0800100D0044A10780F
:100C3000431CDBB2172B00D9102313707047C0463A
:100C4000B50E002010B5064B064C82B00100009393
:100C500018221F232000FFF78DFF02B010BDC046F1
:100C6000587600104418002001238340002904D046
:100C7000034A1360034A13607047034A1360FBE79B
:100C800080E200E000E100E080E100E00123834039
:100C9000014A13607047C04600E200E0084B103084
:100CA0009B688000C358002B07D0064A00209B1A7F
:100CB0002F229A424041C0B270470020FCE7C04654
:100CC00000ED00E0B80E0020024B10309B68800061
:100CD000C058704700ED00E070B50D00EFF31086CE
:100CE00072B60F4A1368002BFCD0BFF35F8F0D4B19
:100CF00010309B6884001B590B4A934203D09D42DD
:100D000001D001F0F9FB074B9B681D51BFF35F8FCA
:100D1000BFF35F8F0022024B1A6086F3108870BD0C
:100D2000240100D000ED00E0CD010010F0B54E46EA
:100D30004546DE465746E0B583B006000091904632
:100D4000EFF3108B72B6654A1368002BFCD0BFF32B
:100D50005F8F0025624B5D579A46002D00DA79E0DF
:100D600052466B005F4C5F19BF000193E31999462F
:100D70009B79103613705C4BB6009B6899590B1B1E
:100D80002F2B33D9594B994200D07CE0019B02377D
:100D90009C46574B6544AD006353564BE719043BE3
:100DA000DB1B554A1B055B0D651913436B80534BC9
:100DB0000121AB80FF23AB714346EB71009BAB601D
:100DC0004B460B431900484B9B689951BFF35F8F0B
:100DD000BFF35F8F0022414B1A608BF3108803B082
:100DE000F0BCBB46B246A946A046F0BD01200A00B1
:100DF0008243D379434549D9BC464746884607E0F4
:100E00005800C01880002018C179B94228D90200C2
:100E10000623D356002BF3DA9A46131D9C4641460F
:100E2000B846374F484663460438C01A0005324B6F
:100E3000400D1843019B908095715A1953469200BA
:100E4000A418A37143462F4AE371009B2260A78038
:100E5000A360B8E701F050FB002553465D577FE7DC
:100E60009A464146131DB84667469C46908804370B
:100E700040050015E7196044C01BE0270005400D40
:100E80003F020743CEE701F037FB7FE713001E491F
:100E90001B1B5B415943090D154BBD1CE353154BFF
:100EA0006519043B5B1B1B05134D5B0D2B43AC46C7
:100EB0004D466B8065460437131FE719DB1B1B0586
:100EC0005B0D1D434B4699714146D97100999D8038
:100ED000996049460B4B0143136074E7240100D02D
:100EE000351D0020B80E002000ED00E0CD010010FF
:100EF00000A1FFFFE80E002000E0FFFF01BDFFFFA3
:100F000001BD000001488047AAAA0000F0B5DE46F6
:100F100057464E464546E0B50C0083B0EFF31088C7
:100F200072B65D4A1368002BFCD0BFF35F8F5B4B3A
:100F30005B499A68030010339F00D5598D4239D020
:100F4000A5424AD0574EAA1B2F2A33D801229246D7
:100F5000824091464846544A1268104001904846E3
:100F6000524A1060BFF35F8FEFF305829346002A69
:100F700035D0934201D001F0BFFA2A0053469A437C
:100F80009068844208D175E04B005B189B00F31811
:100F90009868A04234D01A00062151560029F3DA8D
:100FA000844253D0019B002B26D04A46404B1A6006
:100FB0003D4B1A60394B9B68DD51BFF35F8FBFF328
:100FC0005F8F0022344B1A6088F3108803B0F0BCA6
:100FD000BB46B246A946A046F0BD0D00EAE72A008E
:100FE00053469A4390688442D6D106201056130087
:100FF000002809DA0D0031E04A462C4B1A60D9E787
:1010000006201856002822DB4200111889007418A7
:101010008A46A1689960E179D97106216156997172
:10102000002925DBA488F11A640524155444091904
:10103000E0240905490D24022143998013181D4A13
:101040009B001178F31899711070ABE713005946A3
:10105000002914D1FF3191711749918015490A78FF
:101060009A71164A9B1B5B415A43120D0A7099E70D
:101070001349E2E70620105613000028C4DA114A8B
:101080001149D21A083A5002400D014399800F4984
:1010900052080A43DA8085E7240100D000ED00E021
:1010A000CD010010B80E002000E100E080E100E07A
:1010B00080E200E0351D002001BDFFFFAAAA00006C
:1010C00001BD0000F20E002000F0FFFF00F8FFFF5E
:1010D00070B5EFF3058101240443EFF3108C72B671
:1010E000214A1368002BFCD0BFF35F8F1F4B050014
:1010F0001F4AED1A6D416A43120D1E4D8900AE68FC
:1011000052B27658A6421CD00621595691421CD0A4
:1011100012215956914222D01E215956914220D077
:101120002A2159560324914210D0134B19781A7072
:101130008171BFF35F8F00220B4B1A608CF3108814
:1011400070BDAB680D4C5C50EFE7002461000919DD
:1011500089005B18FF21997109499980E5E701240D
:10116000F4E70224F2E7C046240100D0B80E0020C4
:10117000AAAA000000ED00E0351D0020CD010010FE
:1011800001BDFFFF054B064A1360064A136053601A
:101190009360D36013615361936170478080808056
:1011A00000E400E004E400E010B5084B084C82B015
:1011B00001000093002205232000FFF7DBFC00283C
:1011C00001DB1F23181A02B010BDC0467476001050
:1011D0003A1D0020024B9C46614489000160704723
:1011E0004000003410B50400FFF720FD010020008E
:1011F000FFF7F0FFFF232371BFF35F8F10BDC046E1
:1012000010B50400FFF712FD01002000FFF7E2FF18
:10121000FF23A380BFF35F8F10BDC04610B504004D
:101220000120FFF70FFD034BC3189B002360BFF3A2
:101230005F8F10BD40000034034B9C466144890021
:101240000160BFF35F8F70474000003483680B4834
:1012500010B58446614462441201090159189B1873
:101260005C684A680120944201D802D00020C0B2D4
:1012700010BD1A680B689A42F9D8F7E7FFFFFF0F15
:101280000A4B1968EFF3108072B60A68002AFCD086
:10129000BFF35F8F1B68BFF35F8F00221A6080F37C
:1012A000108840BF002000217047C046041D002068
:1012B000F8B5574645464E46DE46E0B598460CAB77
:1012C0001C780DAB1B78070091469A460568002CE8
:1012D0005AD1AC7B002C3BD0660029683619033EFE
:1012E00089194B78AB73002B00D1EB7300238B7003
:1012F0004B700B702B4BE218BB6812019B184A46CF
:101300001A6042465A600A9A9A600B9ADA60002381
:101310008B704B700B706B7B9B46002B27D0220091
:101320006B685946A86898475B465B005B442A682F
:10133000033B002812D058469619B070D118D35CE0
:10134000002B00D073705B460C706B735C450FD044
:10135000F0BCBB46B246A946A046F8BDD3189C7067
:101360009119925D002A00D05A705B460B706C7325
:101370004A464346387D00F0B3FB051E0AD10E9B5A
:10138000002BE5D01D70E3E7660029683619033E9F
:101390008919AFE75346002BF1D12100386800F0DE
:1013A000B7FDECE7FFFFFF0FF0B5DE4657464E46B0
:1013B00045460023E0B58BB00893684B8200D458B3
:1013C00000239B46099000F02BFB02000B00606895
:1013D000EFF3108A72B6564601680029FCD0B24677
:1013E000BFF35F8F21684F7B8C46002F2ED0A568FE
:1013F0005B49A94679180901894449460868496842
:1014000005000E00AD1A9E41002E5FDD02000B00AC
:10141000099800F065FB00230022994600230692FC
:101420000793002398466368BFF35F8F5A461A609C
:101430008AF310884346002B12D10028C3D10BB089
:10144000F0BCBB46B246A946A046F0BD0023002230
:101450009946002306920793002300209846E2E76E
:10146000089B494618023843C047626805000E00D1
:10147000EFF3108A72B61368002BFCD0BFF35F8FB6
:10148000002E41DB2B00334302D02369002B56D1C1
:101490002368D97B002905D01A68480041185218E2
:1014A000033A57709A7B002A00D19F73DF73E2687A
:1014B000013FD35D0133D3555B4623616368BFF3BE
:1014C0005F8F5A461A608AF310887CE7002E02D19B
:1014D000002D00D09AE70021604600F097FC4B46B3
:1014E0001A685B68069207934B469B6898464B4682
:1014F000DB689946E368DB19013B1B7808931B0204
:101500000343236100208EE72369002BC0D0069A95
:10151000079B8021521BB34109068B4202D3012253
:10152000104B52420021049101310391494601912F
:101530004146200002970091FFF7BAFEBCE700F099
:101540006FFA2A00330012184B41802109068B42A2
:10155000E8D30122034B5242E4E7C046E81C0020D6
:10156000FFFFFF0FFFFFFF7F10B5144C6368002BD8
:1015700004D00A211248FFF72DFE10BD2300114AA6
:101580001021206800F05EFB032000F03DFA0320EC
:1015900000F00EFB03200C4900F05CFAFFF746FB5D
:1015A0000A4B9C4603232375D0231B061B6860440B
:1015B0006375074B80006060DC60DAE7000F002095
:1015C000041D00204D120010A9130010400000342B
:1015D000E81C002000487047000F0020F0B5574677
:1015E0004E464546DE46E0B585B0019310AB1B780C
:1015F0000600039300239A46984600927268EFF320
:10160000108B72B61368002BFCD0BFF35F8F356868
:10161000AC7B002C00D16EE067002B683F19033FC4
:10162000DB195A78AA73002A00D1EA73484AA11834
:10163000B2680901521800980199106051600E9922
:1016400091600F99D16042469A705A701A706B7B04
:101650009946002B00D16BE022006B684946A868D0
:1016600098474B465B004B442A68033B002856D002
:101670004846D719B870D118D35C002B00D07B70C6
:101680004B460C706B734C4553D0F3681B19013BF0
:1016900018787368BFF35F8F42461A608BF3108827
:1016A0005346002B08D10002204305B0F0BCBB46D6
:1016B000B246A946A046F0BD039B002B46D00E9B28
:1016C00000200F99984703000B433FD004000D1EE4
:1016D0001ADA009A019B121BAB41009201938022FF
:1016E0001206934204D301231A4C5B4200930194E7
:1016F000039B9A4682E77368BFF35F8F1C608BF38E
:10170000108801204042D0E700F08AF980220019B9
:1017100069411206009001919142E9D3E3E7D318A1
:101720009C70D119D25D002A00D05A704B460B70C4
:101730006C73307D009A019B00F0D2F9824600283C
:10174000A3D02100306800F0E3FB9EE70020ACE767
:10175000FFFFFF0FFFFFFF7F407D7047F0B50400E4
:101760000D0006267642F717C64636196F4100B5BA
:1017700084B08F4214D811D000F052F932003B00EF
:10178000121A8B41002B15DC002B3ED020002900C3
:1017900000F050F904B080BCB846F0BD8642EBD9E9
:1017A0000026002700F03CF932003B00121A8B4162
:1017B000002BE9DD002302930193154B32000093C7
:1017C00014483B00FFF70AFF0028DFDB00239846A0
:1017D000BC46114A114F7B6A9C4504D8B96AB14294
:1017E000D4D29C45D2D11168EFF3108072B60B6849
:1017F000002BFCD0BFF35F8F1368BFF35F8F4146B0
:10180000196080F3108820BFE5E7002ABED0D1E739
:1018100081120010000F0020041D00200040054030
:1018200070B504000D0000F0FBF880230019694139
:101830001B06994202D3012002494042FFF78EFF66
:1018400070BDC046FFFFFF7F70B5060000F0E8F8EE
:10185000FA2204000D00002330000021920003F062
:1018600071F88023001969411B06994202D30120B7
:1018700002494042FFF772FF70BDC046FFFFFF7F85
:10188000F0B5EFF30583CE46474680B505000C0062
:1018900085B0002B12D02A4A0020536AA34203D3FA
:1018A000926A0130AA4204D305B0C0BCB946B04622
:1018B000F0BD1B1B5A1E9341D8B2F5E7214E02938F
:1018C0000193214B0200009330000B00FFF786FECE
:1018D000031EE0DD20BF7168EFF3108772B60A685F
:1018E000002AFCD0BFF35F8FDAB29446FF22306843
:1018F0001A40417B61450FD00168894651008846F6
:1019000049469044414403398978002904D1326919
:10191000934209D1316107E0F1681B0A8A18013A44
:101920001278DBB29A4207D07368BFF35F8F002250
:101930001A6087F31088AEE7614600F0E9FAF3E732
:1019400000400540000F002081120010F0B5EFF3B9
:101950000582D6464F4646461000C0B51038EFF314
:10196000108872B6214C2368002BFCD0BFF35F8F28
:101970000123190081401E4D1F006963AA461D4DB9
:1019800029601D4D2E78AC463500C5402F402B42B6
:1019900015D053465F6A194B8500EB589F4218D308
:1019A0006246174B8E43EB581670BFF35F8F0022D1
:1019B000226088F31088002B06D0984704E0BFF31C
:1019C0005F8F276088F31088E0BCBA46B146A8460E
:1019D000F0BD0C4B92009C46624413681360BFF349
:1019E0005F8F0023236088F31088EDE7280100D083
:1019F000004005403C700540391D0020101D0020AE
:101A00002C170020D03F054010B5034B01001800F3
:101A1000024AFFF78DF810BD341D002090760010AB
:101A2000034B596A0A00986A596A8A42FAD1704788
:101A300000400540064A536A9942FCD807D1044B3E
:101A400002E05A6A914202D19A6A8242F9D37047FF
:101A50000040054070B504000D00EFF3108672B62B
:101A60001A4A1368002BFCD0BFF35F8F002D1BD0E8
:101A70002000FFF729F9164981420AD02000FFF71C
:101A80002BF901212000FFF7EFF80123A340114AB1
:101A90001360114BA400E550BFF35F8F00220B4B86
:101AA0001A6086F3108870BD0121A1400A4BA20084
:101AB000D5500A4B20001A788A4305491A70FFF75F
:101AC00025FA00212000FFF7CFF8E5E7280100D034
:101AD0004D190010386005402C170020391D0020DA
:101AE000F0B54F46D6464646C0B507002B4C616A56
:101AF0000D00A66A616AA942FAD18B4208D805D0C6
:101B00000120E0BCBA46B146A846F0BDB242F7D9C2
:101B1000EFF3108A72B6224801680029FCD0BFF3A7
:101B20005F8F0125BD401F491C4C884609788946B6
:101B30002943C9B28C46414660460870391D890068
:101B400065630A511849B8004350216A00202942B0
:101B500019D0616A0800A66A616A8142FAD18B4293
:101B600019D801D1B24216D8CC450BD00B4B1F224D
:101B70001D625D6301233A4093400C4A1360434663
:101B80004A461A700120BFF35F8F0022044B1A608F
:101B90008AF31088B5E70020F5E7C046004005400D
:101BA000280100D0391D0020101D002080E200E037
:101BB000EFF3108C72B60A490B68002BFCD0BFF310
:101BC0005F8F01238340074A0748136202789A43D4
:101BD0000270BFF35F8F00230B608CF31088704797
:101BE000280100D000400540391D002070B50600D6
:101BF0000D00140000291DD0002A12D073688068DF
:101C0000984762006B0012195B193168033A033B75
:101C1000002808D08A189570C818CB5C002B0BD10F
:101C20000470280070BDCB189C7088188A5C002A4C
:101C300005D105702000F5E753700470F1E75A7084
:101C40000570F7E710B583600023CCB2437301330E
:101C5000426004738373C4730068421C012C05D96D
:101C60000133DBB2137003329C42F9D1FF230B40E6
:101C70005A00D318C01800230338437010BDC04663
:101C800070B505000C1E07D0630001681B19033BEB
:101C9000CB185A78002A01D1200070BD500080185E
:101CA0000338091800204E78487021005870280029
:101CB000FFF79CFF310004002800FFF7E1FF06005A
:101CC000002C20D00028E7D0320021006B68A868E3
:101CD00098477200630092191B192968033A033B65
:101CE000002808D08A189470C818CB5C002B00D04C
:101CF00053700670D0E7CB189E7088188A5C002A53
:101D000000D05A7004703400C6E7C046F0B557469C
:101D10004546DE464E46E0B50D006F0001687F196E
:101D2000033F0400C85D83B00192CA19002850D057
:101D300043001B18033BCB185E78B446002E1AD123
:101D4000019E002E42D0E67B002E04D073009B192A
:101D5000CB18033B5D70A37B002B00D1A573E5730B
:101D600000282FD10023537003B0F0BCBB46B2460D
:101D7000A946A046F0BD72006244033A8A18517821
:101D800088460021517089465970320001002000B8
:101D9000FFF72CFF43468246002B07D05B002168EB
:101DA0004344033BCB185A78002A16D14246514689
:101DB0002000FFF71BFF2168019BCA19002BC2D12D
:101DC0000028CFD043001B18033BCB18002199708B
:101DD000C8E7019B002BB6D1C4E750008018033838
:101DE0000918487883464846487058704146200094
:101DF000FFF7FCFE594680462000FFF741FF4146B1
:101E000002002000FFF7F2FE8046CFE7F0B557460C
:101E10004546DE464E46E0B583B00191457B040061
:101E20006F0000687F19033FC15DC219002952D0BD
:101E30004B005B18033BC3185E78B446002E1CD1E0
:101E4000019E002E44D0E67B002E04D073009B1927
:101E5000C318033B5D70A37B002B00D1A573E57312
:101E6000002931D1002328005370617303B0F0BC06
:101E7000BB46B246A946A046F0BD72006244033A92
:101E80008218507880460020507081465870320089
:101E90002000FFF7ABFE43468246002B07D05B00D5
:101EA00021684344033BCB185A78002A17D1424695
:101EB00051462000FFF79AFE019B01002068C219DD
:101EC000002BC0D10029CDD04B005B18033BC318B9
:101ED00000209870C6E7019B002BB4D1C2E75000E8
:101EE0008018033809184878834648464870587067
:101EF00041462000FFF77AFE594680462000FFF752
:101F0000BFFE414602002000FFF770FE8046CEE78C
:101F100070B5050000292CD0437B8B422ED04C009D
:101F200000686418033C0419A278002A21D05300E9
:101F30009B18033BC25CC6188A4202D11BE0002AF0
:101F400008D053009B18033BC3185A788A42F6D135
:101F500062785A70002301222800A3706370FFF793
:101F6000D5FE697B02002800FFF740FE6873012060
:101F700000E0002070BD63783370EBE701221900A8
:101F8000FFF7C4FEF2E7C04610B50C2082B000F0A7
:101F9000B5F9FEF7C5FD002810D08B4B8B488B4957
:101FA0008B4A186059609860D960186159619861CE
:101FB000D961186259625A6202B010BD854CA0679F
:101FC00000F0F2F90122844B1A60636C012BFCD102
:101FD0000322824B1A607F4A936B012BFCD10133A1
:101FE00001217F4A7F480093043300F037F905232D
:101FF0007D4A009301217D4800F030F97C4B5A68FE
:10200000FF2A02D8802252005A608022734B6E4C05
:1020100012011A602169002907D0606901F07AFE77
:10202000013043001B18033BFDD2E022704B714886
:1020300019680A40026002221968514001320A40C0
:10204000042102609A681142FCD080216A4A090189
:102050001160802252005A60684B2361684B5968B6
:10206000FF2900D85A60032201215B4B1A60644AA1
:1020700093681942FCD0E023106803406148036074
:10208000126803234A40022113405D4A03609368AB
:102090001942FCD080215C4B0901196080215B4B07
:1020A0004900516063615A4B5A68FF2A00D8596051
:1020B0008022584B12011A60E169002907D060693B
:1020C00001F028FE013043001B18033BFDD2E02342
:1020D0004F4A11680B4050490B6080214F4B09015A
:1020E00019608021394B49005160E3614C4B5A68BB
:1020F000FF2A00D8596080224A4B12011A60216AD7
:10210000002907D0606901F005FE013043001B186B
:10211000033BFDD2E023424A11680B4042490B6069
:102120008021424B0901196080235B0053608022AB
:10213000264BD20223623E4B5968914200D25A602C
:1021400080223C4B12011A60616A002907D0606945
:1021500001F0E0FD013043001B18033BFDD2E023FA
:10216000334A11680B4034490B608021334B09011D
:1021700019608023DB025360154B6362304B5A6851
:10218000FF2A02D8802252005A6080222D4B120171
:102190001A60A169002907D0606901F0BBFD013018
:1021A00043001B18033BFDD2E023254A11680B4076
:1021B00025490B608021254B0901196080235B00B4
:1021C0005360124BA361F7E6B80F0020006CDC02ED
:1021D0001BB70000008000403CB0004030B0004021
:1021E000002F685900800240008C864700C00240E2
:1021F000308000403090004030A00040001BB7000D
:102200003C8000403C9000403CA000404059730797
:102210005480004054B000405490004054A000400E
:102220006080004060B000406090004060A00040CE
:102230006C8000406CB000406C9000406CA000408E
:102240004880004048B000404890004048A000400E
:10225000014B8000C0587047B80F0020F8B504004B
:1022600021481D0017000E0001F054FD0100380048
:1022700001F050FD069B29041B0319432368002B22
:1022800020DB1A4B1A4DE21853425A4180235B015E
:102290009C461203174B62441A60174B1A601700D2
:1022A000AB689F43FBD1C022231D92011A43212317
:1022B0002660A06013602368002BFCDA0823E1602D
:1022C0001360F8BD3F2322681340B342D9D1A368FD
:1022D0001B051B0D8342D4D1EE22E368D2021340CA
:1022E0008B42CED1EDE7C046001BB7000040FDBFDA
:1022F00000C0004000E0004000F000408023024A9F
:102300009B000343D36270470080054010B58024D2
:102310001C4BE4051C6000281AD001231A4C1843FA
:102320001A4BDC611A4C44401C625962986280214D
:10233000144BC9051960174817490860E021C90402
:102340001960002A07D18022144B12061A6010BDB2
:102350000E4BD861EBE753019B1A9B009A18802320
:1023600012015B049A4209D213000D490B60074B1E
:102370005A608022094BD2051A60E8E7094B1A001F
:10238000F3E7C04600B00540D3C007B00080054069
:102390002D3FF84FFCFF01000820014000A0054040
:1023A000C01C0020FFFFFF00AA23064A1B01136088
:1023B0002F230549D360054B19605368002BFCDAC5
:1023C0007047C0460040024000B0FA000060024082
:1023D0002B4B2C4A70B51A602B4A2C4B2C491A6097
:1023E00014008B689C43FBD12A4D2B4EB54208D27A
:1023F000013E761BB60808CD984723000134B3424E
:10240000F9D1FFF7C1FD254A204B1A60204A936895
:10241000DB43DB01DD09002BF9D14022204B214EAB
:10242000214C9A675A671A67DA66B44208D2236861
:1024300020000834002B1FD0FEF7E2FEB442F6D392
:102440001A4C1B4EC022B168200002F0EBFAB460B7
:10245000FEF7DEFBFEF796FEFFF786F8154C164EEC
:10246000B44208D2013E361BB60808CC98472B0070
:1024700001359E42F9D170BDFEF7B4FED5E7C046E6
:1024800000E00040BFCDFBFEFE7F3C0000F00040BE
:1024900000C00040A00F0020B00F0020FFFFFF0190
:1024A00000F00140A00F0020980F00200000002045
:1024B00000ED00E0B00F0020B80F002000BEFDE7E7
:1024C00010B5FFF7FBFFC0460FB400B5084883B056
:1024D00002F076FB049B002B07D005A918000191A0
:1024E00001F09EFB034802F06BFB0120FFF7E6FFC3
:1024F000B4760010C476001010B50148FFF7E4FF71
:10250000C87600107047C046F8B557464546DE46C7
:102510004E46E0B598460A9B06009A460D9B0F0072
:10252000934615009B0710D10B9B0C9A93420CD23B
:1025300013005C460B9A9D1A5D4422004346013409
:1025400039002020B047A542F7D10B9C6319002C1D
:1025500009D01D0053462A1B013C185D3900434633
:10256000B047002CF6D10D9B9B070ED55B46EC1AAD
:102570000C9BA34209D999462A00434639002020E2
:102580000134B0470135A145F6D82800F0BCBB4660
:10259000B246A946A046F8BDF0B54F464646D646D7
:1025A000C0B584B098460EAB1B7894469946129BF2
:1025B0000D9C109F119E9A0724D4002E6AD1BC4214
:1025C00020D201221A409246202C00D1D2E00C9A4F
:1025D000551E302201E0202C30D001342A55A7426C
:1025E000F9D85246002A0DD0B4420BD20C9A551E8F
:1025F0003022202C02D126E0202C63D001342A5531
:10260000B442F9D1DA0634D55A0564D4002C5ED12F
:102610000F9A102A00D197E0022A00D1A8E03022B8
:102620000C9C227001244A46002A5ED15A0700D42D
:1026300083E02B220C9D2A5501341CE05246002ACF
:1026400002D0202E3ED92024DA0614D55A0512D401
:10265000202F00D1A1E0202E3DD120261F223400C2
:102660000F9D102D00D18BE0022D52D030250C9FF4
:10267000BD54202CD7D103930C9B62460093029645
:1026800043460194FFF740FF04B0E0BCBA46B146B0
:10269000A846F0BD012215001D40AA461A4229D0C5
:1026A0004A46002A39D10C321A4236D1BC429BD25A
:1026B000202C00D08BE710221A40202EC3D8002AED
:1026C000A2D1D8E72024DA06D5D55A0503D4A742EB
:1026D00025D0B44223D00F9A102A25D0022A14D034
:1026E000202CC8D022000134C0E72D220C9D2A5591
:1026F0000134C0E7BC4200D384E7202C00D066E759
:1027000010221A40002AE0D1B5E7202CB3D02200D5
:10271000013462250C9FBD54E2E7013EC6E7621E0C
:10272000012C00D174E79BE79A0616D4202CA2D086
:1027300078220C9D2A550134D2E71A079BD5202216
:102740000C9D2A55013496E79A060FD478220C9CEA
:10275000227030226270022465E7202C00D18AE7C3
:1027600058250C9A121915700134B9E75822EEE772
:102770006222ECE7102255461A40002D9FD1C1E796
:10278000023C9D0604D478250C9F3D551400A9E712
:1027900058250C9F3D551400A4E71F2260E7C04652
:1027A00010B5002800D110BD02F0BEF9FBE7C0460D
:1027B0000B0010B5002802D049681B68984710BD6F
:1027C000F0B557464E464546DE46E0B599B08246DE
:1027D000894690460893229A239B1000190001F025
:1027E0005AFD002800D0CDE0229823990122D94B30
:1027F000524201F04BFD002800D0C3E022982399FB
:102800000122D54B524201F033FD002800D0B9E03F
:10281000229823990022002301F02AFD002800D0ED
:10282000F1E1229E239F8023269ADB001A400D921D
:10283000269A1A4201D1062324938023269A1B014B
:102840001A403B0093460996334300D0B3E0002A78
:1028500000D0C2E1002300240A930B940023042536
:102860000993259B0024AB4200D95C1B0223269AC6
:102870001A400C92269A134203D06B426B415B4282
:102880001C40099B002B07D00A9A0B9B3000390093
:1028900001F08DFC06000F002298239900220023EE
:1028A00001F0E6FC002803D0802109067B181F00F8
:1028B000269AAA4B009601971340089E0493249BE6
:1028C00003940293424633004946504600F0AAF969
:1028D0000400002D67D02020269A494602401300AC
:1028E0005A4253415B42621C18400A923300220054
:1028F0004530D047099A6F1ED317D4185C40D30FC8
:102900009B46002501E0202D13D008AA94461F23E2
:10291000200063440A2101355E1901F0FBF93031D2
:10292000317020000A2101F0F5F926000400092E7B
:10293000E9D805230693002304930A3303935B46E7
:10294000089E029310AB0A9A009349463300504602
:1029500005970195FFF720FE0C9A0400002A22D06B
:102960004246851A259AAA421DD9B04657461600F6
:1029700022004346494620200135B8470134AE4283
:10298000F6D810E0269B42460493259B49460393C4
:10299000249B50460293229B239C00930194089B06
:1029A00000F040F90400200019B0F0BCBB46B2466C
:1029B000A946A046F0BD6A4B78009C46400D604495
:1029C00001F07CFC674A684B01F00FFC674A684BDA
:1029D00001F0E4FB674A3B031B0B1A4304000D00A4
:1029E00009981100644B002201F0CFFB634A644B4D
:1029F00001F0FBFB02000B002000290001F0CEFBE0
:102A000001F074FC099001F059FC5E4A5E4B040031
:102A10000D0001F0EAFB00225C4B01F0BFFB01F06E
:102A200065FC5B4A5B4B29000C90200001F0DDFB4C
:102A300004000C980D0001F041FC574A574B01F07F
:102A4000D4FB02000B002000290001F09EFB0400D3
:102A50000D0002000B000A940B9501F0C6FB040068
:102A60000D000A980B9902000B0001F097FB002261
:102A70000E900F914A4B2000290001F098FB002294
:102A8000484B01F08BFB02000B002000290001F0F5
:102A90008EFB0022444B01F081FB02000B00200062
:102AA000290001F084FB0A9A0B9B0D008021040091
:102AB000C905002001F069FB02000B00200029007D
:102AC00001F06CFB02000B000E980F9901F06FFBF8
:102AD0000022284B01F062FB344B0C9C9C46644462
:102AE0002305002201F081FB04000D0002000B0011
:102AF000300039000A940B9501F0BAFB00285DD133
:102B000023002A00C625099963318D42AD415946FB
:102B10006D420435002900D1A3E6134363D0300091
:102B20003900234A234B01F0A9FB002807D00022DB
:102B300030003900204B01F09BFB002853D1249B2F
:102B4000002B00D18DE60D9B5A1E9341249AD31A77
:102B5000249386E6FFFFEF7FFFFFEFFFFFF7FFFF06
:102B600001FCFFFFFB799F501344D33FB3C8608B38
:102B7000288AC63F0000F03F0000F83F61436F63C2
:102B8000A787D23F71A379094F930A400000E03F25
:102B90001655B5BBB16B0240EF39FAFE422EE63F47
:102BA00000002C400000244000001840FF030000FB
:102BB0002D431CEBE2361A3F80842E41099B0022F4
:102BC000013B09932000164B290001F0F0FA0A009E
:102BD000010003000A910B9294E7002300240A935A
:102BE0000B9400230993249A099B9A4214DDD31A6B
:102BF000013B24938023269ADB001A4300230025FF
:102C0000269209932DE6802212069446229B1E00EE
:102C1000239B63441F0006E600232493EAE7C04693
:102C200000002440F0B54546DE464E465746E0B526
:102C300095B08B46904699461E9A1F9B0A901900A4
:102C40001000209D01F027FB002800D0B0E11E9865
:102C50001F990122C74B524201F00AFB002800D005
:102C600037E11E981F990122C34B524201F00EFB1F
:102C7000002800D0A7E01E981F990022BF4B01F04A
:102C800005FB002800D088E01E981F990022BC4B4D
:102C900001F0EEFA002800D07FE01E981F99002274
:102CA000002301F0E5FA002800D0FAE000230B939E
:102CB0008023229C229ADB001C401A4200D102E1B0
:102CC000092D00D87EE106A98C462C00172200238E
:102CD0003021093C62440133D154EF1A202B00D13A
:102CE00032E1A342F7D10022A44B069207931E982B
:102CF0001F9901F0FBFA050001F0E0FA02000B0059
:102D00001E981F9901F041FA069A079B01F06DFA8F
:102D10000890099101F00EFB060001F0CBFA0200C9
:102D20000B000898099901F030FA0022954B0890A1
:102D3000099101F0ABFA002800D1D2E00136300051
:102D400001F0B8FA069A079B01F098FA002801D022
:102D500000260135AA46002F00D098E0280001F097
:102D6000ADFA02000B001E981F9901F00EFA854B78
:102D7000002206000F0001F07BFA0CAB9A460028F7
:102D800045D10022300039007E4B01F07FFA002847
:102D90003DD1EB073BD5013539E0229B42460493F8
:102DA000219B594603930A981E9B1F9C02950093F2
:102DB00001944B46FFF704FD15B0F0BCBB46B2468C
:102DC000A946A046F0BD229B5B0767D403226E4B49
:102DD00022990192039121990291009342464B4618
:102DE00059460A98FFF790FBE6E706AA9446172390
:102DF000280063440A2101341E1900F063FF3031BA
:102E0000280031700A2100F05DFF051E76D0202CCD
:102E1000EBD10323229A1340012B1DD1219B002BC0
:102E20001AD00B9B002B00D0BBE0229A0C3313422C
:102E300000D0B6E0219BA34200D887E006AB9C46B9
:102E400017223023624404E02199013413558C4247
:102E500059D0202CF8D12024229B01940393219B4C
:102E600002935346B9E706AA944617230A216344FE
:102E7000300001341D1900F04DFF30312970300051
:102E80000A21013F00F046FF092E46D90600202CFA
:102E9000E9D155460CAB20249A46B8E704223B4BB7
:102EA00096E71E9A1F9B0020002101F06EF9012376
:102EB0000B938023229C229ADB001E901F911C40C2
:102EC0001A4200D0FCE60022314B062706920793F7
:102ED0000DE7229B0393219B0293042301932D4B27
:102EE0007BE7002208980999264B01F0C1F90028D8
:102EF00000D02FE7002E4FD101362BE70323229A73
:102F00001340012B68D0202CA6D00B9B002B1FD088
:102F10002D235246135501349EE75546202CB9D037
:102F200030223B19002F4BD0172006A90134091875
:102F30000A55202CAED09C42F6D10CAA92462E22E5
:102F400051465C1CCA5462E72024CCE6202C83D076
:102F5000229B5B0708D4229B1B0700D47CE720231D
:102F600052461355013477E72B235246135501344B
:102F700072E7C046FFFFEFFFFFFFEF7F65CDCD415A
:102F800065CDCDC10000E03FDC760010D4760010A6
:102F900080842E41E4760010F30700D4DAE601368F
:102FA000D8E6219B013B2193A34200D946E7AAE73B
:102FB000229B0393219B029303230193084B0CE76D
:102FC0002300BAE7074BEA009B185C681B682F00D8
:102FD0000693079400248AE6219B002B93D020E7D8
:102FE000E076001088780010F0B54546DE4657467A
:102FF0004E46E0B5A1B01D002A9B90460B93D04AE7
:10300000D04B83468A461A60002900D1A4E10023F0
:1030100028789946002800D1A6E1CB4B5E4609935B
:10302000CA4B4C46D34647460D930AE0631C98466C
:1030300022003B005946B04744462878002800D17A
:10304000CDE001352528F1D108239A46043B994665
:10305000023B9846013B00229C460C942878691C50
:103060000300203BDBB2102B03D8099C9B00E358E4
:103070009F460300303B0C9C0A92092B7FD900230A
:1030800098462A2800D1C1E000239A462E2800D174
:1030900090E00300683BDBB2122B1ED8AC4A9B00C9
:1030A000D3589F4663460D001A43D7E743460D00A9
:1030B0001A43D3E74B460D001A43CFE710230D0008
:1030C0001A43CBE753460D001A43C7E780235B0042
:1030D0000A9A68781A430A9201310D0067280AD8C3
:1030E0002428A3D90300253BDBB2422B9ED80D9A9E
:1030F0009B00D3589F4601006939C9B20F2995D862
:1031000001238B409C46934B994663464A461340A5
:103110000C9362464B461A4200D05EE20A2900D167
:1031200024E1072982D10B9B02CB9846002900D1CC
:103130009BE121200A9A0243914610AB9C461F2234
:103140000F23404662440B959C46A04615000C9BFD
:103150000A9002E0202B0CD0110064460C402000A5
:103160003730092C00D807380133E8540A090F29F1
:10317000F0D80C930A9B44460B9D984685E10023AA
:1031800098460A9B45469C4600E00131AB005B191E
:103190005B001D180878303D0300303B092BF4D943
:1031A00063460A930023A8469A460D0001312E2853
:1031B00000D06EE780200A9AC00002430A923022B3
:1031C0005242944668780B0084446246092A00D82B
:1031D0002EE12A2800D13DE10D00013159E7DA4600
:1031E000A146B346B846C84503D801235B424344D1
:1031F000994643464A4651460020D847200021B010
:10320000F0BCBB46B246A946A046F0BD0B9B04CB22
:103210009046002A04DB68780B930D00013133E7F8
:103220000A9A283802430A924246524268789046E7
:103230000D000B93013127E7672800D1C7E147282C
:1032400000D114E2452800D116E20A9A072104921F
:1032500042460B9B0392073352468B43190002925E
:103260000CC93000009201930B9122003B0059469B
:10327000FFF7A6FA0400E0E680239B0028E76878C1
:10328000682800D11BE280230A9A01311A430A926E
:1032900023E768786C2800D109E280230A9A5B0052
:1032A0001A430A92013118E7462800D18AE10A9AA6
:1032B0000721049242460B9B0392073352468B43ED
:1032C000190002920CC93000009201930B91220068
:1032D0003B005946FFF7A6FC0400AEE6631C984687
:1032E00022003B0059462520B0474446A5E60B9BEB
:1032F00004330C93631C99460A9B9A0700D4E7E1B8
:103300000B9B2200187859463B00B0474346444483
:10331000012B00D8B8E22B00B84625005F464C468A
:10332000994622004346013439002020B047AC4280
:10333000F7D12C00BB464D4647460C9B0B937CE6D1
:10334000E92F0010BC1C0020EC7600107C770010E8
:103350003077001041900000DC4B28789B4600231A
:103360009946002800D058E600243CE70B9B02CB8E
:1033700012930B789C4618005346002B00D09CE01B
:10338000002812D002235B420133994689444A4601
:103390000B008946110001E08B4203D05A780133BB
:1033A000002AF9D149465B1A0C938023DB00994629
:1033B0000A9A13400B934B461A4204D00C9B534578
:1033C00001D953460C93022399460A9A13400A9353
:1033D0004B46134200D1B5E16346002B00D197E183
:1033E0000B9B002B00D14CE1D1460B1B9A462B00C6
:1033F000A1444D462200B9465F469B4609E04B4634
:103400003900541CB0475346185D002800D158E1DC
:1034100022009542F3D15B46BB464F46A9461D00AC
:103420004C460A9B002B00D072E1129B0B9304E6E2
:1034300055460A9AA9004919490001330D18187810
:10344000303D010030390929F4D9AA460A921D00FD
:10345000591C1EE60B9BA87804CB0235D143C91733
:103460000A4092460B93691C13E60A9B10211A002E
:103470008A43100011310843814680201A00C000A1
:1034800002401100034200D157E64B460822069342
:103490005346059208320392002204930C9B029239
:1034A000019318AB2200009359463B003000FFF710
:1034B00073F8434604000B93BFE5002800D174E77E
:1034C0005346013B60E7622800D1DFE1582800D174
:1034D000ECE10A9980230A00DB001A4010000A0080
:1034E000194200D1BDE111239A430C920C9A80231A
:1034F00011009B0019408C461A4200D046E18023FF
:1035000011005B00194089460B9904310A911A4257
:1035100000D08FE213005B0600D59EE113001B066E
:1035200000D426E30B9B00229B5ED9175A184A4011
:1035300092B2D90F0B91002B00D177E2100010AAA4
:10354000944642461F23129252466344AA4614945C
:103550004D460400B946B0461F00139201E0202DED
:103560000FD020000A2100F0D5FB01357E19303143
:10357000317020000A2100F0CDFB26000400092E46
:10358000EDD8129B46469846139B4F46A946554692
:103590009A46149C0C9B069343460593534604930A
:1035A0000A2303930B9B02934B46019318AB220013
:1035B000009359463B003000FEF7EEFF0A9B0400E3
:1035C0000B933AE520230A9A1A430A926FE6802366
:1035D0000A9A1B011A430A9237E6782800D0AFE115
:1035E0000A9880230200DB001A40110002001842F2
:1035F00000D1D0E20D239A43100003330A938023B5
:1036000002009B001A409446184200D0ACE180238F
:1036100002005B001A4091460B9A04320C92184249
:1036200000D04AE2430600D493E20B9B1B78089338
:10363000002B00D04BE110339843002900D146E124
:103640000023994643460593534604930A9B0690EC
:103650000393002302934B46019318AB220000937F
:1036600059463B003000FEF797FF040065E68023D3
:103670000A9A1B011A430A9220230A9A1A430A92B1
:10368000E3E50B1B9A460C9B99462B005D469B4637
:1036900022003B002900B04753460134185D002842
:1036A000F6D14B460C935B46AB461D00B9E6C023F2
:1036B0009B000A9AA8781A430A92E91C0DE5C023D8
:1036C000F7E75D46BB464F46ABE6C0460525001012
:1036D0004346012B00D8D1E0631E4344B9461D0088
:1036E0005F46A2468B4622004B460134390020201B
:1036F000B047AC42F7D15D46BB464F46A146544663
:103700000B9B4A46187859463B004444B04714E6A0
:103710000C9BA146984500D887E64444E41A2B0048
:10372000B84625005F464C46994622004346013480
:1037300039002020B047AC42F7D12C00BB464D46A3
:10374000474672E60C98804500D81CE243461A1999
:10375000131A99462B004D46B9465F469B460C917D
:1037600022004B46013439002020B047AC42F7D14B
:1037700043460C9901330C930B785D469C46BB463F
:103780004F466046002800D02AE64EE607220B9BF3
:1037900007339343013294469C4462460B920CCB10
:1037A000D90F0A91110019435FD0D91711911091C7
:1037B00051400E91119959400F910E980F99109AFE
:1037C000119B801A99410E900F9110AA00239446E4
:1037D00042469946129252461F336344B046AA4667
:1037E0004E461494B9460E9C0F9D1F00139201E0A3
:1037F000202E10D0200029000A22002300F0C8FA51
:10380000013630322B00BA550D0022000400002B87
:10381000EED1092AECD8129B4F46B146464698464F
:10382000139B0E940F9555469A46149C0C9B069339
:1038300043460593534604930A2303930A9B02933A
:103840004B46019318AB2200009359463B003000D1
:10385000FEF7A2FE0400FFF7F0FB0B9B1B781A009B
:1038600067E610239A430C9240E60023994600280D
:10387000DCD1002200230E920F93A6E70B9B2200BF
:10388000187859463B00B0474C4656E50A988023C5
:103890000200DB001A401100184200D15FE1020073
:1038A0000D239A430B3B10000A93A8E60A98802345
:1038B0000200DB001A4011000200184200D166E14C
:1038C0000D2320209A43033310430A9397E6612384
:1038D000820600D54123DBB20A3B0B93434610A975
:1038E0001F228C46129353466244AA46149415979D
:1038F0004C468046B14617000A9E089D139308E087
:103900003033DBB201343B55B5420ED3202C0CD002
:1039100005003100280000F0FDF9CBB20929EFD9EC
:103920000B9A94466344DBB2ECE7129B4046984600
:10393000139B4E465546A1469A46149C159F81E618
:103940006F2800D037E10A990C230A009A4380239C
:1039500010000A00DB001A4011000A9A1A4200D037
:1039600021E108230A934AE60B9AFA3BFF3B073210
:103970009A4301339C46944463460B931368526800
:103980000893134312921A1E05D100231032994650
:103990009043002941D16122810600D54122D2B253
:1039A0000A3A0C924246002310A9139252468C46C2
:1039B000994614921F330A9A6344AA46159417969F
:1039C0004C469046B946089E1F00129D16900AE08C
:1039D0003032D2B2002301343A55AB4211D0202C00
:1039E00011D006000D00424600233000290000F0EF
:1039F000CFF9D2B2092AEBD90C9B9C466244D2B2D1
:103A0000E8E7B045EBD9139B55469846149B4F46C3
:103A10009A46A1461698179E159C43460593534611
:103A200004930A9B06900393002308E7002800D024
:103A3000B0E584E50B9B1B68DA0F1100002B00D169
:103A400094E0DA179818504010AA914642461F2376
:103A5000129252464B44A046AA4614970400B1461F
:103A600065461F000B91139201E0202D0FD020001E
:103A70000A2100F04FF901357E19303131702000F4
:103A80000A2100F047F926000400092EEDD8129B08
:103A9000444698460B9BAC461900139B55464E4630
:103AA0009A46149F0C9B02910693434605935346F6
:103AB00004930A230393634677E50B9B1B680893E3
:103AC000002B03D110339843002937D1612382069C
:103AD00000D54123DBB20A3B0B93434610A989462C
:103AE0001F22129353464A44AA46B146149415978E
:103AF000644680461700089D0A9E139308E0303301
:103B0000DBB201343B55B5420ED3202C0CD005005E
:103B10003100280000F0FEF8CBB20929EFD90B9A4A
:103B200094466344DBB2ECE7129B40469846139BF5
:103B300055464E469A46A446159F149C4346059307
:103B4000534604930A9B0690039300230293634613
:103B500082E5030613D50B9B1B88089368E50200DA
:103B60000C239A430A3B10000A9348E5002899D198
:103B70006AE70B9B1B68D9175A184A40D9E40B9B7C
:103B80001B68089354E5030001330C93F9E52023E7
:103B90000A9A1A430A920C230A9A00219A43043380
:103BA00010000A932BE50A9B0C9308230A930D231C
:103BB0000C98984323E510230A9A9A430C9269289B
:103BC0000AD10A9980230A00DB001A4010000A007B
:103BD000194200D18AE486E40A991C230A009A4318
:103BE000802310000A00DB001A4011000A9A1A42D2
:103BF00002D10A230A9302E50A230A93D7E7C046B3
:103C000000B585B003910121029000930348130091
:103C10004A4202A9FFF7E8F905B000BDB12700103C
:103C200010B5094A0300146884B0002C08D00122A2
:103C300000910648524203A9A047012004B010BDDC
:103C400000F0BEFF0020F9E7BC1C0020A1270010F7
:103C500001480421014B1847300F0020813C00101F
:103C6000142310B50100188804331B88984710BD31
:103C7000162310B50100188802331B88984710BD21
:103C8000F8B54746CE4680B50F1E19D01423994685
:103C9000043304000025012698464B461888434605
:103CA00021681B88984701C4431E98410135404252
:103CB0000640AF42F1D13000C0BCB946B046F8BDB5
:103CC0000126F8E7124A936F9B0815D29066D166D9
:103CD000002905D0FFE7FFE7FFE7516F106F70473E
:103CE00004B580210906C2175140002800D0C843FE
:103CF00003F036FC002104BDF0B5146E556E576F0D
:103D0000166FFFF7E3FF1466556657671667F0BD39
:103D1000000000D0114A936F9B0813D210665166C1
:103D2000002905D0FFE7FFE7FFE7516F106F7047ED
:103D300004B5002801D00020C04303F011FC00218D
:103D400004BDC046F0B5146E556E576F166FFFF781
:103D5000E5FF1466556657671667F0BD000000D092
:103D600094464A4A926F9208624601D228E0C046C1
:103D7000F0B5464E346E756E776F366F00F020F8F2
:103D80009446424A14665566576716676246F0BD08
:103D900094463E4A926F9208624601D254E0C04671
:103DA000F0B53A4E346E756E776F366F00F04CF8A2
:103DB0009446364A14665566576716676246F0BDE4
:103DC000002B24DB11D000293EDA00B5C943404264
:103DD00000D1013100F038F8C943404200D101312F
:103DE000DB43524200D1013300BD002AEBD1002851
:103DF00001D1002905D00020C90FC90701D1C04356
:103E0000410800B503F094FB0022002300BD00B57B
:103E100000290ADBDB43524200D1013300F014F8E1
:103E2000C943404200D1013100BDC943404200D1E5
:103E30000131DB43524200D1013300F005F8DB438E
:103E4000524200D1013300BD002923D1002B18D1EB
:103E5000002A0CD0BC460D4F38667A66002100233C
:103E6000FFE7FFE7FFE77A6F386F67467047002884
:103E700001D00748010000B503F05AFB00220023DF
:103E800000BD02000B00002000217047000000D0A0
:103E9000FFFFFFFF002B00D0BFE0130C28D1002A4A
:103EA000E7D080B4114F39667A66FFE7FFE730B498
:103EB000040C7B6F396F1B0423433B667A66FFE774
:103EC000FFE7FFE7C04684B27B6F3D6F1B042343CF
:103ED0003B667A66FFE7FFE7C04600232C042D0C03
:103EE0007A6F386F00196941B0BC7047000000D08C
:103EF000F0B594460025140E01D112020835140FB6
:103F000001D112010435940F01D192000235D40F72
:103F100001D152000135D40B0134254F7C66254C6C
:103F20003C660E0C93B2FFE7FFE7FFE73C6F66438A
:103F3000360C7703BE467343DF0B5B04C01AB941EE
:103F4000130C7343DB18C91ACE086643360CB6440B
:103F500093B273431F0F1B01C01AB941130C734373
:103F60001F0B1B05C01AB941860D8F023E436643E5
:103F7000360C092D24DB520A7243801A7703460A55
:103F80006643360C16235B1BDE40DF40BF196446D8
:103F90006643821B7046043506330100D940A840B1
:103FA000C01900D30131A24206D20023F0BD0000A7
:103FB000000000D0FFFFFFFF121B0130F3D3F1E739
:103FC00009277F1BFE406446A2B27243801A00D2CA
:103FD0000139220C7243130C1204821A99410B000E
:103FE0007046043513370100F940A840801900D30A
:103FF0000131002B02D1A2420AD2F0BD013000D320
:104000000131121BFAD2013BF8D1A24200D2F0BD1D
:10401000013000D30131121BF7E7F0B51C0C00D0C2
:1040200080E00CB400251C0A04D11B02160E334399
:10403000120208351C0B04D11B01160F3343120169
:1040400004359C0B04D19B00960F3343920002353C
:10405000DC0B02D192185B4101351C0097186441BA
:104060000134464F7C66464C3C660E0CFFE7FFE78A
:10407000FFE7C0463C6F6643360C7703BE4697B2F7
:104080007743C01B00D20139C01B00D201399FB257
:104090007743C91BC91B170C77437E04FF0B801B9A
:1040A000B941CE086643360C0C2D33DBB644120BF7
:1040B0001F053A431B0B97B27743C01B00D201394F
:1040C0009FB27743C91B170C77433E043F0C801BFC
:1040D000B941860D8F023E43664329277F1BFE4070
:1040E0000C3D7746AF40BF1930BCA2B2ABB27243B1
:1040F0007343801A9941220C7243130C1204801AE4
:10410000994102000B000137001BA941F9D2781E2A
:104110000021F0BD0C277F1BFE4077467F0BAF4090
:10412000FF19E0E700245D1C07D0144F7D66396657
:10413000FFE7FFE7FFE7FFE73C6F95B29EB26543FD
:104140006643401BB141150C1E0C654366433604A3
:104150002F0C3E432D04401BB141994204D2020072
:104160000B0020000021F0BD01D19042F7D3801A4E
:10417000994101349942F2D3F6E70000000000D0E3
:10418000FFFFFFFF48404140484018B41B4B5B68AD
:10419000FC46019308BD04DF1744001018B4174B08
:1041A0001B68FC46019308BD00DF214400109446C3
:1041B000134A926F920809D2624618B40F4BDB681B
:1041C000FC46019308BD0CDFD94600100C4AF0B53F
:1041D000146E556E576F166F6246FFF7EEFF084A72
:1041E0001466556657671667F0BD18B4034B9B6895
:1041F000FC46019308BD08DF7D450010E810002053
:10420000000000D0FFB550404240504059404B4064
:10421000594000E0FFB5154F4C00640D03D0BC427F
:1042200004D10C0314D80020090D09055C00640DAD
:1042300003D0BC4204D11C030AD800221B0D1B056D
:1042400001264B4009D44B4003D58B4200D182421A
:10425000FFBD9942FCD19042FFBD0B43DB180343E5
:104260001343F5D0C9434918FFBD0000FF07000004
:1042700000B5FFF7CFFF804100BDC04600B5FFF796
:10428000C1FF01D9002000BD012000BD00B5FFF72E
:10429000B9FF804100BD012040054A00121804D832
:1042A0005A00121801D800207047012070470020E2
:1042B000704700000021002805D17047C117484011
:1042C000401AFAD0C90713B5064B1B6898470CBCB7
:1042D000441CA2401005120B0349091B0905194390
:1042E000114310BD001D00201F04000010B54C003C
:1042F000620D8023D218DB00D21A5B057E2A10DD06
:104300009E3A13DACC170903490819435242D140A7
:10431000640001341532202A05DAD0400843604396
:1043200010BD002010BD0846604310BDC80FC01866
:10433000013810BD18B4044B5B6AFC46019308BDFC
:1043400024DF894800100000E8100020132370B516
:104350001D78012D15D010DD1D48FFF789FC1D4C7F
:1043600001008022200000F05DFB022D2DD01A48B4
:10437000FFF776FC194B186070BD194B154CA36400
:10438000F5E7174B134C23606360A360E360236180
:104390006361A361E36123626362A362E3622363F7
:1043A0006363A363E36323646364A364E3642365D7
:1043B0006365A365E36523666366A366E3662367B7
:1043C0006367A367E367A364D1E7054BA364CEE704
:1043D00053440000E81000204C330000001D002072
:1043E000E543001007B5604601880A0A0230DF2A5B
:1043F000FAD1C9B2820804D302884088000410436D
:1044000000E00068014A5050039007BDE81000200A
:104410000FB403BC0CBCF0B50124E407634000E01A
:10442000F0B50C0DCF0F661E3605891B640503D34E
:10443000C943404200D30131640D03D0661CF60A23
:1044400007D0E41B00207F00791C89078912803C7B
:1044500024031D0DDF0F6E1E36059B1B6D0503D358
:10446000DB43524200D301336D0D03D06E1CF60ABC
:1044700007D0ED1B00227F007B1C9B079B12803D19
:104480002D032F1B661B58D4A446202E46DA203756
:104490001400BC401D00BD40F24033412A43801847
:1044A0005941CB0F05D0C943C0430022644250415B
:1044B000514162464D0D28D10D0D07D100281FD066
:1044C000241940414941013A0D0DF9D0640006D349
:1044D000013000D30131002C01D140084000013AE5
:1044E0000BD4941CE40A04D112051144DB071944CF
:1044F000F0BDD907204B194300E0D9070020F0BDDB
:104500000029DDD1002CDBD1F0BD0132C607400807
:10451000CD0728434908002EE1D0D9E73C2E29DAFF
:10452000203E40371400BC4000D00124F240144328
:104530001A00BB401C43D317ACE7AC46202F08DA67
:1045400020360400B4400D00B540F84039412843FE
:10455000A5E73C2F0CDA203F40360400B44000D0E1
:104560000124F84004430800B1400C43C117EAE7B6
:1045700010001900002494E70000F07FF0B50C0D46
:10458000661E3605891BE60A6405640D02D0651CAB
:10459000ED0A04D0002001210905803C2403A44633
:1045A0001C0D671E3F05DB1BE70A6405640D02D086
:1045B000651CED0A04D0002201231B05803C240366
:1045C0007740644497B484B296B27443070C7E4338
:1045D000150C6F4380B26843361802D301200004E3
:1045E0003F183004350C00197D41844688B29AB2D8
:1045F00050430C0C62431F0C7C438EB27E439219D5
:1046000002D301263604A4191604170C3618674184
:1046100001BC81B29AB25143040C62431B0C5C434F
:1046200080B25843121802D3012000042418100449
:10463000130C401863412D185E410020474106BC11
:1046400088B293B258430C0C6343120C544389B2A2
:1046500051435B1802D301210904641819041A0C90
:10466000091862416D1856410020474118BCF902F3
:10467000720D1143F0026A0D1043ED020A0D03D1D1
:104680006D1940414941013B124E9B1B7600B342DC
:104690000ED26D0007D301300026714166463543C6
:1046A00001D1400840001B05C918E4072144F0BDB2
:1046B0000BDA013306D1013004D101314F0D01D0A5
:1046C0004908F2E7E1070020F0BD0136310500207E
:1046D000EBE70000FF030000F0B51C0D671E3F056F
:1046E000DB1BE70A6405640D02D0661CF60A04D0E1
:1046F000002201231B05803C2403D0252D06002623
:10470000F6432E661E096E66CE0FF619B4464900B2
:104710004F0D02D07E1CF60A03D000200021403F3E
:104720003F033E1BB600B444013F7F05C91B490847
:104730002E6F013676089C02950D25437543ED13C7
:104740007543AD1301356D10F603761B0CB4CC0226
:10475000450D2C43A2B2B3B25A43270C7B43350C10
:104760006F43A4B26C431B1902D3012424043F19E4
:104770001C041D0CA4187D4124196D41009A91B2AE
:10478000ACB26143170C7C432B0C5F4392B25A438B
:10479000A41802D301221204BF182204230C5218B9
:1047A0007B41019C6C431B19520ED9010A43440101
:1047B000A01A81B2B2B2514303145A43360C734368
:1047C00087B27743D617D21900277E4136049B194A
:1047D0001704160C7F185E417316ED18F3010026BE
:1047E00080337541A90F06D16400690AE8055B0AA8
:1047F000184309D22FE00422944480337541A90A5A
:10480000A8059B0A184326D3404149412404009A35
:10481000019B0D005543641B4343E41A95B286B2D5
:104820007543170C7E43030C5F4392B25A43B6188C
:1048300002D301221204BF183204330C52197B41F7
:1048400052429C41002C02D40022013051414008C8
:10485000CA071043490802B06246D7079210084BB6
:10486000D218084B9A4203D212058918C919F0BD13
:104870000020002A01DC3900F0BD01331905F5E7FD
:10488000FD030000FE070000002200B5203200F00A
:1048900004F8080000BD000000220B150AD410B572
:1048A000944600F031F81414013400DA0021CB17DB
:1048B000144C20470020002170476244343A0CD445
:1048C0000C2A07DA04009140904052422032D44032
:1048D000214310BDD843D94310BD203207D40C4624
:1048E0009440524220321141D040204310BD080074
:1048F000C917203203D452422032104110BD180093
:10490000190010BDBB4800100A0DCC0F531E1B052B
:10491000C91A520503D3C943404200D30131520D95
:1049200003D0531CDB0A07D0121B00206400611C5B
:1049300089078912803A1203014BD21A704700008E
:10494000FF03000051434343C9188C46110C83B246
:104950004B4310B4040C614392B280B250436243A3
:104960001C041B0C001910BC59411304120CC01874
:104970005141614470470000132310B512481C7860
:10498000FFF776F90100012C0AD003DD80220F48E1
:1049900000F048F80E48FFF763F90E4B186010BDA1
:1049A0000A4C5422200000F03DF80B4B6365A365D0
:1049B000E36523666366A366E36623676367A367AD
:1049C000E3672362E361E5E753460000E811002056
:1049D0004C330000001D0020DD49001007B5604683
:1049E00001880A0A0230DF2AFAD1C9B2820804D348
:1049F000028840880004104300E00068014A5050DB
:104A0000039007BDE811002001480421014B18471D
:104A1000400F0020813C0010014B1B68184700002C
:104A2000400F0020014B5B6818470000400F00203A
:104A3000F0B5C64600B5437D07000D001600002BFB
:104A400038D0002A2EDD00216A1E90466A5C037D64
:104A50004C1C00200A2A0CD0A64216D043461B5DEF
:104A600021000D3B5A4253416A5CDBB24C1C0A2ABE
:104A7000F2D1002BF0D1814217DC022110483B68B3
:104A80009847A64207D02000E8E7864203DD311AA6
:104A90003B6828189847AD19013D2B780D3B5A42C9
:104AA00053413B7580BCB846F0BD091A3B682818D5
:104AB0009847E2E70368110028009847F2E7C046EC
:104AC0003C790010F0B5C6460B6806000C0000B536
:104AD000802B06D05A1C2260E418267180BCB84690
:104AE000F0BD0F4B1D68002D16D00B1D98460D4FC5
:104AF00002E02D69002D0FD02B68002BF9D03B6808
:104B0000002B01D0AB42F4D1280041462268FFF7C8
:104B10008FFF2D69002DEFD101220023DBE7C04676
:104B2000B0180020B8180020F0B5CE46474680B532
:104B300083B06B460600DD1D2870FCF771FF002373
:104B40001A4A12184B41802109068B4202D30122D6
:104B5000174B524217490800884602F021FD164BB8
:104B600081461C68002C14D0144F02E02469002CEC
:104B70000FD02368002BF9D03B68002B01D0A34253
:104B8000F4D1200001222900FFF752FF2469002CF4
:104B9000EFD14B46002B05D1300003B0C0BCB94665
:104BA000B046F0BD404602F0BBFCF5E740420F00C6
:104BB000FFFFFF7F980F0020B0180020B8180020DA
:104BC000F0B5DE4657464E464546E0B585B007008F
:104BD00002F064FC0600FCF723FF00232B4A1218A6
:104BE0004B41802109068B4202D30122284B5242BD
:104BF000284908008B4602F0D3FC274B01901C6823
:104C00009A46002C3BD0254B984602ABDD1D0A236B
:104C1000994602E02469002C17D02368002BF9D0B4
:104C200043461B68002B01D0A342F3D12000320081
:104C30003900FFF7FDFE4B462000012229002B70B2
:104C4000FFF7F6FE2469002CE7D1019B002B18D159
:104C500053461C68002C06D06368002B0BD0984785
:104C60002469002CF8D1300005B0F0BCBB46B24638
:104C7000A946A046F0BD2469002CEDD1F3E7002839
:104C8000F1D0584602F04CFCE2E7C04640420F002B
:104C9000FFFFFF7F980F0020B0180020B8180020F9
:104CA0000A4A1368002B05D10CE01A001B69103268
:104CB000002B07D09842F8D1002902D10369136074
:104CC000016170470029FCD01060FAE7B01800209D
:104CD000F0B5CE46474680B5A3B004000D00FCF702
:104CE0009FFE0023294A12184B41802109068B425E
:104CF00002D30122264B5242264F380002F050FCCC
:104D000000230600019322002B00234801A9FEF78F
:104D100077FF019B8046002B14D1204B1C68002C90
:104D200006D06368002B0BD098472469002CF8D17B
:104D3000002E25D1404623B0C0BCB946B046F0BDD8
:104D40002469ECE7154B1D689946002D1CD0144CC6
:104D500002E02D69002D0FD02B68002BF9D02368BD
:104D6000002B01D0AB42F4D12800019A02A9FFF731
:104D70005FFE2D69002DEFD14B4601951C68CEE7F3
:104D8000380002F0CDFBD5E70195D1E740420F0096
:104D9000FFFFFF7F980F0020C54A0010B0180020C9
:104DA000B81800200FB400B583B004A901C901915F
:104DB000FFF78EFF03B008BC04B0184710B500F031
:104DC000D9F910BD7047C0460022014B1A707047D8
:104DD000361D00204B790020FF2B0BD18B79002B47
:104DE00008D1CB79012B05D1082A03D9024B8A7847
:104DF00009301A707047C046361D002001207047E8
:104E000070B5012901D0012070BD13495379107983
:104E100009781B02034300209942F5D15378012BF6
:104E200008D0022BF0D1002064220021FDF76EFA99
:104E30000120E9E79478D278050012021443D205E4
:104E400002D5620A93401D000448FEF709FF7F2146
:104E50000300214028009847361D002055420000DD
:104E60000123037000487047407900104B780A789E
:104E70001B0213438A7810B512041A43CB781B0621
:104E800013439622D200934200D010BD0348FEF790
:104E9000E7FE0021030008009847C0465542000085
:104EA000024B1860024B19607047C0463C18002046
:104EB0004018002010B5024B1878FBF7E7FE10BD34
:104EC000371D0020114B70B51A68002A1AD0EFF375
:104ED000108172B610680028FCD0BFF35F8F0020ED
:104EE0000B4A596010701B68BFF35F8F186081F325
:104EF000108800240025074B1878FBF7C7FE29000F
:104F0000200070BDFA240025A400F4E7E01C002076
:104F1000381D0020371D002070B5040000200E0051
:104F200001F012FB002836D0002001F025FB0028FC
:104F300031D0FCF775FD0023184A12184B4180212F
:104F400009068B4216D2164D280002F029FB0028D4
:104F500021D0002001F0F8FA00280FD10120002113
:104F6000404200F0C1FC03246442280002F0D8FA59
:104F7000200070BD01220B4B5242E4E7002001F0FB
:104F8000FBFA0028EAD021003200002001F000FBEB
:104F9000041EEAD1E7E703246442E9E740420F0038
:104FA000081D0020FFFFFF7FF8B5DE46574680B59D
:104FB00005000C00FCF734FD0023374A12184B4162
:104FC000802109068B4202D30122344B52423449DC
:104FD00008008A4602F0E4FA002803D1C0BCBB46B0
:104FE000B246F8BD002001F0AFFA00284AD00026F2
:104FF000002C43DD2B4B9B4614E0A919002001F047
:105000003BFB070001200021404200F06DFC002026
:1050100001F0F6FAFCF704FD224BF619186059600E
:10502000B4422BDD002001F041FBA71B0200B84277
:1050300000DD3A00002AE0D101200021404200F0CA
:1050400053FC002001F0DCFA002001F07DFA00287A
:1050500014D0002001F02AFB0028E1D1FCF7E0FC8D
:105060005B460F001A685B68002184460E481218E0
:105070004B419F4202D8D3D19445D1D9504602F03A
:105080004FFAABE700200021064B186059605046EC
:1050900002F046FAA2E7C04640420F00FFFFFF7F42
:1050A000081D0020E010002020A1070010B5244CAE
:1050B00084B00021200002F05BFA00281CD1214BB3
:1050C0001A68002A16D0EFF3108172B61068002813
:1050D000FCD0BFF35F8F01241B48596002781B6826
:1050E000D2B20470BFF35F8F0020186081F3108884
:1050F000002A0AD004B010BD01200021404200F077
:10510000F3FB200002F00CFAF4E7FCF763FA04006A
:10511000FCF786FCFA220023920012184B418021F2
:1051200009068B4202D30122084B5242012102910F
:1051300000210191064920000091FCF74FFAD9E7C0
:10514000081D0020E01C0020381D0020FFFFFF7F0D
:10515000C54E0010054B10B51868002804D0044B4C
:105160000022196801F060F810BDC0463C1800200C
:1051700040180020D02310B51B0684B01C68FCF733
:1051800029FAFCF7E9FAA04202D0002004B010BDD1
:10519000274B1B7801F06CFC2648FCF723F8012014
:1051A000FCF702F8FF23244C244920701840FBF739
:1051B00093FD20780121FBF757FD0520FBF76EFDDD
:1051C000002827D1FCF706FA0400FCF729FCFA2294
:1051D0000023920012184B41802109068B4202D312
:1051E0000122174B524201210291002101911549E0
:1051F00020000091FCF7F2F9082204000021124877
:10520000FFF70AFC002CC0DB10480121FFF748FD26
:105210000120BBE700220E490520FBF787FDFBF7C5
:1052200005FD094B01001800FCF706F8ECE7C04645
:105230004C7B0010081D0020371D0020AD500010D1
:10524000FFFFFF7FC54E0010E01C0020500F002024
:10525000B54E001000487047107A001000487047A3
:10526000BC79001010B5040017480378002B20D03B
:10527000002C06D1154B16484380063BFF3B0380AC
:1052800010BD052C19D8134BA400E0581249012376
:10529000013804E001330A800231142B0FD0C25CC4
:1052A000002AF7D1C022DBB25B009200084813430A
:1052B000E5E7112100F01AF8DAE70020E0E7CA2359
:1052C00003489B00DBE7C046201D002009040000C6
:1052D00088180020A47900108A18002010B5024810
:1052E00000F0D8F810BDC046F81C002030B54B1EA9
:1052F000012900D1A7E0664A11780D092C0030344D
:105300009F2900D9A2E00470012B00D1BEE00F213B
:10531000147821400C003034092900D998E04470F9
:10532000022B00D1B2E054782509290030319F2C9E
:1053300000D990E08170032B00D1A7E00F2121401C
:105340000C003034092900D987E0C470042B00D147
:105350009CE094782509290030319F2C00D97FE00A
:105360000171052B00D191E00F2121400C00303458
:10537000092900D976E04471062B00D186E0D47863
:105380002509290030319F2C00D96EE08171072B4F
:1053900000D17BE00F2121400C003034092966D870
:1053A000C471082B00D171E014792509290030312E
:1053B0009F2C5FD80172092B68D00F2121400C006F
:1053C0003034092958D844720A2B5FD05479250902
:1053D000290030319F2C52D881720B2B56D00F21CF
:1053E00021400C00303409294BD8C4720C2B4DD00D
:1053F00094792509290030319F2C00D90731017398
:105400000D2B43D00F2121400C003034092901D944
:1054100037310C0044730E2B38D0D1790C0922009F
:1054200030329F2900D9073282730F2B2ED00F22E2
:105430000A4011003731092A01D830321100C173F6
:10544000102B23D010300023037030BD07345AE7EF
:1054500037310C0063E707316CE737310C0074E734
:1054600007317DE737310C0085E707318EE73731AB
:105470000C0095E707319DE737310C00A3E70731B2
:10548000AAE737310C00C4720C2BB1D1C018DAE78F
:10549000F81C002030B5002589B004000922002145
:1054A00001A80095FFF7B8FA0922002105A8049584
:1054B000FFF7B2FA4B236A466846137004A90D221F
:1054C00002F01EF81521082220006944FFF7AAFA0D
:1054D00009B030BD10B501210520FBF7C5FB10BD9B
:1054E00010B500220021024800F058F910BDC04656
:1054F000DC1800208022024B5202DA647047C0465A
:1055000000201150F0B5C64600B5060000F020F9A5
:105510000C231B4DFF22AB6705201A49FBF706FC45
:1055200040239846184C402200212000FFF774FACF
:1055300043460127238321210023144A6770A26078
:10554000136063545F316184414621870539635498
:105550000F4A10496360E260A1620B606362E2621D
:1055600001F0F6FF80239B052F64EB6490230A4A29
:105570003000EA50FFF7BEFF80BCB846F0BDC04621
:10558000000011509D040020BC1800208400105021
:10559000000110508000105010D001000B785B0605
:1055A00002D14B78052B00D070478A78014B1A60E6
:1055B000FAE7C04600001150F0B5C64600B5CC78F9
:1055C00088780A794B797F21A40701401B02C5091D
:1055D00013434F00A20F1400324E7A195201B21831
:1055E000907001206840507000205B055B0DD0700A
:1055F0001383D4768046CA00012D33D02A488446CE
:10560000880162448446B44460468260404610602B
:10561000002933D0254AC900904662464144516072
:105620003F223F339343022C00D15B0020487A197C
:1056300001685201B218D1601E4ACB180360514074
:105640005A40802388465B019A4228D84346A406E4
:105650001C4380237F197F01F61972681B062343C0
:10566000136011E014488446880162448446B444BF
:105670006046826240461060002909D100236D0116
:1056800075196B600D4BEB60012080BCB846F0BD16
:10569000084AC9009046624641445162C0E7FCF79F
:1056A0002BFFD3E7BC1800208400105004001050DA
:1056B000C41C002000001050800010500001105049
:1056C00010B501F045FF10BD10B57F200C00204043
:1056D0004000E409110000191A00034B4001C018F2
:1056E00000F05CF8012010BDBC1800207F231800DA
:1056F00010B50840CA090B4203D107497D3B9B1AEC
:105700008B66400080188022044B40010021C018A5
:10571000120101F05DFF10BD00201150BC180020E7
:105720007F22130010B50B400A4200D110BDC909F9
:105730005B005B1804485B01C0180023002203498A
:10574000C37001F045FFF1E7BC180020FFF7FFFF31
:1057500080220D4B520410B51A600C4B0C491A6094
:1057600010008B689843FBD10A4C9C22002120003A
:10577000FFF752F98022002152010748FFF74CF948
:105780000923636710BDC04600E0004000F0004000
:1057900000C000400000115000001050002310B560
:1057A000C3820133828283760161040001F008FF25
:1057B000002804D080219023074A8902D15020007C
:1057C00001F0BEFE002802D00123237710BD200087
:1057D00001F0EEFEFAE7C04600201150024B587867
:1057E000431E9841C0B2704710160020024B187833
:1057F0004007C00F7047C04610160020034B1878B2
:10580000FF38431E9841C0B27047C0468C0F00203D
:10581000F0B5C64600B52A4E05003378FF2B01D0FF
:1058200001203FE0532200212648FFF7F5F8264CDF
:105830002000FBF7D7FC254B1C60254C2000143CB6
:10584000FBF7ECFC200001F0E5FB224B224F1C6033
:10585000224B9846002B1DD03800FFF701FB204B50
:1058600018603B7842460024002A15D01D4A904615
:1058700042469C4219D3904701343B78E4B2A3429C
:10588000F6D228003570FFF73DFE2800FFF722FE14
:10589000012007E03B78E5E700F014FF3B78002BA0
:1058A000EFD0002080BCB846F0BD0D4A63001268FE
:1058B0001B19DB00D318002BF3D01A68DBE7C046B6
:1058C0008C0F002010160020C81500206416002040
:1058D000840F002068160020311D0020614E00104A
:1058E000E8120020C5660010F0B5DE4657464E4669
:1058F0004546E0B591B001F0C1F8002800D115E1AE
:10590000CA4BCB4E0193CB4B0DAC0293CA4B9B467B
:1059100035686A69EFF3108172B61368002BFCD00A
:10592000BFF35F8FA9612800210001F0B1F96A6916
:10593000AB69BFF35F8F0021116083F310880028EB
:1059400000D1F3E06378082BE2D8019A9B00D3588A
:105950009F466368002BDBD0A0689847D8E77F227A
:105960002179B44D0A405300C809EB181B181800E0
:1059700001273030C578BD43C570C5780337BD43B6
:10598000C570002A00D1EEE0AC4ADB7C002A06D0CC
:10599000AB4A1278934200D264E19B1ADBB2002B2F
:1059A00000D0C3E0A74DA36862792078A847AFE78D
:1059B0000122A04D01212B78042013432B703323A7
:1059C000EA5C8A43EA54EA5C8243EA540133EA5CC3
:1059D0008A43EA54EA5C8243EA54237800209A46D8
:1059E00000F024FD602223791A40602A0DD0402A5D
:1059F00000D1BEE0DB06DB0E012B00D13DE1022B26
:105A000000D1D3E0002B00D1C2E020780021FFF7C5
:105A10006DFE80212078FFF769FE79E7029B1B78F5
:105A2000DB0700D474E7884B002B00D170E700E05F
:105A300000BF6DE77F4D2B78DB0700D468E7834B11
:105A4000002B00D164E728780007C00F00E000BFFA
:105A50005EE723787A4F794A984600253B78002AFA
:105A600049D0B1463E005F463A009D4265D340466C
:105A7000904701353378EDB2AB42F5D24E46BB4686
:105A80006C4D532200212800FEF7C6FF1022FF2193
:105A9000E81CFEF7C1FF28002022FF211330FEF78B
:105AA000BBFF2EE02378664F644A984600253B787A
:105AB000002A2FD0B1463E005F463A00AB4247D89D
:105AC0004046904701353378EDB2AB42F5D24E46B1
:105AD000BB46584D532200212800FEF79DFF10229F
