:020000041000EA
:1000000000B5324B212058609868022188439860DF
:10001000D860186158612E4B002199600221596106
:100020000121F02299502B49196001219960352056
:1000300000F044F80222904214D00621196600F024
:1000400034F8196E01211966002018661A6600F04E
:100050002CF8196E196E196E052000F02FF8012189
:100060000842F9D1002199601B49196000215960AB
:100070001A491B48016001219960EB211966A021F2
:10008000196600F012F800219960164914480160C1
:100090000121996001BC002800D000471248134993
:1000A000086003C880F30888084703B5996A0420EC
:1000B0000142FBD001200142F8D103BD02B5186610
:1000C0001866FFF7F2FF186E186E02BD00000240BE
:1000D000000000180000070000035F00212200005C
:1000E000F4000018222000A00001001008ED00E03C
:1000F00000000000000000000000000074B24E7A12
:1001000000200420F7010010C3010010C5010010F9
:10011000C1010010C1010010C1010010C101001097
:10012000C1010010C1010010C1010010C701001081
:10013000C1010010C1010010C9010010CB01001065
:10014000CD010010CD010010CD010010CD01001037
:10015000CD010010CD010010CD010010CD01001027
:10016000CD010010CD010010CD010010CD01001017
:10017000CD010010CD010010CD010010CD01001007
:10018000CD010010CD010010CD010010CD010010F7
:10019000CD010010CD010010CD010010CD010010E7
:1001A000CD010010CD010010CD010010CD010010D7
:1001B000CD010010CD010010CD010010CD010010C7
:1001C00000BE00BE00BE00BE00BE00BEEFF3058054
:1001D000103800BEF2EB887180980010A0980010D3
:1001E0003402001090A31AE700201F49086006C8D7
:1001F00081F3088810471D48006800282FD10DA4FE
:100200000ECC002902D000F012F8F9E71849194A7B
:10021000002000E001C19142FCD1174988471749ED
:1002200088471749884700BEFDE701C901C29A42C5
:10023000FBD37047A0980010C0000020C00F002022
:10024000A0A700100000042000000420A0A70010B8
:10025000001004200010042000000000704709482E
:1002600005F0C0FB0047000008ED00E0000000D0F2
:10027000C00F0020E8460020554100101104001076
:10028000454200105756000006005250ABB3605371
:100290004096001006005250861C03025096001033
:1002A000060052505422A29D5C9600100500525048
:1002B000DE65F468A0A70010F8B5C04606480749F7
:1002C000091A8B10C90FC91810B5491003D0044B77
:1002D000002B00D0984710BDC00F0020C00F002099
:1002E00000000000054B10B5002B03D00449054861
:1002F00000E000BFFFF7E2FF10BDC04600000000B5
:10030000101D002048910010F8B50F4C0F4E104FF3
:10031000104D09E0022B10D000F076FC280006F00A
:100320005DFB642001F0F0F82378012BF2D100F09E
:1003300007FC300006F052FBF3E700F033FC380016
:1003400006F04CFBEDE7C046BC1D002048910010B4
:10035000509100105C91001010B50D4B5B78002B94
:1003600009D0012B0DD0022B08D0032B0CD0642018
:1003700001F0CAF810BD00F0CBFBF8E700F0D4FBA9
:10038000F5E700F0CBFBF2E700F0D4FBEFE7C04667
:10039000BC1D0020F0B5C646134B00B59846134C63
:1003A000134D144F144E15E022000221280000F0D6
:1003B000B9F8380006F012FB2978300006F000FC8E
:1003C0006978300006F0FCFB200000F067F864203C
:1003D00001F09AF8200000F01BFB0028E4D1404611
:1003E00006F0FCFAF6E7C04684910010A00E00204B
:1003F000BC1D00206491001074910010034B0A0092
:1004000010B50100180006F0DBFBFEE79891001024
:1004100030B583B006F0E0FB194C0025200000F059
:10042000A5F900F021FB00F01BFC200000F0B0FA61
:10043000192002F02DFAD02380221B0692045A6262
:100440000124802200230F4952000F480195009497
:1004500000F05CFD802200230C4952000C480195FD
:10046000009400F053FD802200230A4952000A48FC
:100470000195009400F04AFD00F076FEFEE7C046CC
:10048000A00E0020C091001095030010D491001020
:1004900009030010E091001059030010F0B5C646A2
:1004A00000B582B06B460126991CE22332000B7026
:1004B0008378D0279A401A4B3F060400BA6118008F
:1004C0000122984608F010FE3200A37801AD9A4050
:1004D00007237A612B7023021B0E9E402900012204
:1004E0004046BE6108F000FE6A460123FF214046F7
:1004F000033208F0C9FD6B4640227E61DB7829009B
:1005000013436A46D37027226B702A704046BE613F
:10051000253A08F0E9FD7E6102B080BCB846F0BD26
:1005200000C003400723F0B5D6464F4646469A46DC
:10053000C0B582B014006B46524601261A713200D3
:10054000A378D0279A403F06BA61804601228946A7
:100550003F4801A908F0C8FD6B46DD1C2A000123B5
:10056000FF213B4808F090FD3200A3789A407A6161
:100570003848297806F024FB2B7800205B0605D448
:1005800002B0E0BCBA46B146A846F0BD17236A46A1
:10059000137132002870A37801A99A402C48BA61DF
:1005A000012208F0A1FD01232A00FF21284808F0BC
:1005B0006BFD3200A3789A407A61172226492B7886
:1005C000264806F0FDFA6B46991C612332000B7039
:1005D000A3781F489A40BA61012208F085FD4B4676
:1005E0004246FF211A4808F04FFD41461C4806F0DC
:1005F000E7FA3200A37851469A4013007A616A46BE
:10060000134811710122BB6101A908F06DFD01239E
:100610002A00FF210E4808F037FD3200A378694612
:100620009A407A6140222B780948134327220A71A5
:100630003200DBB24B712B70A37801A99A40BA61EA
:10064000022208F051FDA37801209E407E6197E7C9
:1006500000C00340F0910010009200100C920010B6
:1006600024920010F0B5D6464F464646C0B582B03B
:100670006B4601246A469F1C0023D61CD3702200BF
:1006800001AD3B701D332B70837880469A40130078
:10069000D02212069361344B91469A4629000122DA
:1006A000180008F021FD3A000123FF21504608F010
:1006B000EBFC434622009B7829009A4013004A46EF
:1006C000536104223B78504613433B706B704346A2
:1006D00039322A7022009B789A4013004A4693616F
:1006E000022208F001FD434622009B7829009A402F
:1006F00013004A4653611C232B70434622009B780B
:1007000050469A4013004A469361012208F0ECFCDF
:1007100032000123FF21504608F0B6FC4346220078
:100720009B7829009A4013004A465361012233788E
:100730005046134333706B7043463B322A7022009D
:100740009B789A4013004A469361022208F0CCFC41
:1007500043469B789C404B465C6102B0E0BCBA4685
:10076000B146A846F0BDC04600C00340F0B5C6463D
:10077000012600B5040082B0807802F089F83200CA
:10078000A378D0259A402D066A626A61E07802F06B
:100790007FF83200E37820789A406A62AA6102F01A
:1007A00077F8320023786F4F9A40AA62607802F09F
:1007B0006FF8320063789A406A62207902F068F834
:1007C0003200237938009A4067496A6208F074FB66
:1007D00002237A6865491A40904607220B60386800
:1007E0004240CF201040624A106042466148026099
:1007F0007A680B601A4002330B6002602079012195
:1008000002F02EF86078012102F02AF82078012108
:1008100002F026F888236A469B0013803200A378F2
:1008200069469A403800AA61022208F05DFC320055
:10083000A37802209A406A6102F0C8FE6A464E4BD5
:10084000694613803200A37838009A40AA610222D8
:1008500008F04AFC3200A37869469A406A616A4609
:10086000464B380013803200A3789A40AA610222D6
:1008700008F03AFC3200A37869469A406A616A46F9
:100880003F4B380013803200A3789A40AA610222BD
:1008900008F02AFC3200A37869469A406A616A46E9
:1008A000384B380013803200A3789A40AA610222A4
:1008B00008F01AFC3200A37869469A4091236A61D5
:1008C0006A465B0013803200A37838009A40AA6120
:1008D000022208F009FC3200A37869469A402123DD
:1008E0006A616A4613803200A37838009A40AA6190
:1008F000022208F0F9FB3200A37820009A406A61D6
:10090000FFF7B0FE6A462A2313706B4605221E4984
:10091000581C05F095FF3200A37869469A403800CC
:10092000AA61062208F0E0FB3200A3789A40302347
:100930006A616A4613706B4605221449581C05F01B
:100940007FFF3200A37869469A403800AA610622E8
:1009500008F0CAFBA3789E406E6102B080BCB84626
:10096000F0BDC04600C0034040420F0004F0034009
:1009700000D0034004E0034023030000254C0000A6
:10098000260E0000248FFFFFA80E0020B00E0020CE
:10099000F0B50124C6460023220000B582B001AFA5
:1009A0003B708378D0269A40184B360605003900F4
:1009B000B26118000122984608F096FB6A460123AE
:1009C000FF214046033208F05FFB2200AB7839007C
:1009D0009A406B4672610122DB78404613436A46B7
:1009E000D37020223A7022007B70AB789A40B261BB
:1009F000022208F079FB2200AB789A407261EB7812
:100A00009C40746102B080BCB846F0BD00C0034099
:100A1000F0B501240723220083B001A90B7083786D
:100A2000D0269A400E4F36060500B26138000122EA
:100A300008F05AFB6A460123FF213800033208F010
:100A400023FB2200AB7807489A406B467261D97845
:100A500006F0B6F86B46D8788009204003B0F0BDA8
:100A600000C00340F0910010F0B5C646192000B553
:100A700001F00EFFD02480238027802680252406C5
:100A80009B0463623F020F209846760201F000FF4C
:100A90006762102001F0FCFEAD026662112001F0D9
:100AA000F7FE65620421122001F0DAFE0421132012
:100AB00001F0D6FEFF22114B11485A625A62BF3A2A
:100AC0009A619A6143463F3A1100A361A761A6610A
:100AD000A5610C4D0C4C2B689943216003680B49B0
:100AE0001B041B0C0B602B689A43226003681B0CD1
:100AF0001B040B6080BCB846F0BDC046000005403A
:100B00002000054014000540141005402010054049
:100B100010B55621502000F0B9F810BD10B556217F
:100B2000002000F0B3F810BD10B54821002000F0FF
:100B3000ADF810BD10B548215A2000F0A7F810BD3F
:100B4000D02380221B06920430B55A618022120203
:100B50009A61802252025A61802292029A61012295
:100B600011000C4D0C4C2B680C4899432160FF215F
:100B700003684B401B040A491B0C0B602B689A430B
:100B8000FF23226002681B0453401B0C1B040B60F4
:100B900030BDC0461400054014100540200005403B
:100BA00020100540D02380221B06920430B59A61A4
:100BB000802212025A61802252029A61802292029D
:100BC0005A61012211000C4D0C4C2B680C489943C2
:100BD0002160FF2103684B401B040A491B0C0B607A
:100BE0002B689A43FF23226002681B0453401B0CAE
:100BF0001B040B6030BDC0461400054014100540B6
:100C00002000054020100540D02380221B069204BE
:100C100030B59A61802212029A61802252029A6152
:100C2000802292029A6101221100094D094C2B6821
:100C3000094899432160036808491B041B0C0B6099
:100C40002B689A43226003681B0C1B040B6030BDA9
:100C500014000540141005402000054020100540F8
:100C600010B504211B2001F0FBFD04211A2001F026
:100C7000F7FD044B044A5A675A67802252009A666D
:100C80009A6610BD000005405962000010B50C00C6
:100C900005F058FD124905F03AFD124905F04BFDEB
:100CA000114905F031FD114905F045FD05F06CFDD8
:100CB0000F4B80B21B68562C0CD000045840000C1F
:100CC0000C4B000418600C4B1A68012393430B4A29
:100CD000136010BD4340074A1B041B0C1360F2E76E
:100CE00000003443CDCCCC3DCDCCCC3C4096184814
:100CF0007000054070100540640005406410054018
:100D0000F0B5C646124B00B59846124D124F134E21
:100D100014E001F019FCFB68DC68201D01F08AF981
:100D20003368013B33602B68013B2B6001F018FCFA
:100D3000206B01F035FD200001F032FD2B68002B07
:100D4000E7D143461B68012BF8D901F0F1FBF5E729
:100D5000581D002000460020B8460020FC45002019
:100D6000F0B55746DE464E4645465D4BE0B51F683A
:100D700083B001371F60002F60D05A4B1A6897422A
:100D800075D3594E32681268002A00D1A2E00022C1
:100D90000092564AB846934600229146544AB446B9
:100DA0009246544D019337E0494659611168013923
:100DB00011609A6A002A0ED0D969186A566888604C
:100DC0004160190018318E4200D174E049469962A1
:100DD0001168013911605246D96A1268914201D9ED
:100DE000524611608A0052189200AE1870688768E7
:100DF0009860DF607C6084605E61AB580133AB500B
:100E00005B461B68DB6A994201D901230093634664
:100E10001B681B68002B53D063461B68DB68DB68CC
:100E20005A68904549D35A699868D9681C1D8160F1
:100E300048605068A042B7D15160B5E72A4E336888
:100E40001B68002B41D12C4B3268196831601A6045
:100E50002A4A13680133136033681B68002B24D1BE
:100E60000122204B52421A601A68974289D200230D
:100E700000931E4B1F4D9B465B461B68DA6A93002E
:100E80009B189B00EB58012B01D9012300931C4BAD
:100E90001B68002B01D001230093009803B0F0BC25
:100EA000BB46B246A946A046F0BD3368DB681A6867
:100EB0000C4B1A6062E7506088E7019B1A60DBE721
:100EC000019B012252421A60D6E70E480E49FFF7F5
:100ED00095FAB8E700220092044A064D9346F0E7DF
:100EE000CC46002070460020481D0020401D0020F8
:100EF0000C460020581D0020501D00207446002084
:100F0000D84600202C920010B70A0000F8B5CE4653
:100F10004746960080B5804630000D00994601F0A6
:100F200075FB071E00D1BBE0542001F06FFB041ECF
:100F300000D1B2E05422002105F07CFC3200A52152
:100F40003800276305F076FC236B043E9E190723C7
:100F50009E43002D4BD034222B78A354002B43D03A
:100F60006B780132A354002B3ED0AB780132A354EE
:100F7000002B39D0EB780132A354002B34D02B79DD
:100F80000132A354002B2FD06B790132A354002BD4
:100F90002AD0AB790132A354002B25D0EB79013252
:100FA000A354002B20D02B7A0132A354002B1BD04A
:100FB0006B7A0132A354002B16D0AB7A0132A354C2
:100FC000002B11D0EB7A0132A354002B0CD02B7BD9
:100FD0000132A354002B07D06B7B0132A354002BAA
:100FE00002D04223AA7BE25443230022E254089B0E
:100FF000042B5FD80527FF1A251DE36263642800D0
:1010000000F0FCFF2000183000F0F8FF4A4641468F
:1010100030002461A761646201F07AFA099B2060C4
:10102000002B00D01C6001F08FFA404A404F13683B
:10103000013313603B68002B44D03E4BE26A984674
:101040001B68002B04D13B68DB6A934200D83C60EC
:10105000394E3A490B6801330B60394B196891429C
:1010600000D21A6093009B189B00F1184A689068A0
:10107000A260E06045609560F25861610132F25013
:1010800001F06EFA43461B68002B04D03B68DA6A15
:10109000E36A9A420AD3012004E0380001F080FBA1
:1010A00001204042C0BCB946B046F8BD01F040FA4C
:1010B0000120F7E723482449FFF7A0F9042301277B
:1010C000089399E73C601368012B04D0194BE26A3E
:1010D0009846194EBDE76423174E9946B046B14471
:1010E000404600F07FFF14239C46E044C145F7D101
:1010F000164B9946180000F075FF154B18009846DE
:1011000000F070FF134800F06DFF134800F06AFF15
:10111000124800F067FF4A46114B1A604246114BD5
:101120001A60044BE26A984693E7C046FC450020EB
:10113000401D002098460020581D00200846002031
:101140000C4600202C92001092030000384600202C
:101150004C46002084460020B8460020A4460020CB
:10116000481D0020501D0020F8B58220CE4647467D
:10117000800080B501F04AFA051E00D17EE05420BF
:1011800001F044FA041E00D175E05422002105F05C
:1011900051FB8222A52128002563920005F04AFB1D
:1011A00081239B009C46256BFE3B6544FF3B9D4392
:1011B000554B382263630023261DA3540B32A354DE
:1011C0003000E362636400F019FF2000183000F083
:1011D00015FF052300224D49A361280024616462A4
:1011E00001F096F94A4B20601C6001F0ADF9494AC4
:1011F000494F1368013313603B68002B43D0474BC2
:10120000E26A98461B68002B04D13B68DB6A934274
:1012100000D83C60424D43490B6801330B60424BA0
:101220001968914200D21A6093009B189B00E9183C
:101230004A689068A260E06046609660EA58616122
:101240000132EA5001F08CF943461B68002B06D0AE
:101250003B68DA6AE36A9A4201D201F069F901F067
:10126000D7F8012818D0013008D0304B1B68C0BC1B
:10127000B946B046F8BD280001F092FA2C482D4935
:10128000FFF7BCF8F1E73C601368012B11D0234B4A
:10129000E26A9846224DBEE772B60122264B5242C0
:1012A0001A60434600221860244B1A6001F082F94C
:1012B000DBE764231A4D9946A846A944404600F04E
:1012C00091FE14239C46E044C845F7D11C4B994637
:1012D000180000F087FE1B4B1800984600F082FEB5
:1012E000194800F07FFE194800F07CFE184800F015
:1012F00079FE4A46174B1A604246174B1A60074B55
:10130000E26A984687E7C04649444C45010D001003
:1013100064460020FC450020401D00209846002027
:10132000581D0020084600200C460020B80E002062
:101330002C9200101208000070460020CC460020BD
:10134000384600204C46002084460020B846002045
:10135000A4460020481D0020501D0020024A1368AA
:10136000013313607047C04604460020F0B5DE46E6
:1013700057464E464546E0B5574C83B02368002B90
:1013800000D19CE001F0E0F82368013B2360236872
:10139000002B7FD1514B1B68002B7BD0504B9C46C0
:1013A0001B68002B00D193E04E4B4F4D98464F4B9E
:1013B000019499464E4B9A4600239B466346DB6850
:1013C000DB68D869196A9A6A8160486018005668B3
:1013D0001830864200D170E059469962116801398F
:1013E00011605A699868D968566881604860181D0C
:1013F000864260D01168013911604146DA6A096895
:101400008A4201D941460A60910089188C002E1940
:1014100071688F689960DF60786088605E612B59C1
:1014200001332B514B461B68DB6A9A423DD353462E
:1014300001221A6063461B68002BBFD12D4B019C13
:101440001A681268002A3FD01B68DB681A682A4BAA
:101450001A602A4E3568002D14D0012708E0FFF7E6
:101460007FFC002801D053461F60013D002D08D0AD
:101470002368002BF3D03368013D01333360002D26
:10148000F6D1356053461B68002B03D001F050F8AD
:10149000012400E0002401F063F8200003B0F0BC58
:1014A000BB46B246A946A046F0BD63461B68002B6A
:1014B00000D083E7C2E751609CE751608CE7104899
:1014C0001049FEF79BFF5DE70B4B013A1A60C0E73E
:1014D000074B9A46BDE7C04604460020FC45002065
:1014E000844600200C460020581D0020401D00208E
:1014F000D8460020481D002070460020804600206D
:101500002C9200108508000070B5041E1CD0184DE8
:101510002B68002B27D12B6801332B60154B164D00
:101520001E682868A419043000F084FD2B685C60F4
:10153000A6420CD9114B18682968043100F062FDED
:10154000FFF714FF002801D100F0F2FF70BD0C4B33
:1015500018682968043100F055FD0A4B1A68944256
:10156000EED21C60ECE708480849FEF747FFD2E7D7
:1015700004460020CC460020401D0020501D0020C5
:10158000481D0020704600202C9200101C05000011
:10159000014B18687047C046CC460020544B70B5CC
:1015A0001B68002B03D00122524B1A6070BD514AB8
:1015B000514D13602C68514EA3001A199200B25875
:1015C000002A22D1002C52D0611E8B005A189200A2
:1015D000B258002A6CD100292DD149484949FEF75B
:1015E0000DFF3300143B1B68002B75D13300283BE3
:1015F0001B68002B36D133003C3B1B68002B70D19D
:10160000053CA3001A199200B2581B199B00F1184F
:101610004A6808335268F3184A609A4204D0D26884
:10162000394B1A602C60C1E75268374B4A60D26868
:101630001A602C60BAE7A21E9300991889007158AD
:10164000002953D1002A35D12D482E49FEF7D6FE68
:101650003300143B1B68002B3ED13300283B1B6832
:10166000002BCDD00224082364425B42CDE72448FE
:101670002449FEF7C3FE3300143B1B68002B2BD11B
:101680003300283B1B68002BECD133003C3B1B682C
:10169000002B26D1221F9300991889007158002928
:1016A00024D1002AACD116481649FEF7A7FEA7E7B9
:1016B0000C00AAE7E21E93009918890071580029CE
:1016C00014D1002AE6D10E480E49FEF797FE3300EA
:1016D000143B1B68002B93D00124042364425B421B
:1016E00093E703240C2364425B428EE714008CE7EB
:1016F00004460020D84600200C460020581D00203B
:101700002C920010F60B0000401D002070B5050063
:101710000C00002838D01F4E28003168183100F026
:1017200071FC1D4B1D683068043000F083FC631CA5
:1017300017D0336864195C60A54206D9174B186846
:101740003168043100F05EFC70BD154B18683168DB
:10175000043100F057FC134B1A689442F4D21C6019
:10176000F2E7114B31685A688A6090683168C86046
:1017700031680431416031680431916032685361ED
:101780001A6801321A60DFE708480949FEF736FE99
:10179000C1E7C046401D0020CC460020501D00205F
:1017A000481D002070460020A44600202C92001006
:1017B0000E0C0000F8B505000E001700002849D0F7
:1017C000274C6B6822689968D3612268116222688D
:1017D00018324A60226818329A6023689D622B682A
:1017E00001332B601F4B002F17D01B68206804307B
:1017F00000F020FC1C4B21685A688A6090682168C0
:10180000C860216804314160216804319160226818
:1018100053611A6801321A60F8BD1D682068761994
:10182000043000F007FC23685E60AE420BD30F4B20
:1018300018682168043100F0E5FB0D4B1A689642E8
:10184000EAD21E60E8E70B4B18682168043100F00B
:10185000D9FBE1E708480949FEF7D0FDB0E7C046EB
:10186000401D0020CC460020A4460020481D00203A
:1018700070460020501D00202C920010440C0000E7
:10188000F8B5C368DC68002C56D0E169226AA36A07
:101890008A605160210058681831884241D0002286
:1018A000A2621A68013A1A60264BE26A1B68002B92
:1018B00029D16369A068E168251D81604860586886
:1018C000A84230D01968013919601F4B196891423C
:1018D00025D393001D499B189B00CE18706887681C
:1018E000A060E7607D608560C85866610130C850BF
:1018F000174B00201B68DB6A934203D20122154B71
:1019000001301A60F8BD144B58688568E0612562A3
:10191000696081601968A36201311960E8E71A60A3
:10192000D7E75A60BBE75960196801391960064B5F
:1019300019689142CDD2F2E708480949FEF75EFDE9
:10194000A3E7C046044600200C460020581D002096
:10195000401D0020D8460020844600202C92001014
:10196000740C0000034B1B680360034B1B6843604F
:101970007047C04674460020CC460020F0B5C646ED
:1019800004000D0000B5002826D0002D2AD000F05C
:10199000DBFD174A2B681168581C1BD0154E606878
:1019A0003768B846276847450AD0884208D80023D8
:1019B00001242B6000F0D4FD200080BCB846F0BDAF
:1019C0000F1ABB42F3D95B1A1B182B6033682360D4
:1019D000136863600024EDE707480849FEF70EFD31
:1019E000002DD4D1CF2104480901FEF707FDCEE731
:1019F000CC460020744600202C920010EF0C000012
:101A00000122014B1A607047D8460020054B012087
:101A10001B68002B04D0044B186843425841400017
:101A20007047C046984600200446002070B5050067
:101A30000E00002840D0030C0A0C002B2FD1002AE6
:101A400044D1300068430300493335D8483000F0B2
:101A5000DDFD041E35D00300002E35D12360E56383
:101A6000266400F071FD216CE36B22684B43D018B3
:101A7000A06000205B1A6260D218E260FF2344225B
:101A8000A0632000A3540132A354103000F0AAFA3E
:101A90002000243000F0A6FA00F062FD12E0002AD7
:101AA0000AD1311CA8B2B2B2424389B29BB24B43B5
:101AB000120C9B181B0CC4D0F22106484900FEF7FB
:101AC0009DFC0024200070BD4833C7E7131C011C97
:101AD000E8E7C04664920010F0B54746CE4680B5B0
:101AE00085B0041E8846019200D14AE14346002B8E
:101AF00000D138E1FFF78AFF002803D1019B002BBA
:101B000000D039E100F020FDA56B002D00D03DE1B3
:101B1000019B002B00D1C9E0260002A8FFF722FF9D
:101B20004427243600F01CFDFFF718FC00F00CFDE4
:101B3000E35D5BB2013301D10023E3554522A35C91
:101B40005BB2013301D10023A35400F009FD01A9C8
:101B500002A8FFF713FF002852D100F0F5FCA36B99
:101B6000002B00D1AAE000F0FBFC00F0EDFC4523C7
:101B7000E55C213B99466DB2A144002D05DC13E0E4
:101B8000013DEAB26DB2002A0ED0636A002B0BD081
:101B90004846FFF775FE0028F2D0013DFFF730FF01
:101BA000EAB26DB2002AF0D14523FF22E25400F0E0
:101BB000D7FC00F0C9FC4423E55C343B99466DB288
:101BC000A144002D05DC13E0013DEAB26DB2002A0C
:101BD0000ED02369002B0BD04846FFF751FE00289A
:101BE000F2D0013DFFF70CFFEAB26DB2002AF0D14E
:101BF0004423FF22E25400F0B3FCFFF7B7FB4BE0B5
:101C000000F0A2FC4523E55C6DB2002D05DC13E07D
:101C1000013DEAB26DB2002A0ED0636A002B0BD0F0
:101C20003000FFF72DFE0028F2D0013DFFF7E8FE5F
:101C3000EAB26DB2002AF0D14523FF22E25400F04F
:101C40008FFC00F081FC10239946E55DA1446DB244
:101C5000002D05DC13E0013DEAB26DB2002A0ED082
:101C60002369002B0BD04846FFF70AFE0028F2D06C
:101C7000013DFFF7C5FEEAB26DB2002AF0D1FF23A5
:101C8000E35500F06DFCFFF771FB00F05DFCA36B0A
:101C9000002B0BD000F064FC00F056FCA56B002D6F
:101CA00000D073E0019B002B00D03BE700F058FC14
:101CB000002005B0C0BCB946B046F0BD00F050FCF5
:101CC00024239946A14448460199FFF71FFD00F0DF
:101CD0003BFC4523E55C6DB2002D05DC13E0013DC6
:101CE000EAB26DB2002A0ED0636A002B0BD04846D0
:101CF000FFF7C6FD0028F2D0013DFFF781FEEAB2F2
:101D00006DB2002AF0D14523FF22E25400F028FCF6
:101D100000F01AFC4423E55C343B99466DB2A144C3
:101D2000002D05DC13E0013DEAB26DB2002A0ED0B1
:101D30002369002B0BD04846FFF7A2FD0028F2D004
:101D4000013DFFF75DFEEAB26DB2002AF0D14423F7
:101D5000FF22E25400F004FCFFF708FB00289BD1AF
:101D600000F0E6FB98E7236C002B00D1C2E6184890
:101D70001849FEF743FBBDE615481749FEF73EFB41
:101D8000C0E613481549FEF739FBAFE6226C002A7E
:101D900008D0E168A3688918E16099420BD24046F7
:101DA00004F04EFD013DA5632369002B06D100F030
:101DB000D7FB01207DE72168E160F0E720001030CB
:101DC000FFF75EFD0028F2D000F0B2FBEFE7C0465F
:101DD000649200106F050000740500006B050000A0
:101DE00070B504000D0000284FD0002D33D0454BB6
:101DF0005A68944200D178E01A68002A2CD0DA6838
:101E0000944200D17BE09A68002A43D05A699442F8
:101E100000D172E01A69002A42D0DA69944266D091
:101E20009A69002A42D05A6A944247D01A6A002A14
:101E300048D0DA6A94425CD09A6A002A48D05A6B39
:101E4000944258D01A6B002A48D0DA6B94424AD098
:101E50009A6B002A2FD070BDDA6894424FD05A692D
:101E600094424AD01A00D9698C4240D0596A8C42B7
:101E700024D0D96A8C423CD0596B8C423BD0D96B70
:101E80008C4230D015605460E5E71F481F49FEF7CB
:101E9000B5FAAAE75A6994422FD01A000832E2E74D
:101EA000DA69944223D01A001032DFE75A6A94426A
:101EB00004D0174ADDE738331A00E3E70422D200E2
:101EC0009A18DFE7DA6A944213D01A002032D3E777
:101ED0005A6B94420FD01A002832D0E71A00D96BFF
:101EE00030328C42CED10722E9E70022E7E7032215
:101EF000E5E70522E3E70622E1E70222DFE7012228
:101F0000DDE7C046F012002064920010D80A0000FD
:101F10000813002070B5050016000C0000F014FB3B
:101F20004422AB5C5BB2013301D10023AB544522A8
:101F3000AB5C5BB2013301D10023AB5400F010FB6A
:101F4000AB6B002B46D000F0FFFA4523EC5C64B28B
:101F5000002C16DD2E00243604E0013CE2B264B20F
:101F6000002A0ED06B6A002B0BD03000FFF788FCE4
:101F70000028F2D0013CFFF743FDE2B264B2002A30
:101F8000F0D14523FF22EA5400F0EAFA00F0DCFA2F
:101F90004423EC5C64B2002C16DD2E00103604E005
:101FA000013CE2B264B2002A0ED02B69002B0BD0A8
:101FB0003000FFF765FC0028F2D0013CFFF720FD60
:101FC000E2B264B2002AF0D14423FF22EA5400F0C6
:101FD000C7FA70BD2800320021002430FFF7EAFB69
:101FE000B1E7C0460300083301224360C3600361C8
:101FF00000235242826003607047C04600230361A1
:102000007047C046030030B50D6808336A1C0DD018
:102010001C005B681A68AA42FAD94B609960036891
:102020008C60013361600861036030BD04696368DE
:10203000F3E7C0460369416882688A605160596865
:10204000814206D0002202611A68013A1A601868BB
:1020500070475A60F6E7C046F0B5DE4657464E4632
:102060004546E0B5D34B8BB09A46D34BD34C009347
:10207000D34B9B46D34B0193D34B059353461B68DD
:102080001E68002E00D19DE0DB681E68FFF766F930
:10209000FFF77EFA009B05001B68834200D9ADE084
:1020A000009B1860864200D846E100222068711B20
:1020B000FFF730FFFFF75AF9002800D19BE000221C
:1020C000206806A9FFF708FD0028D7D0069B0898CE
:1020D000002B6FDB089E7369002B02D0301DFFF7C9
:1020E000A9FFFFF755FA009B05001B68984200D234
:1020F000D4E0009B1D60069B092BE0D8019A9B0051
:10210000D3589F4624220123B05C07990343B3545C
:10211000B26936618B187360AB4200D922E1691A4B
:102120008A4200D933E1410710D401239843233375
:10213000F0543000336A9847C1E7EB1A934200D25B
:102140002FE1336A300098473B00B2699F187760EF
:102150003661BD42F1D29D4201D2BB42F1D9534614
:10216000311D1868FFF74EFFE3E724220121B35C1D
:102170000B43B354079BB361002B00D1F9E05B190B
:10218000736036619D4200D301E15346311D1868EA
:10219000FFF738FF93E724220121B35C8B43B3544C
:1021A0008DE72422B35C990700D4F6E001218B432C
:1021B000B35484E7079B09999847069B002B00DAE4
:1021C0007DE787E7FFF7CAF8FFF7E2F9009B050014
:1021D0001B68834212D8009B20681D605B461B6809
:1021E000711B1A6853425A41FFF794FEFFF7BEF87D
:1021F000002800D063E700F09BF960E753461B68B6
:102200001A68002A3FD024229046203A914602952F
:1022100003940BE0012293434246A354236A200017
:10222000984753461B681A68002A2AD0DB68DC6886
:102230001E68271D3800FFF7FDFE43464A46E35C53
:102240001A42E7D0A3692461F518F6436560B342EA
:102250000AD82E00F643236A20009847A369246118
:10226000ED186560B342F4D95B4639001868FFF792
:10227000C9FE236A2000984753461B681A68002A43
:10228000D4D1029D039C5A46514612680A605A46B0
:102290001360009B1D60FFF769F810E753461B6849
:1022A0001A68002A41D024229046203A914602968C
:1022B000039004940BE0012293434246A354236A03
:1022C0002000984753461B681A68002A2AD0DB680A
:1022D000DC681E68271D3800FFF7ACFE43464A46FF
:1022E000E35C1A42E7D0A3692461F518F643656000
:1022F000B3420AD82E00F643236A20009847A36908
:102300002461ED186560B342F4D95B463900186862
:10231000FFF778FE236A2000984753461B681A6827
:10232000002AD4D1029E039D049C5A46514612684D
:102330000A605A461360DCE6FFF718F853461B683C
:10234000DB68DF683B1D18009846FFF773FE242208
:10235000BB5C59072BD401218B43BB5438003B6A2B
:102360009847ACE6A94200D80FE7994200D8DAE6D0
:102370000BE716490598FEF741F8B36936615A191B
:102380007260AA4200D900E7002B00D197E65B46B5
:10239000311D1868FFF736FE91E6300000F000FAB4
:1023A0008DE65B46311D1868FFF72CFEC1E6A1469D
:1023B0002C0014E0441D002068460020D046002078
:1023C000541D0020D49200109C9200105E03000067
:1023D000A61BB34214D838003B6A98472E00BB694D
:1023E0003F61F5187D60A542F2D9A64201D9AE42FF
:1023F000F1D95346414618684C46FFF703FEADE756
:102400005B46414618684C46FFF7FCFDA6E7C04610
:1024100070B582B000F098F81A4C2368002B19D0E0
:1024200000F09EF82368002B0CD0174B82220193FA
:10243000022316490093164800235200FEF766FD5A
:10244000002805D11A211348FF31FDF7D7FF0020DE
:1024500002B070BD104E3000FFF7C4FD0F4D2800D4
:10246000FFF7C0FD0E4B00221E600E4B1021052011
:102470001D60FFF7DBFA20600028D1D00A49FFF782
:10248000AFFCCDE7D0460020D446002004930010D6
:10249000592000109C920010104600202446002075
:1024A000441D0020541D0020FC920010000000007C
:1024B0000B4A13681868203080F30988022080F3E3
:1024C0001488BFF36F8F3FBCAE4608BC04BC62B635
:1024D0001847C046C046C046C046C046C046C04673
:1024E000401D0020002300B583B00193064B1B68FC
:1024F000013303D0B2210548FDF780FF72B6019B7E
:10250000002BFCD003B000BDBC0E00200C930010CB
:1025100010B58024031F64041C60043B1960034948
:10252000043B1960143B40381A6010BDE5240010CC
:102530008022044B52051A60BFF34F8FBFF36F8F99
:102540007047C04604ED00E072B6044A13680133D8
:102550001360BFF34F8FBFF36F8F7047BC0E002027
:1025600010B5084C2368002B05D0013B2360002BDD
:1025700000D162B610BD26210348FF31FDF73EFFB2
:102580002368F2E7BC0E00200C9300100022054BDC
:1025900005491A600A60054A0549116007221A6058
:1025A0007047C04610E000E018E000E014E000E0F2
:1025B00087070200FF22124B1204196830B50A4344
:1025C0001A60FF220025196812060A4383B01A60B8
:1025D000FFF7DCFF0B4C2560FFF76AFFFEF7DEFF1D
:1025E00023680195013303D0B2210748FDF706FFA8
:1025F00072B6019B002BFCD0002003B030BDC0465A
:1026000020ED00E0BC0E00200C930010F8B5DE4673
:102610004E4657464546E0B50400FEF79FFE584B30
:102620001968994600296ED0002C06D0072727404C
:102630003B00113BBC46A3420AD2FEF797FE0023A3
:102640009B465846F0BCBB46B246A946A046F8BDDC
:1026500010239846A0444346DE1B002EEDDD494B77
:1026600018689A46B042E8D3474D2F002C6804E022
:102670002368002B04D027001C006268B242F7D305
:102680008C42DAD008239B46236841463B60634670
:102690005B1A9846D318A344102B17D9A7197A07A9
:1026A0004ED17B6066602B002D68AF42FBD8596825
:1026B0007A68581887424AD0B9188D4251D03200F2
:1026C0003D6051460868BB4200D01F605346801AE7
:1026D00018602E4B1968884200D2186080231B06B0
:1026E0001343636000232A4A236013680133136095
:1026F000FEF73CFE5B465B07A3D08E2125484900D0
:10270000FDF77CFE9DE7072023490B000A000842E5
:1027100002D0CB1D83431A0000201B4D2A60686045
:102720001E4DAC4607256144A9434D46CB1A48606F
:1027300008600AC2154A29601360124A136073E7E1
:10274000DC211448FDF75AFE63684344A9E7521898
:102750005146086899185A608D4201D06268B5E701
:102760001F00494609688D4206D069688A187A6058
:102770002A683A606268A4E762683D60A1E7C046E3
:102780004C1D0020604600209C4600206C46002026
:102790007846002058930010E81D0020F82700001C
:1027A00070B5002812D0083843680400002B33DAD3
:1027B0002368002B0BD0982124484900FDF71EFE0A
:1027C0006368002B02DA2268002A03D070BD6368B8
:1027D000002BFBDA25005B005B086360FEF7BEFDA3
:1027E0001B4A616813685B1813601A4B1A001B6858
:1027F0009C42FBD850681618B44216D06018834229
:1028000019D02360AA4200D01560134A136801331F
:102810001360FEF7ABFDD9E730210C48FF31FDF71F
:10282000EDFD2368002BC6D1D1E70918501851607F
:102830008342EAD1150009480068834203D05868F2
:102840004118186869602860DCE7C046589300109A
:10285000604600209C4600207C4600204C1D002045
:10286000094A10B594464024830063441A68C000A6
:102870006240803414408022520113431C60034B99
:102880009C466044416010BD04C0014000400140CE
:102890000123D0228340120693629361094A4021AA
:1028A0009446830063441A68C0004A408031114056
:1028B0008022520113431960034B9C460523604458
:1028C0004360704704C0014000400140024B18685B
:1028D0008007C00F7047C04600C0064070B5EFF3D8
:1028E000108C72B60D4D2B68002BFCD0BFF35F8FA0
:1028F0000724CB08C618C05C01230C40A3401C0071
:102900000440034207D118433070BFF35F8F2C603F
:102910008CF3108870BD100001F098FC2C0100D0E1
:10292000F8B54746CE46884680B5EFF3108C72B6B0
:10293000214D2C68002CFCD0BFF35F8F9A422CD81D
:10294000D4080727055D061901241740BC402C4216
:102950001FD007210127894609E0D408055D061923
:102960004C4639001440A1400C00294211D00132DC
:102970009342F2D201204042BFF35F8F00220E4B00
:102980001A608CF3108800280FDBC0BCB946B04633
:10299000F8BD254310003570EEE7BFF35F8F0023CD
:1029A0002B608CF31088012040424346002BECD072
:1029B000089801F04BFCC0462C0100D00021044BCC
:1029C000044ABFF35F8F02C39342FAD17047C046F7
:1029D000000100D0800100D0044A1078431CDBB213
:1029E000172B00D9102313707047C046C00E00206B
:1029F00010B5064B064C82B00100009318221F232D
:102A00002000FFF78DFF02B010BDC046A493001058
:102A10008C18002001238340002904D0034A13604E
:102A2000034A13607047034A1360FBE780E200E04B
:102A300000E100E080E100E001238340014A1360EF
:102A40007047C04600E200E0084B10309B688000F1
:102A5000C358002B07D0064A00209B1A2F229A4207
:102A60004041C0B270470020FCE7C04600ED00E0E6
:102A7000C40E0020024B10309B688000C058704785
:102A800000ED00E070B50D00EFF3108672B60F4A4E
:102A90001368002BFCD0BFF35F8F0D4B10309B6889
:102AA00084001B590B4A934203D09D4201D001F090
:102AB000E5FB074B9B681D51BFF35F8FBFF35F8F33
:102AC0000022024B1A6086F3108870BD240100D0EA
:102AD00000ED00E0CD010010F0B54E464546DE4663
:102AE0005746E0B583B0060000919046EFF3108B97
:102AF00072B6654A1368002BFCD0BFF35F8F0025C8
:102B0000624B5D579A46002D00DA79E052466B0021
:102B10005F4C5F19BF000193E31999469B7910360A
:102B200013705C4BB6009B6899590B1B2F2B33D944
:102B3000594B994200D07CE0019B02379C46574B91
:102B40006544AD006353564BE719043BDB1B554A04
:102B50001B055B0D651913436B80534B0121AB8043
:102B6000FF23AB714346EB71009BAB604B460B43BD
:102B70001900484B9B689951BFF35F8FBFF35F8F7C
:102B80000022414B1A608BF3108803B0F0BCBB46A7
:102B9000B246A946A046F0BD01200A008243D3797F
:102BA000434549D9BC464746884607E05800C01807
:102BB00080002018C179B94228D902000623D356D3
:102BC000002BF3DA9A46131D9C464146B846374F10
:102BD000484663460438C01A0005324B400D18437E
:102BE000019B908095715A1953469200A418A371C5
:102BF00043462F4AE371009B2260A780A360B8E799
:102C000001F03CFB002553465D577FE79A4641465D
:102C1000131DB84667469C4690880437400500154A
:102C2000E7196044C01BE0270005400D3F02074341
:102C3000CEE701F023FB7FE713001E491B1B5B411E
:102C40005943090D154BBD1CE353154B6519043B46
:102C50005B1B1B05134D5B0D2B43AC464D466B8038
:102C600065460437131FE719DB1B1B055B0D1D436E
:102C70004B4699714146D97100999D8099604946AA
:102C80000B4B0143136074E7240100D0E0460020A1
:102C9000C40E002000ED00E0CD01001000A1FFFFF8
:102CA000F40E002000E0FFFF01BDFFFF01BD0000AA
:102CB00001488047AAAA0000F0B5DE4657464E46B6
:102CC0004546E0B50C0083B0EFF3108872B65D4A5C
:102CD0001368002BFCD0BFF35F8F5B4B5B499A6896
:102CE000030010339F00D5598D4239D0A5424AD0F8
:102CF000574EAA1B2F2A33D8012292468240914672
:102D00004846544A1268104001904846524A1060A2
:102D1000BFF35F8FEFF305829346002A35D09342CD
:102D200001D001F0ABFA2A0053469A4390688442DE
:102D300008D175E04B005B189B00F3189868A0421F
:102D400034D01A00062151560029F3DA844253D0B8
:102D5000019B002B26D04A46404B1A603D4B1A601F
:102D6000394B9B68DD51BFF35F8FBFF35F8F00224C
:102D7000344B1A6088F3108803B0F0BCBB46B246EF
:102D8000A946A046F0BD0D00EAE72A0053469A4343
:102D900090688442D6D1062010561300002809DA24
:102DA0000D0031E04A462C4B1A60D9E70620185630
:102DB000002822DB42001118890074188A46A16895
:102DC0009960E179D971062161569971002925DB55
:102DD000A488F11A6405241554440919E02409054E
:102DE000490D24022143998013181D4A9B00117834
:102DF000F31899711070ABE713005946002914D1EC
:102E0000FF3191711749918015490A789A71164AD4
:102E10009B1B5B415A43120D0A7099E71349E2E785
:102E20000620105613000028C4DA114A1149D21A9C
:102E3000083A5002400D014399800F4952080A4355
:102E4000DA8085E7240100D000ED00E0CD0100101C
:102E5000C40E002000E100E080E100E080E200E03C
:102E6000E046002001BDFFFFAAAA000001BD00004E
:102E7000FE0E002000F0FFFF00F8FFFF70B5EFF33B
:102E8000058101240443EFF3108C72B6214A1368C4
:102E9000002BFCD0BFF35F8F1F4B05001F4AED1ABC
:102EA0006D416A43120D1E4D8900AE6852B27658CC
:102EB000A6421CD00621595691421CD012215956C7
:102EC000914222D01E215956914220D02A21595692
:102ED0000324914210D0134B19781A708171BFF3FB
:102EE0005F8F00220B4B1A608CF3108870BDAB68AB
:102EF0000D4C5C50EFE700246100091989005B1854
:102F0000FF21997109499980E5E70124F4E702243A
:102F1000F2E7C046240100D0C40E0020AAAA000097
:102F200000ED00E0E0460020CD01001001BDFFFFF4
:102F3000054B064A1360064A136053609360D360E2
:102F400013615361936170478080808000E400E0EA
:102F500004E400E010B5084B084C82B00100009377
:102F6000002205232000FFF7DBFC002801DB1F23E4
:102F7000181A02B010BDC046C0930010E5460020EC
:102F8000024B9C4661448900016070474000003458
:102F900010B50400FFF720FD01002000FFF7F0FF4F
:102FA000FF232371BFF35F8F10BDC04610B504002F
:102FB000FFF712FD01002000FFF7E2FFFF23A380CF
:102FC000BFF35F8F10BDC04610B504000120FFF7AE
:102FD0000FFD034BC3189B002360BFF35F8F10BD31
:102FE00040000034034B9C46614489000160BFF3FC
:102FF0005F8F70474000003483680B4810B58446EB
:10300000614462441201090159189B185C684A68BE
:103010000120944201D802D00020C0B210BD1A682D
:103020000B689A42F9D8F7E7FFFFFF0F0A4B1968C0
:10303000EFF3108072B60A68002AFCD0BFF35F8FEE
:103040001B68BFF35F8F00221A6080F3108840BFB7
:10305000002000217047C046CC1D0020F8B557461F
:1030600045464E46DE46E0B598460CAB1C780DABA7
:103070001B78070091469A460568002C5AD1AC7B14
:10308000002C3BD0660029683619033E89194B781D
:10309000AB73002B00D1EB7300238B704B700B7064
:1030A0002B4BE218BB6812019B184A461A60424635
:1030B0005A600A9A9A600B9ADA6000238B704B7000
:1030C0000B706B7B9B46002B27D022006B68594608
:1030D000A86898475B465B005B442A68033B00286E
:1030E00012D058469619B070D118D35C002B00D07E
:1030F00073705B460C706B735C450FD0F0BCBB46C5
:10310000B246A946A046F8BDD3189C709119925DAD
:10311000002A00D05A705B460B706C734A464346D7
:10312000387D00F09FFB051E0AD10E9B002BE5D0D9
:103130001D70E3E7660029683619033E8919AFE779
:103140005346002BF1D12100386800F0A3FDECE7D5
:10315000FFFFFF0FF0B5DE4657464E4645460023BB
:10316000E0B58BB00893684B8200D45800239B468F
:10317000099000F017FB02000B006068EFF3108A63
:1031800072B6564601680029FCD0B246BFF35F8F85
:1031900021684F7B8C46002F2ED0A5685B49A9463D
:1031A00079180901894449460868496805000E00F4
:1031B000AD1A9E41002E5FDD02000B00099800F061
:1031C00051FB002300229946002306920793002317
:1031D00098466368BFF35F8F5A461A608AF3108877
:1031E0004346002B12D10028C3D10BB0F0BCBB4624
:1031F000B246A946A046F0BD00230022994600230E
:1032000006920793002300209846E2E7089B494670
:1032100018023843C047626805000E00EFF3108AB9
:1032200072B61368002BFCD0BFF35F8F002E41DB1A
:103230002B00334302D02369002B56D12368D97B5E
:10324000002905D01A68480041185218033A5770EF
:103250009A7B002A00D19F73DF73E268013FD35D40
:103260000133D3555B4623616368BFF35F8F5A46D2
:103270001A608AF310887CE7002E02D1002D00D05E
:103280009AE70021604600F083FC4B461A685B68B1
:10329000069207934B469B6898464B46DB689946D7
:1032A000E368DB19013B1B7808931B02034323618E
:1032B00000208EE72369002BC0D0069A079B80214F
:1032C000521BB34109068B4202D30122104B5242DA
:1032D00000210491013103914946019141462000AA
:1032E00002970091FFF7BAFEBCE700F05BFA2A00F4
:1032F000330012184B41802109068B42E8D301228A
:10330000034B5242E4E7C046301D0020FFFFFF0F91
:10331000FFFFFF7F10B5144C6368002B04D00A2117
:103320001248FFF72DFE10BD2300114A102120681E
:1033300000F04AFB032000F029FA032000F0FAFA1B
:1033400003200C4900F048FAFFF746FB0A4B9C4665
:1033500003232375D0231B061B6860446375074B4A
:1033600080006060DC60DAE70C0F0020CC1D0020DC
:10337000F92F00105531001040000034301D00209E
:10338000004870470C0F0020F0B557464E464546A2
:10339000DE46E0B585B0019310AB1B7806000393C1
:1033A00000239A46984600927268EFF3108B72B62B
:1033B0001368002BFCD0BFF35F8F3568AC7B002C0B
:1033C00000D16EE067002B683F19033FDB195A7884
:1033D000AA73002A00D1EA73484AA118B268090109
:1033E000521800980199106051600E9991600F99E0
:1033F000D16042469A705A701A706B7B9946002BC6
:1034000000D16BE022006B684946A86898474B469C
:103410005B004B442A68033B002856D04846D71926
:10342000B870D118D35C002B00D07B704B460C7069
:103430006B734C4553D0F3681B19013B18787368C4
:10344000BFF35F8F42461A608BF310885346002B00
:1034500008D10002204305B0F0BCBB46B246A946E5
:10346000A046F0BD039B002B46D00E9B00200F9979
:10347000984703000B433FD004000D1E1ADA009A50
:10348000019B121BAB4100920193802212069342D2
:1034900004D301231A4C5B4200930194039B9A4688
:1034A00082E77368BFF35F8F1C608BF31088012085
:1034B0004042D0E700F076F98022001969411206F7
:1034C000009001919142E9D3E3E7D3189C70D119A0
:1034D000D25D002A00D05A704B460B706C73307D61
:1034E000009A019B00F0BEF982460028A3D021007B
:1034F000306800F0CFFB9EE70020ACE7FFFFFF0F36
:10350000FFFFFF7F407D7047F0B504000D000626E9
:103510007642F717C64636196F4100B584B08F4220
:1035200014D811D000F03EF932003B00121A8B4142
:10353000002B15DC002B3ED02000290000F03CF9C8
:1035400004B080BCB846F0BD8642EBD90026002707
:1035500000F028F932003B00121A8B41002BE9DD04
:10356000002302930193154B3200009314483B0053
:10357000FFF70AFF0028DFDB00239846BC46114A0C
:10358000114F7B6A9C4504D8B96AB142D4D29C459C
:10359000D2D11168EFF3108072B60B68002BFCD00B
:1035A000BFF35F8F1368BFF35F8F4146196080F3ED
:1035B000108820BFE5E7002ABED0D1E72D300010EB
:1035C0000C0F0020CC1D00200040054070B5060007
:1035D00000F0E8F8FA2204000D000023300000217A
:1035E000920003F071F88023001969411B0699428B
:1035F00002D3012002494042FFF786FF70BDC0465A
:10360000FFFFFF7FF0B5EFF30583CE46474680B559
:1036100005000C0085B0002B12D02A4A0020536A06
:10362000A34203D3926A0130AA4204D305B0C0BCBE
:10363000B946B046F0BD1B1B5A1E9341D8B2F5E700
:10364000214E02930193214B0200009330000B00A6
:10365000FFF79AFE031EE0DD20BF7168EFF31087CD
:1036600072B60A68002AFCD0BFF35F8FDAB29446C4
:10367000FF2230681A40417B61450FD001688946BE
:1036800051008846494690444144033989780029CD
:1036900004D13269934209D1316107E0F1681B0A14
:1036A0008A18013A1278DBB29A4207D07368BFF3E6
:1036B0005F8F00221A6087F31088AEE7614600F042
:1036C000E9FAF3E7004005400C0F00202D30001010
:1036D000F0B5EFF30582D6464F4646461000C0B51A
:1036E0001038EFF3108872B6214C2368002BFCD001
:1036F000BFF35F8F0123190081401E4D1F006963D6
:10370000AA461D4D29601D4D2E78AC463500C5409A
:103710002F402B4215D053465F6A194B8500EB585A
:103720009F4218D36246174B8E43EB581670BFF377
:103730005F8F0022226088F31088002B06D0984704
:1037400004E0BFF35F8F276088F31088E0BCBA46BF
:10375000B146A846F0BD0C4B92009C4662441368EB
:103760001360BFF35F8F0023236088F31088EDE7B9
:10377000280100D0004005403C700540E446002090
:10378000D81D002074170020D03F054010B5034B12
:1037900001001800024AFFF7A1F810BDDF46002023
:1037A000DC930010034B596A0A00986A596A8A42EE
:1037B000FAD1704700400540064A536A9942FCD846
:1037C00007D1044B02E05A6A914202D19A6A8242BE
:1037D000F9D370470040054070B504000D00EFF3C9
:1037E000108672B61A4A1368002BFCD0BFF35F8FA5
:1037F000002D1BD02000FFF73DF9164981420AD069
:103800002000FFF73FF901212000FFF703F9012312
:10381000A340114A1360114BA400E550BFF35F8F22
:1038200000220B4B1A6086F3108870BD0121A14065
:103830000A4BA200D5500A4B20001A788A4305494A
:103840001A70FFF739FA00212000FFF7E3F8E5E7E7
:10385000280100D0D13600103860054074170020D0
:10386000E4460020F0B54F46D6464646C0B50700B0
:103870002B4C616A0D00A66A616AA942FAD18B429B
:1038800008D805D00120E0BCBA46B146A846F0BD34
:10389000B242F7D9EFF3108A72B6224801680029C4
:1038A000FCD0BFF35F8F0125BD401F491C4C8846EB
:1038B000097889462943C9B28C464146604608705A
:1038C000391D890065630A511849B8004350216ABF
:1038D0000020294219D0616A0800A66A616A814203
:1038E000FAD18B4219D801D1B24216D8CC450BD0AF
:1038F0000B4B1F221D625D6301233A4093400C4A2B
:10390000136043464A461A700120BFF35F8F0022BE
:10391000044B1A608AF31088B5E70020F5E7C0462B
:1039200000400540280100D0E4460020D81D0020BA
:1039300080E200E0EFF3108C72B60A490B68002BAE
:10394000FCD0BFF35F8F01238340074A074813620F
:1039500002789A430270BFF35F8F00230B608CF3F1
:1039600010887047280100D000400540E446002040
:1039700070B506000D00140000291DD0002A12D0D9
:1039800073688068984762006B0012195B19316890
:10399000033A033B002808D08A189570C818CB5CFE
:1039A000002B0BD10470280070BDCB189C708818B8
:1039B0008A5C002A05D105702000F5E75370047079
:1039C000F1E75A700570F7E710B583600023CCB2B9
:1039D00043730133426004738373C4730068421CF1
:1039E000012C05D90133DBB2137003329C42F9D1AB
:1039F000FF230B405A00D318C0180023033843702C
:103A000010BDC04670B505000C1E07D063000168EC
:103A10001B19033BCB185A78002A01D1200070BD36
:103A2000500080180338091800204E784870210093
:103A300058702800FFF79CFF310004002800FFF7B2
:103A4000E1FF0600002C20D00028E7D03200210042
:103A50006B68A86898477200630092191B1929685F
:103A6000033A033B002808D08A189470C818CB5C2E
:103A7000002B00D053700670D0E7CB189E708818CA
:103A80008A5C002A00D05A7004703400C6E7C04631
:103A9000F0B557464546DE464E46E0B50D006F0090
:103AA00001687F19033F0400C85D83B00192CA1901
:103AB000002850D043001B18033BCB185E78B44657
:103AC000002E1AD1019E002E42D0E67B002E04D09B
:103AD00073009B19CB18033B5D70A37B002B00D1B7
:103AE000A573E57300282FD10023537003B0F0BCF9
:103AF000BB46B246A946A046F0BD72006244033AF6
:103B00008A185178884600215170894659703200D0
:103B100001002000FFF72CFF43468246002B07D010
:103B20005B0021684344033BCB185A78002A16D126
:103B3000424651462000FFF71BFF2168019BCA192E
:103B4000002BC2D10028CFD043001B18033BCB1859
:103B500000219970C8E7019B002BB6D1C4E7500043
:103B600080180338091848788346484648705870CA
:103B700041462000FFF7FCFE594680462000FFF733
:103B800041FF414602002000FFF7F2FE8046CFE7EA
:103B9000F0B557464546DE464E46E0B583B0019146
:103BA000457B04006F0000687F19033FC15DC219A7
:103BB000002952D04B005B18033BC3185E78B44613
:103BC000002E1CD1019E002E44D0E67B002E04D096
:103BD00073009B19C318033B5D70A37B002B00D1BE
:103BE000A573E573002931D1002328005370617358
:103BF00003B0F0BCBB46B246A946A046F0BD720079
:103C00006244033A82185078804600205070814602
:103C1000587032002000FFF7ABFE43468246002B6F
:103C200007D05B0021684344033BCB185A78002A35
:103C300017D1424651462000FFF79AFE019B010032
:103C40002068C219002BC0D10029CDD04B005B18D1
:103C5000033BC31800209870C6E7019B002BB4D12A
:103C6000C2E7500080180338091848788346484650
:103C70004870587041462000FFF77AFE594680464A
:103C80002000FFF7BFFE414602002000FFF770FE54
:103C90008046CEE770B5050000292CD0437B8B42CF
:103CA0002ED04C0000686418033C0419A278002A46
:103CB00021D053009B18033BC25CC6188A4202D134
:103CC0001BE0002A08D053009B18033BC3185A7806
:103CD0008A42F6D162785A70002301222800A3702C
:103CE0006370FFF7D5FE697B02002800FFF740FEF6
:103CF0006873012000E0002070BD63783370EBE74B
:103D000001221900FFF7C4FEF2E7C04610B50C20EF
:103D100082B000F0B5F9FEF7D9FD002810D08B4B2A
:103D20008B488B498B4A186059609860D96018613C
:103D300059619861D961186259625A6202B010BD26
:103D4000854CA06700F0F2F90122844B1A60636C85
:103D5000012BFCD10322824B1A607F4A936B012B0B
:103D6000FCD1013301217F4A7F480093043300F0E6
:103D700037F905237D4A009301217D4800F030F991
:103D80007C4B5A68FF2A02D8802252005A60802257
:103D9000734B6E4C12011A602169002907D06069CB
:103DA00001F07AFE013043001B18033BFDD2E022F4
:103DB000704B714819680A4002600222196851402C
:103DC00001320A40042102609A681142FCD080212D
:103DD0006A4A09011160802252005A60684B2361CF
:103DE000684B5968FF2900D85A60032201215B4BB8
:103DF0001A60644A93681942FCD0E02310680340BB
:103E000061480360126803234A40022113405D4A5F
:103E1000036093681942FCD080215C4B0901196052
:103E200080215B4B4900516063615A4B5A68FF2AFD
:103E300000D859608022584B12011A60E1690029AC
:103E400007D0606901F028FE013043001B18033BD6
:103E5000FDD2E0234F4A11680B4050490B6080218E
:103E60004F4B090119608021394B49005160E361D2
:103E70004C4B5A68FF2A00D8596080224A4B1201E5
:103E80001A60216A002907D0606901F005FE01303F
:103E900043001B18033BFDD2E023424A11680B404C
:103EA00042490B608021424B0901196080235B006D
:103EB00053608022264BD20223623E4B59689142C6
:103EC00000D25A6080223C4B12011A60616A0029BC
:103ED00007D0606901F0E0FD013043001B18033B8F
:103EE000FDD2E023334A11680B4034490B60802136
:103EF000334B090119608023DB025360154B636269
:103F0000304B5A68FF2A02D8802252005A60802221
:103F10002D4B12011A60A169002907D0606901F0D8
:103F2000BBFD013043001B18033BFDD2E023254AB3
:103F300011680B4025490B608021254B0901196050
:103F400080235B005360124BA361F7E6C00F002093
:103F5000006CDC021BB70000008000403CB0004059
:103F600030B00040002F685900800240008C864726
:103F700000C00240308000403090004030A000403F
:103F8000001BB7003C8000403C9000403CA000403B
:103F9000405973075480004054B000405490004092
:103FA00054A000406080004060B00040609000403D
:103FB00060A000406C8000406CB000406C900040FD
:103FC0006CA000404880004048B00040489000404D
:103FD00048A00040014B8000C0587047C00F00202F
:103FE000F8B5040021481D0017000E0001F054FD33
:103FF0000100380001F050FD069B29041B03194302
:104000002368002B20DB1A4B1A4DE21853425A4109
:1040100080235B019C461203174B62441A60174BC6
:104020001A601700AB689F43FBD1C022231D920189
:104030001A4321232660A06013602368002BFCDA5A
:104040000823E1601360F8BD3F2322681340B342A8
:10405000D9D1A3681B051B0D8342D4D1EE22E3689E
:10406000D20213408B42CED1EDE7C046001BB70011
:104070000040FDBF00C0004000E0004000F00040F4
:104080008023024A9B000343D362704700800540AF
:1040900010B580241C4BE4051C6000281AD00123B5
:1040A0001A4C18431A4BDC611A4C44401C6259628A
:1040B00098628021144BC905196017481749086098
:1040C000E021C9041960002A07D18022144B12068E
:1040D0001A6010BD0E4BD861EBE753019B1A9B0091
:1040E0009A18802312015B049A4209D213000D49E9
:1040F0000B60074B5A608022094BD2051A60E8E733
:10410000094B1A00F3E7C04600B00540D3C007B022
:10411000008005402D3FF84FFCFF010008200140C2
:1041200000A00540081D0020FFFFFF00AA23064A4B
:104130001B0113602F230549D360054B1960536899
:10414000002BFCDA7047C0460040024000B0FA0085
:10415000006002402B4B2C4A70B51A602B4A2C4B46
:104160002C491A6014008B689C43FBD12A4D2B4EBE
:10417000B54208D2013E761BB60808CD9847230009
:104180000134B342F9D1FFF7C1FD254A204B1A6033
:10419000204A9368DB43DB01DD09002BF9D1402283
:1041A000204B214E214C9A675A671A67DA66B4424F
:1041B00008D2236820000834002B1FD0FEF7F6FE3B
:1041C000B442F6D31A4C1B4EC022B168200002F054
:1041D00037FBB460FEF7F2FBFEF7AAFEFFF79AF892
:1041E000154C164EB44208D2013E361BB60808CC18
:1041F00098472B0001359E42F9D170BDFEF7C8FEED
:10420000D5E7C04600E00040BFCDFBFEFE7F3C008E
:1042100000F0004000C00040A80F0020B80F0020B0
:10422000FFFFFF0100F00140A80F0020A00F0020B9
:104230000000002000ED00E0B80F0020C00F0020BB
:1042400000BEFDE710B5FFF7FBFFC0460FB400B599
:10425000084883B002F0C2FB049B002B07D005A9DD
:104260001800019101F09EFB034802F0B7FB01200A
:10427000FFF7E6FF009400101094001010B50148FD
:10428000FFF7E4FF149400107047C046F8B5574696
:104290004546DE464E46E0B598460A9B06009A46DD
:1042A0000D9B0F00934615009B0710D10B9B0C9A9A
:1042B00093420CD213005C460B9A9D1A5D44220077
:1042C0004346013439002020B047A542F7D10B9C6A
:1042D0006319002C09D01D0053462A1B013C185DB0
:1042E00039004346B047002CF6D10D9B9B070ED5F5
:1042F0005B46EC1A0C9BA34209D999462A00434617
:10430000390020200134B0470135A145F6D82800F6
:10431000F0BCBB46B246A946A046F8BDF0B54F4634
:104320004646D646C0B584B098460EAB1B78944638
:104330009946129B0D9C109F119E9A0724D4002E23
:104340006AD1BC4220D201221A409246202C00D1D0
:10435000D2E00C9A551E302201E0202C30D00134DE
:104360002A55A742F9D85246002A0DD0B4420BD2A2
:104370000C9A551E3022202C02D126E0202C63D02E
:1043800001342A55B442F9D1DA0634D55A0564D439
:10439000002C5ED10F9A102A00D197E0022A00D19A
:1043A000A8E030220C9C227001244A46002A5ED1EB
:1043B0005A0700D483E02B220C9D2A5501341CE0BF
:1043C0005246002A02D0202E3ED92024DA0614D5E7
:1043D0005A0512D4202F00D1A1E0202E3DD1202655
:1043E0001F2234000F9D102D00D18BE0022D52D0E2
:1043F00030250C9FBD54202CD7D103930C9B6246D3
:104400000093029643460194FFF740FF04B0E0BCDE
:10441000BA46B146A846F0BD012215001D40AA4685
:104420001A4229D04A46002A39D10C321A4236D1D2
:10443000BC429BD2202C00D08BE710221A40202EA9
:10444000C3D8002AA2D1D8E72024DA06D5D55A0548
:1044500003D4A74225D0B44223D00F9A102A25D0E6
:10446000022A14D0202CC8D022000134C0E72D220B
:104470000C9D2A550134C0E7BC4200D384E7202CB0
:1044800000D066E710221A40002AE0D1B5E7202CC0
:10449000B3D02200013462250C9FBD54E2E7013EF7
:1044A000C6E7621E012C00D174E79BE79A0616D47A
:1044B000202CA2D078220C9D2A550134D2E71A076D
:1044C0009BD520220C9D2A55013496E79A060FD4DD
:1044D00078220C9C227030226270022465E7202C26
:1044E00000D18AE758250C9A121915700134B9E7E2
:1044F0005822EEE76222ECE7102255461A40002DC2
:104500009FD1C1E7023C9D0604D478250C9F3D5500
:104510001400A9E758250C9F3D551400A4E71F225D
:1045200060E7C04610B5002800D110BD02F00AFABD
:10453000FBE7C0460B0010B5002802D049681B6895
:10454000984710BDF0B557464E464546DE46E0B5A5
:1045500099B08246894690460893229A239B100080
:10456000190001F05AFD002800D0CDE022982399CF
:104570000122D94B524201F04BFD002800D0C3E08C
:10458000229823990122D54B524201F033FD002895
:1045900000D0B9E0229823990022002301F02AFDDF
:1045A000002800D0F1E1229E239F8023269ADB0081
:1045B0001A400D92269A1A4201D106232493802391
:1045C000269A1B011A403B0093460996334300D0BC
:1045D000B3E0002A00D0C2E1002300240A930B9428
:1045E000002304250993259B0024AB4200D95C1BC2
:1045F0000223269A1A400C92269A134203D06B4249
:104600006B415B421C40099B002B07D00A9A0B9B15
:104610003000390001F08DFC06000F00229823992C
:104620000022002301F0E6FC002803D080210906C7
:104630007B181F00269AAA4B009601971340089EEC
:104640000493249B03940293424633004946504608
:1046500000F0AAF90400002D67D02020269A4946D0
:10466000024013005A4253415B42621C18400A92B6
:10467000330022004530D047099A6F1ED317D41853
:104680005C40D30F9B46002501E0202D13D008AAE3
:1046900094461F23200063440A2101355E1901F06E
:1046A000FBF93031317020000A2101F0F5F92600C4
:1046B0000400092EE9D805230693002304930A3346
:1046C00003935B46089E029310AB0A9A00934946F7
:1046D0003300504605970195FFF720FE0C9A040021
:1046E000002A22D04246851A259AAA421DD9B046F0
:1046F0005746160022004346494620200135B84758
:104700000134AE42F6D810E0269B42460493259B26
:1047100049460393249B50460293229B239C00937B
:104720000194089B00F040F90400200019B0F0BC8F
:10473000BB46B246A946A046F0BD6A4B78009C46EF
:10474000400D604401F07CFC674A684B01F00FFCAF
:10475000674A684B01F0E4FB674A3B031B0B1A43B3
:1047600004000D0009981100644B002201F0CFFBFA
:10477000634A644B01F0FBFB02000B0020002900A0
:1047800001F0CEFB01F074FC099001F059FC5E4A87
:104790005E4B04000D0001F0EAFB00225C4B01F0CF
:1047A000BFFB01F065FC5B4A5B4B29000C902000CD
:1047B00001F0DDFB04000C980D0001F041FC574AAC
:1047C000574B01F0D4FB02000B002000290001F040
:1047D0009EFB04000D0002000B000A940B9501F0F3
:1047E000C6FB04000D000A980B9902000B0001F0B3
:1047F00097FB00220E900F914A4B2000290001F0F8
:1048000098FB0022484B01F08BFB02000B002000BC
:10481000290001F08EFB0022444B01F081FB0200D5
:104820000B002000290001F084FB0A9A0B9B0D006D
:1048300080210400C905002001F069FB02000B0083
:104840002000290001F06CFB02000B000E980F996C
:1048500001F06FFB0022284B01F062FB344B0C9CF3
:104860009C4664442305002201F081FB04000D00F6
:1048700002000B00300039000A940B9501F0BAFBDE
:1048800000285DD123002A00C625099963318D4295
:10489000AD4159466D420435002900D1A3E61343CA
:1048A00063D030003900234A234B01F0A9FB0028D4
:1048B00007D0002230003900204B01F09BFB00287C
:1048C00053D1249B002B00D18DE60D9B5A1E9341A2
:1048D000249AD31A249386E6FFFFEF7FFFFFEFFFB2
:1048E000FFF7FFFF01FCFFFFFB799F501344D33F0D
:1048F000B3C8608B288AC63F0000F03F0000F83F35
:1049000061436F63A787D23F71A379094F930A4030
:104910000000E03F1655B5BBB16B0240EF39FAFE1F
:10492000422EE63F00002C400000244000001840CA
:10493000FF0300002D431CEBE2361A3F80842E411A
:10494000099B0022013B09932000164B290001F02E
:10495000F0FA0A00010003000A910B9294E7002389
:1049600000240A930B9400230993249A099B9A42EA
:1049700014DDD31A013B24938023269ADB001A43CB
:1049800000230025269209932DE6802212069446E4
:10499000229B1E00239B63441F0006E600232493F2
:1049A000EAE7C04600002440F0B54546DE464E46E4
:1049B0005746E0B595B08B46904699461E9A1F9B88
:1049C0000A9019001000209D01F027FB002800D05C
:1049D000B0E11E981F990122C74B524201F00AFB19
:1049E000002800D037E11E981F990122C34B524284
:1049F00001F00EFB002800D0A7E01E981F990022AE
:104A0000BF4B01F005FB002800D088E01E981F99DD
:104A10000022BC4B01F0EEFA002800D07FE01E9887
:104A20001F990022002301F0E5FA002800D0FAE0E7
:104A300000230B938023229C229ADB001C401A4205
:104A400000D102E1092D00D87EE106A98C462C0098
:104A5000172200233021093C62440133D154EF1A5C
:104A6000202B00D132E1A342F7D10022A44B0692C1
:104A700007931E981F9901F0FBFA050001F0E0FA78
:104A800002000B001E981F9901F041FA069A079B3D
:104A900001F06DFA0890099101F00EFB060001F09B
:104AA000CBFA02000B000898099901F030FA0022B5
:104AB000954B0890099101F0ABFA002800D1D2E0A3
:104AC0000136300001F0B8FA069A079B01F098FA17
:104AD000002801D000260135AA46002F00D098E01A
:104AE000280001F0ADFA02000B001E981F9901F09A
:104AF0000EFA854B002206000F0001F07BFA0CAB8A
:104B00009A46002845D10022300039007E4B01F042
:104B10007FFA00283DD1EB073BD5013539E0229BD8
:104B200042460493219B594603930A981E9B1F9C5F
:104B30000295009301944B46FFF704FD15B0F0BCBD
:104B4000BB46B246A946A046F0BD229B5B0767D490
:104B500003226E4B229901920391219902910093B5
:104B600042464B4659460A98FFF790FBE6E706AAED
:104B700094461723280063440A2101341E1900F0CB
:104B800063FF3031280031700A2100F05DFF051EFF
:104B900076D0202CEBD10323229A1340012B1DD178
:104BA000219B002B1AD00B9B002B00D0BBE0229A3C
:104BB0000C33134200D0B6E0219BA34200D887E01B
:104BC00006AB9C4617223023624404E0219901344D
:104BD00013558C4259D0202CF8D12024229B0194CB
:104BE0000393219B02935346B9E706AA94461723E1
:104BF0000A216344300001341D1900F04DFF3031AB
:104C0000297030000A21013F00F046FF092E46D9E5
:104C10000600202CE9D155460CAB20249A46B8E773
:104C200004223B4B96E71E9A1F9B0020002101F0B7
:104C30006EF901230B938023229C229ADB001E90A5
:104C40001F911C401A4200D0FCE60022314B06277F
:104C5000069207930DE7229B0393219B0293042363
:104C600001932D4B7BE7002208980999264B01F010
:104C7000C1F9002800D02FE7002E4FD101362BE7D5
:104C80000323229A1340012B68D0202CA6D00B9B23
:104C9000002B1FD02D235246135501349EE7554655
:104CA000202CB9D030223B19002F4BD0172006A959
:104CB000013409180A55202CAED09C42F6D10CAA1A
:104CC00092462E2251465C1CCA5462E72024CCE650
:104CD000202C83D0229B5B0708D4229B1B0700D487
:104CE0007CE7202352461355013477E72B235246A5
:104CF0001355013472E7C046FFFFEFFFFFFFEF7F60
:104D000065CDCD4165CDCDC10000E03F28940010B8
:104D10002094001080842E4130940010F30700D4BA
:104D2000DAE60136D8E6219B013B2193A34200D964
:104D300046E7AAE7229B0393219B02930323019357
:104D4000084B0CE72300BAE7074BEA009B185C68A6
:104D50001B682F000693079400248AE6219B002BF2
:104D600093D020E72C940010D8950010F0B545465C
:104D7000DE4657464E46E0B5A1B01D002A9B904640
:104D80000B93D04AD04B83468A461A60002900D143
:104D9000A4E1002328789946002800D1A6E1CB4B56
:104DA0005E460993CA4B4C46D34647460D930AE0EC
:104DB000631C984622003B005946B0474446287879
:104DC000002800D1CDE001352528F1D108239A46ED
:104DD000043B9946023B9846013B00229C460C94BA
:104DE0002878691C0300203BDBB2102B03D8099CF8
:104DF0009B00E3589F460300303B0C9C0A92092B12
:104E00007FD9002398462A2800D1C1E000239A4682
:104E10002E2800D190E00300683BDBB2122B1ED895
:104E2000AC4A9B00D3589F4663460D001A43D7E710
:104E300043460D001A43D3E74B460D001A43CFE714
:104E400010230D001A43CBE753460D001A43C7E762
:104E500080235B000A9A68781A430A9201310D0098
:104E600067280AD82428A3D90300253BDBB2422BAC
:104E70009ED80D9A9B00D3589F4601006939C9B24C
:104E80000F2995D801238B409C46934B9946634646
:104E90004A4613400C9362464B461A4200D05EE2EB
:104EA0000A2900D124E1072982D10B9B02CB984625
:104EB000002900D19BE121200A9A0243914610ABC0
:104EC0009C461F220F23404662440B959C46A046F9
:104ED00015000C9B0A9002E0202B0CD011006446B8
:104EE0000C4020003730092C00D807380133E85433
:104EF0000A090F29F0D80C930A9B44460B9D98464B
:104F000085E1002398460A9B45469C4600E0013116
:104F1000AB005B195B001D180878303D0300303B87
:104F2000092BF4D963460A930023A8469A460D003C
:104F300001312E2800D06EE780200A9AC00002437B
:104F40000A9230225242944668780B0084446246AA
:104F5000092A00D82EE12A2800D13DE10D000131B7
:104F600059E7DA46A146B346B846C84503D80123F7
:104F70005B424344994643464A4651460020D8473F
:104F8000200021B0F0BCBB46B246A946A046F0BD09
:104F90000B9B04CB9046002A04DB68780B930D0032
:104FA000013133E70A9A283802430A9242465242B4
:104FB000687890460D000B93013127E7672800D1F0
:104FC000C7E1472800D114E2452800D116E20A9A29
:104FD0000721049242460B9B0392073352468B43B0
:104FE000190002920CC93000009201930B9122002B
:104FF0003B005946FFF7A6FA0400E0E680239B0039
:1050000028E76878682800D11BE280230A9A0131DA
:105010001A430A9223E768786C2800D109E28023BA
:105020000A9A5B001A430A92013118E7462800D118
:105030008AE10A9A0721049242460B9B03920733A6
:1050400052468B43190002920CC930000092019322
:105050000B9122003B005946FFF7A6FC0400AEE688
:10506000631C984622003B0059462520B047444621
:10507000A5E60B9B04330C93631C99460A9B9A0785
:1050800000D4E7E10B9B2200187859463B00B0475B
:1050900043464444012B00D8B8E22B00B846250013
:1050A0005F464C4699462200434601343900202091
:1050B000B047AC42F7D12C00BB464D4647460C9B4F
:1050C0000B937CE66D4D0010041D002038940010F9
:1050D000C89400107C94001041900000DC4B2878AC
:1050E0009B4600239946002800D058E600243CE760
:1050F0000B9B02CB12930B789C4618005346002B57
:1051000000D09CE0002812D002235B420133994674
:1051100089444A460B008946110001E08B4203D0C6
:105120005A780133002AF9D149465B1A0C9380233F
:10513000DB0099460A9A13400B934B461A4204D05F
:105140000C9B534501D953460C93022399460A9A66
:1051500013400A934B46134200D1B5E16346002B3E
:1051600000D197E10B9B002B00D14CE1D1460B1BEA
:105170009A462B00A1444D462200B9465F469B4605
:1051800009E04B463900541CB0475346185D0028CF
:1051900000D158E122009542F3D15B46BB464F4611
:1051A000A9461D004C460A9B002B00D072E1129BC1
:1051B0000B9304E655460A9AA900491949000133A0
:1051C0000D181878303D010030390929F4D9AA4664
:1051D0000A921D00591C1EE60B9BA87804CB0235D1
:1051E000D143C9170A4092460B93691C13E60A9BE8
:1051F00010211A008A431000113108438146802093
:105200001A00C00002401100034200D157E64B468D
:105210000822069353460592083203920022049313
:105220000C9B0292019318AB2200009359463B005D
:105230003000FFF773F8434604000B93BFE50028E6
:1052400000D174E75346013B60E7622800D1DFE1FB
:10525000582800D1ECE10A9980230A00DB001A40AB
:1052600010000A00194200D1BDE111239A430C92AB
:105270000C9A802311009B0019408C461A4200D0E2
:1052800046E1802311005B00194089460B990431E7
:105290000A911A4200D08FE213005B0600D59EE10E
:1052A00013001B0600D426E30B9B00229B5ED9173C
:1052B0005A184A4092B2D90F0B91002B00D177E2D5
:1052C000100010AA944642461F231292524663448D
:1052D000AA4614944D460400B946B0461F001392E6
:1052E00001E0202D0FD020000A2100F0D5FB013570
:1052F0007E193031317020000A2100F0CDFB2600EC
:105300000400092EEDD8129B46469846139B4F4643
:10531000A94655469A46149C0C9B06934346059312
:10532000534604930A2303930B9B02934B4601932A
:1053300018AB2200009359463B003000FEF7EEFF09
:105340000A9B04000B933AE520230A9A1A430A9217
:105350006FE680230A9A1B011A430A9237E67828DF
:1053600000D0AFE10A9880230200DB001A40110050
:105370000200184200D1D0E20D239A4310000333FB
:105380000A93802302009B001A409446184200D0E2
:10539000ACE1802302005B001A4091460B9A043274
:1053A0000C92184200D04AE2430600D493E20B9BD1
:1053B0001B780893002B00D04BE110339843002951
:1053C00000D146E100239946434605935346049392
:1053D0000A9B06900393002302934B46019318AB5C
:1053E0002200009359463B003000FEF797FF04006F
:1053F00065E680230A9A1B011A430A9220230A9A1F
:105400001A430A92E3E50B1B9A460C9B99462B0024
:105410005D469B4622003B002900B04753460134BD
:10542000185D0028F6D14B460C935B46AB461D0039
:10543000B9E6C0239B000A9AA8781A430A92E91C8D
:105440000DE5C023F7E75D46BB464F46ABE6C046D9
:10545000894200104346012B00D8D1E0631E43442B
:10546000B9461D005F46A2468B4622004B460134DA
:1054700039002020B047AC42F7D15D46BB464F46CD
:10548000A14654460B9B4A46187859463B00444473
:10549000B04714E60C9BA146984500D887E64444E3
:1054A000E41A2B00B84625005F464C469946220078
:1054B0004346013439002020B047AC42F7D12C00DC
:1054C000BB464D46474672E60C98804500D81CE224
:1054D00043461A19131A99462B004D46B9465F46A2
:1054E0009B460C9122004B46013439002020B047E6
:1054F000AC42F7D143460C9901330C930B785D46CF
:105500009C46BB464F466046002800D02AE64EE641
:1055100007220B9B07339343013294469C44624617
:105520000B920CCBD90F0A91110019435FD0D917F8
:105530001191109151400E91119959400F910E986F
:105540000F99109A119B801A99410E900F9110AAF1
:105550000023944642469946129252461F336344B2
:10556000B046AA464E461494B9460E9C0F9D1F00A5
:10557000139201E0202E10D0200029000A220023DF
:1055800000F0C8FA013630322B00BA550D00220067
:105590000400002BEED1092AECD8129B4F46B146ED
:1055A00046469846139B0E940F9555469A46149C72
:1055B0000C9B069343460593534604930A23039397
:1055C0000A9B02934B46019318AB22000093594665
:1055D0003B003000FEF7A2FE0400FFF7F0FB0B9B40
:1055E0001B781A0067E610239A430C9240E60023CA
:1055F00099460028DCD1002200230E920F93A6E7E3
:105600000B9B2200187859463B00B0474C4656E5A4
:105610000A9880230200DB001A401100184200D1D2
:105620005FE102000D239A430B3B10000A93A8E6AA
:105630000A9880230200DB001A4011000200184281
:1056400000D166E10D2320209A43033310430A93CF
:1056500097E66123820600D54123DBB20A3B0B9318
:10566000434610A91F228C46129353466244AA4611
:10567000149415974C468046B14617000A9E089D23
:10568000139308E03033DBB201343B55B5420ED3FF
:10569000202C0CD005003100280000F0FDF9CBB221
:1056A0000929EFD90B9A94466344DBB2ECE7129BCD
:1056B00040469846139B4E465546A1469A46149C32
:1056C000159F81E66F2800D037E10A990C230A0064
:1056D0009A43802310000A00DB001A4011000A9A46
:1056E0001A4200D021E108230A934AE60B9AFA3BBA
:1056F000FF3B07329A4301339C46944463460B9325
:10570000136852680893134312921A1E05D100239E
:10571000103299469043002941D16122810600D57B
:105720004122D2B20A3A0C924246002310A91392A7
:1057300052468C46994614921F330A9A6344AA46ED
:10574000159417964C469046B946089E1F00129D28
:1057500016900AE03032D2B2002301343A55AB42FF
:1057600011D0202C11D006000D004246002330003D
:10577000290000F0CFF9D2B2092AEBD90C9B9C4644
:105780006244D2B2E8E7B045EBD9139B5546984640
:10579000149B4F469A46A1461698179E159C434661
:1057A0000593534604930A9B06900393002308E74E
:1057B000002800D0B0E584E50B9B1B68DA0F1100D0
:1057C000002B00D194E0DA179818504010AA9146A7
:1057D00042461F23129252464B44A046AA461497B3
:1057E0000400B14665461F000B91139201E0202D85
:1057F0000FD020000A2100F04FF901357E19303119
:10580000317020000A2100F047F926000400092E1B
:10581000EDD8129B444698460B9BAC461900139B4F
:1058200055464E469A46149F0C9B0291069343465A
:105830000593534604930A230393634677E50B9B32
:105840001B680893002B03D110339843002937D1EC
:105850006123820600D54123DBB20A3B0B9343460A
:1058600010A989461F22129353464A44AA46B146BC
:1058700014941597644680461700089D0A9E13935A
:1058800008E03033DBB201343B55B5420ED3202C57
:105890000CD005003100280000F0FEF8CBB2092939
:1058A000EFD90B9A94466344DBB2ECE7129B404677
:1058B0009846139B55464E469A46A446159F149CFF
:1058C00043460593534604930A9B06900393002393
:1058D0000293634682E5030613D50B9B1B8808934E
:1058E00068E502000C239A430A3B10000A9348E53E
:1058F000002899D16AE70B9B1B68D9175A184A40B0
:10590000D9E40B9B1B68089354E5030001330C9307
:10591000F9E520230A9A1A430A920C230A9A0021D5
:105920009A43043310000A932BE50A9B0C93082337
:105930000A930D230C98984323E510230A9A9A435F
:105940000C9269280AD10A9980230A00DB001A40C8
:1059500010000A00194200D18AE486E40A991C2347
:105960000A009A43802310000A00DB001A4011004D
:105970000A9A1A4202D10A230A9302E50A230A93D9
:10598000D7E7C04600B585B003910121029000938E
:10599000034813004A4202A9FFF7E8F905B000BD29
:1059A0003545001010B5094A0300146884B0002C76
:1059B00008D0012200910648524203A9A0470120C5
:1059C00004B010BD01F00AF80020F9E7041D002022
:1059D0002545001001480421014B1847400F0020C5
:1059E000055A0010142310B50100188804331B88D1
:1059F000984710BD162310B50100188802331B8884
:105A0000984710BDF8B54746CE4680B50F1E19D051
:105A100014239946043304000025012698464B467A
:105A20001888434621681B88984701C4431E984143
:105A3000013540420640AF42F1D13000C0BCB9460A
:105A4000B046F8BD0126F8E7124A936F9B0815D2BD
:105A50009066D166002905D0FFE7FFE7FFE7516FA9
:105A6000106F704704B580210906C2175140002805
:105A700000D0C84303F020FB002104BDF0B5146E34
:105A8000556E576F166FFFF7E3FF1466556657673D
:105A90001667F0BD000000D0114A936F9B0813D227
:105AA00010665166002905D0FFE7FFE7FFE7516F59
:105AB000106F704704B5002801D00020C04303F0E8
:105AC000FBFA002104BDC046F0B5146E556E576F49
:105AD000166FFFF7E5FF1466556657671667F0BD4A
