:020000041000EA
:1000000000B5324B212058609868022188439860DF
:10001000D860186158612E4B002199600221596106
:100020000121F02299502B49196001219960352056
:1000300000F044F80222904214D00621196600F024
:1000400034F8196E01211966002018661A6600F04E
:100050002CF8196E196E196E052000F02FF8012189
:100060000842F9D1002199601B49196000215960AB
:100070001A491B48016001219960EB211966A021F2
:10008000196600F012F800219960164914480160C1
:100090000121996001BC002800D000471248134993
:1000A000086003C880F30888084703B5996A0420EC
:1000B0000142FBD001200142F8D103BD02B5186610
:1000C0001866FFF7F2FF186E186E02BD00000240BE
:1000D000000000180000070000035F00212200005C
:1000E000F4000018222000A00001001008ED00E03C
:1000F00000000000000000000000000074B24E7A12
:1001000000200420F7010010C3010010C5010010F9
:10011000C1010010C1010010C1010010C101001097
:10012000C1010010C1010010C1010010C701001081
:10013000C1010010C1010010C9010010CB01001065
:10014000CD010010CD010010CD010010CD01001037
:10015000CD010010CD010010CD010010CD01001027
:10016000CD010010CD010010CD010010CD01001017
:10017000CD010010CD010010CD010010CD01001007
:10018000CD010010CD010010CD010010CD010010F7
:10019000CD010010CD010010CD010010CD010010E7
:1001A000CD010010CD010010CD010010CD010010D7
:1001B000CD010010CD010010CD010010CD010010C7
:1001C00000BE00BE00BE00BE00BE00BEEFF3058054
:1001D000103800BEF2EB88713C4A00105C4A0010F7
:1001E0003402001090A31AE700201F49086006C8D7
:1001F00081F3088810471D48006800282FD10DA4FE
:100200000ECC002902D000F012F8F9E71849194A7B
:10021000002000E001C19142FCD1174988471749ED
:1002200088471749884700BEFDE701C901C29A42C5
:10023000FBD370475C4A0010C0000020E00E002095
:100240007C58001000000420000004207C5800109E
:10025000001004200010042000000000704709482E
:1002600001F03EFE0047000008ED00E0000000D075
:10027000E00E0020641C00205D1D001069030010CA
:100280004D1E00105756000006005250ABB360538D
:100290000448001006005250861C03021448001047
:1002A000060052505422A29D1848001005005250DA
:1002B000DE65F4687C580010F8B5C046064807496A
:1002C000091A8B10C90FC91810B5491003D0044B77
:1002D000002B00D0984710BDE00E0020E00E00205B
:1002E00000000000054B10B5002B03D00449054861
:1002F00000E000BFFFF7E2FF10BDC04600000000B5
:10030000F01B00207047001010B502F037F81920DC
:1003100000F0C8F8D024802324069B0463620F20D9
:1003200000F0C0F880231B026362102000F0BAF8CE
:1003300080235B026362112000F0B4F880239B02EB
:1003400063620421122000F095F80421132000F0CC
:1003500091F8FF22034B5A625A62BF3A9A619A613E
:1003600010BDC04600000540F8B5DE46454657467C
:100370004E46E0B5D025FFF7C7FF2D0680239B042E
:100380006B619B4680231B02AB619A4680228023CF
:10039000012434495B0292026B61AA610B688946B1
:1003A000210099430B00FF222F49304F0B608846F4
:1003B00049463B682E4E53401B041B0C33600B68B0
:1003C000210099430B0041460B60FF23FA203A6855
:1003D0001B0453401B0C1B043360C00000F000FFE3
:1003E00049460B68210099430B0041467F220B6070
:1003F00049463B68FA2053401B041B0C33600B68D2
:10040000210099430B0041460B60FE233A68DB0351
:1004100053401B0C1B043360C00000F0E1FE594642
:100420008023A961514680225B02A961AB614B46E2
:100430009202AA6122001B68FA209A4313004246E6
:1004400013603B6880001B041B0C33604B461B6829
:100450009C4314603B681B0C1B04336000F0C0FE1F
:100460008CE7C046140005401410054020000540EC
:1004700020100540094A10B5944640248300634487
:100480001A68C00062408034144080225201134335
:100490001C60034B9C466044416010BD04C0014099
:1004A000004001400123D0228340120693629361F1
:1004B000094A40219446830063441A68C0004A40B8
:1004C000803111408022520113431960034B9C4636
:1004D000052360444360704704C001400040014070
:1004E000024B18688007C00F7047C04600C0064026
:1004F00070B5EFF3108C72B60D4D2B68002BFCD04D
:10050000BFF35F8F0724CB08C618C05C01230C40E3
:10051000A3401C000440034207D118433070BFF3CE
:100520005F8F2C608CF3108870BD100001F092FC7E
:100530002C0100D0F8B54746CE46884680B5EFF38B
:10054000108C72B6214D2C68002CFCD0BFF35F8F4D
:100550009A422CD8D4080727055D061901241740B4
:10056000BC402C421FD007210127894609E0D4084E
:10057000055D06194C4639001440A1400C00294283
:1005800011D001329342F2D201204042BFF35F8F7B
:1005900000220E4B1A608CF3108800280FDBC0BCC1
:1005A000B946B046F8BD254310003570EEE7BFF3FD
:1005B0005F8F00232B608CF310880120404243465C
:1005C000002BECD0089801F045FCC0462C0100D06F
:1005D0000021044B044ABFF35F8F02C39342FAD158
:1005E0007047C046000100D0800100D0044A107856
:1005F000431CDBB2172B00D9102313707047C04681
:10060000E80D002010B5064B064C82B001000093A7
:1006100018221F232000FFF78DFF02B010BDC04637
:10062000704700106C17002001238340002904D07C
:10063000034A1360034A13607047034A1360FBE7E1
:1006400080E200E000E100E080E100E0012383407F
:10065000014A13607047C04600E200E0084B1030CA
:100660009B688000C358002B07D0064A00209B1AC5
:100670002F229A424041C0B270470020FCE7C0469A
:1006800000ED00E0EC0D0020024B10309B68800074
:10069000C058704700ED00E070B50D00EFF3108614
:1006A00072B60F4A1368002BFCD0BFF35F8F0D4B5F
:1006B00010309B6884001B590B4A934203D09D4223
:1006C00001D001F0DFFB074B9B681D51BFF35F8F2B
:1006D000BFF35F8F0022024B1A6086F3108870BD53
:1006E000240100D000ED00E0CD010010F0B54E4631
:1006F0004546DE465746E0B583B006000091904679
:10070000EFF3108B72B6654A1368002BFCD0BFF371
:100710005F8F0025624B5D579A46002D00DA79E025
:1007200052466B005F4C5F19BF000193E319994675
:100730009B79103613705C4BB6009B6899590B1B64
:100740002F2B33D9594B994200D07CE0019B0237C3
:100750009C46574B6544AD006353564BE719043B29
:10076000DB1B554A1B055B0D651913436B80534B0F
:100770000121AB80FF23AB714346EB71009BAB6063
:100780004B460B431900484B9B689951BFF35F8F51
:10079000BFF35F8F0022414B1A608BF3108803B0C8
:1007A000F0BCBB46B246A946A046F0BD01200A00F7
:1007B0008243D379434549D9BC464746884607E03A
:1007C0005800C01880002018C179B94228D9020009
:1007D0000623D356002BF3DA9A46131D9C46414656
:1007E000B846374F484663460438C01A0005324BB6
:1007F000400D1843019B908095715A195346920001
:10080000A418A37143462F4AE371009B2260A7807E
:10081000A360B8E701F036FB002553465D577FE73C
:100820009A464146131DB84667469C469088043751
:1008300040050015E7196044C01BE0270005400D86
:100840003F020743CEE701F01DFB7FE713001E497F
:100850001B1B5B415943090D154BBD1CE353154B45
:100860006519043B5B1B1B05134D5B0D2B43AC460D
:100870004D466B8065460437131FE719DB1B1B05CC
:100880005B0D1D434B4699714146D97100999D807E
:10089000996049460B4B0143136074E7240100D073
:1008A0005D1C0020EC0D002000ED00E0CD010010EB
:1008B00000A1FFFF1C0E002000E0FFFF01BDFFFFB5
:1008C00001BD000001488047AAAA0000F0B5DE463D
:1008D00057464E464546E0B50C0083B0EFF310880E
:1008E00072B65D4A1368002BFCD0BFF35F8F5B4B81
:1008F0005B499A68030010339F00D5598D4239D067
:10090000A5424AD0574EAA1B2F2A33D8012292461D
:10091000824091464846544A126810400190484629
:10092000524A1060BFF35F8FEFF305829346002AAF
:1009300035D0934201D001F0A5FA2A0053469A43DC
:100940009068844208D175E04B005B189B00F31857
:100950009868A04234D01A00062151560029F3DAD3
:10096000844253D0019B002B26D04A46404B1A604C
:100970003D4B1A60394B9B68DD51BFF35F8FBFF36E
:100980005F8F0022344B1A6088F3108803B0F0BCEC
:10099000BB46B246A946A046F0BD0D00EAE72A00D4
:1009A00053469A4390688442D6D1062010561300CD
:1009B000002809DA0D0031E04A462C4B1A60D9E7CD
:1009C00006201856002822DB4200111889007418EE
:1009D0008A46A1689960E179D971062161569971B9
:1009E000002925DBA488F11A64052415544409194B
:1009F000E0240905490D24022143998013181D4A5A
:100A00009B001178F31899711070ABE713005946E9
:100A1000002914D1FF3191711749918015490A7845
:100A20009A71164A9B1B5B415A43120D0A7099E753
:100A30001349E2E70620105613000028C4DA114AD1
:100A40001149D21A083A5002400D014399800F49CA
:100A500052080A43DA8085E7240100D000ED00E067
:100A6000CD010010EC0D002000E100E080E100E08D
:100A700080E200E05D1C002001BDFFFFAAAA00008B
:100A800001BD0000260E002000F0FFFF00F8FFFF70
:100A900070B5EFF3058101240443EFF3108C72B6B7
:100AA000214A1368002BFCD0BFF35F8F1F4B05005A
:100AB0001F4AED1A6D416A43120D1E4D8900AE6842
:100AC00052B27658A6421CD00621595691421CD0EB
:100AD00012215956914222D01E215956914220D0BE
:100AE0002A2159560324914210D0134B19781A70B9
:100AF0008171BFF35F8F00220B4B1A608CF310885B
:100B000070BDAB680D4C5C50EFE700246100091923
:100B100089005B18FF21997109499980E5E7012453
:100B2000F4E70224F2E7C046240100D0EC0D0020D7
:100B3000AAAA000000ED00E05D1C0020CD0100101D
:100B400001BDFFFF054B064A1360064A1360536060
:100B50009360D3601361536193617047808080809C
:100B600000E400E004E400E010B5084B084C82B05B
:100B700001000093002205232000FFF7DBFC002882
:100B800001DB1F23181A02B010BDC0468C470010AD
:100B9000621C0020024B9C46614489000160704742
:100BA0004000003410B50400FFF720FD01002000D4
:100BB000FFF7F0FFFF232371BFF35F8F10BDC04627
:100BC00010B50400FFF712FD01002000FFF7E2FF5F
:100BD000FF23A380BFF35F8F10BDC04610B5040094
:100BE0000120FFF70FFD034BC3189B002360BFF3E9
:100BF0005F8F10BD40000034034B9C466144890068
:100C00000160BFF35F8F70474000003483680B487A
:100C100010B58446614462441201090159189B18B9
:100C20005C684A680120944201D802D00020C0B21A
:100C300010BD1A680B689A42F9D8F7E7FFFFFF0F5B
:100C40000A4B1968EFF3108072B60A68002AFCD0CC
:100C5000BFF35F8F1B68BFF35F8F00221A6080F3C2
:100C6000108840BF002000217047C0462C1C002087
:100C7000F8B5574645464E46DE46E0B598460CABBD
:100C80001C780DAB1B78070091469A460568002C2E
:100C90005AD1AC7B002C3BD0660029683619033E44
:100CA00089194B78AB73002B00D1EB7300238B7049
:100CB0004B700B702B4BE218BB6812019B184A4615
:100CC0001A6042465A600A9A9A600B9ADA600023C8
:100CD0008B704B700B706B7B9B46002B27D02200D8
:100CE0006B685946A86898475B465B005B442A6876
:100CF000033B002812D058469619B070D118D35C27
:100D0000002B00D073705B460C706B735C450FD08A
:100D1000F0BCBB46B246A946A046F8BDD3189C70AD
:100D20009119925D002A00D05A705B460B706C736B
:100D30004A464346387D00F09FFB051E0AD10E9BB4
:100D4000002BE5D01D70E3E7660029683619033EE5
:100D50008919AFE75346002BF1D12100386800F024
:100D6000A3FDECE7FFFFFF0FF0B5DE4657464E460A
:100D700045460023E0B58BB00893684B8200D458F9
:100D800000239B46099000F017FB02000B006068EF
:100D9000EFF3108A72B6564601680029FCD0B246BD
:100DA000BFF35F8F21684F7B8C46002F2ED0A56844
:100DB0005B49A94679180901894449460868496888
:100DC00005000E00AD1A9E41002E5FDD02000B00F3
:100DD000099800F051FB0023002299460023069257
:100DE0000793002398466368BFF35F8F5A461A60E3
:100DF0008AF310884346002B12D10028C3D10BB0D0
:100E0000F0BCBB46B246A946A046F0BD0023002276
:100E10009946002306920793002300209846E2E7B4
:100E2000089B494618023843C047626805000E0017
:100E3000EFF3108A72B61368002BFCD0BFF35F8FFC
:100E4000002E41DB2B00334302D02369002B56D107
:100E50002368D97B002905D01A6848004118521828
:100E6000033A57709A7B002A00D19F73DF73E268C0
:100E7000013FD35D0133D3555B4623616368BFF304
:100E80005F8F5A461A608AF310887CE7002E02D1E1
:100E9000002D00D09AE70021604600F083FC4B460D
:100EA0001A685B68069207934B469B6898464B46C8
:100EB000DB689946E368DB19013B1B7808931B024A
:100EC0000343236100208EE72369002BC0D0069ADC
:100ED000079B8021521BB34109068B4202D301229A
:100EE000104B524200210491013103914946019176
:100EF0004146200002970091FFF7BAFEBCE700F0E0
:100F00005BFA2A00330012184B41802109068B42FC
:100F1000E8D30122034B5242E4E7C046101C0020F4
:100F2000FFFFFF0FFFFFFF7F10B5144C6368002B1E
:100F300004D00A211248FFF72DFE10BD2300114AEC
:100F40001021206800F04AFB032000F029FA03205A
:100F500000F0FAFA03200C4900F048FAFFF746FBCC
:100F60000A4B9C4603232375D0231B061B68604451
:100F70006375074B80006060DC60DAE7340E0020A8
:100F80002C1C00200D0C0010690D001040000034D6
:100F9000101C002000487047340E0020F0B5574662
:100FA0004E464546DE46E0B585B0019310AB1B7852
:100FB0000600039300239A46984600927268EFF366
:100FC000108B72B61368002BFCD0BFF35F8F3568AF
:100FD000AC7B002C00D16EE067002B683F19033F0B
:100FE000DB195A78AA73002A00D1EA73484AA1187B
:100FF000B2680901521800980199106051600E9969
:1010000091600F99D16042469A705A701A706B7B4A
:101010009946002B00D16BE022006B684946A86816
:1010200098474B465B004B442A68033B002856D048
:101030004846D719B870D118D35C002B00D07B700C
:101040004B460C706B734C4553D0F3681B19013B36
:1010500018787368BFF35F8F42461A608BF310886D
:101060005346002B08D10002204305B0F0BCBB461C
:10107000B246A946A046F0BD039B002B46D00E9B6E
:1010800000200F99984703000B433FD004000D1E2A
:101090001ADA009A019B121BAB4100920193802245
:1010A0001206934204D301231A4C5B42009301942D
:1010B000039B9A4682E77368BFF35F8F1C608BF3D4
:1010C000108801204042D0E700F076F98022001914
:1010D00069411206009001919142E9D3E3E7D318E8
:1010E0009C70D119D25D002A00D05A704B460B700B
:1010F0006C73307D009A019B00F0BEF98246002897
:10110000A3D02100306800F0CFFB9EE70020ACE7C1
:10111000FFFFFF0FFFFFFF7F407D7047F0B504002A
:101120000D0006267642F717C64636196F4100B500
:1011300084B08F4214D811D000F03EF932003B0049
:10114000121A8B41002B15DC002B3ED02000290009
:1011500000F03CF904B080BCB846F0BD8642EBD943
:101160000026002700F028F932003B00121A8B41BC
:10117000002BE9DD002302930193154B320000930D
:1011800014483B00FFF70AFF0028DFDB00239846E6
:10119000BC46114A114F7B6A9C4504D8B96AB142DA
:1011A000D4D29C45D2D11168EFF3108072B60B688F
:1011B000002BFCD0BFF35F8F1368BFF35F8F4146F6
:1011C000196080F3108820BFE5E7002ABED0D1E780
:1011D000410C0010340E00202C1C00200040054063
:1011E00070B5060000F0E8F8FA2204000D000023B4
:1011F00030000021920000F02DFF8023001969418A
:101200001B06994202D3012002494042FFF786FFA4
:1012100070BDC046FFFFFF7FF0B5EFF30583CE46FC
:10122000474680B505000C0085B0002B12D02A4A35
:101230000020536AA34203D3926A0130AA4204D326
:1012400005B0C0BCB946B046F0BD1B1B5A1E934149
:10125000D8B2F5E7214E02930193214B020000938F
:1012600030000B00FFF79AFE031EE0DD20BF71681F
:10127000EFF3108772B60A68002AFCD0BFF35F8FC5
:10128000DAB29446FF2230681A40417B61450FD0A4
:1012900001688946510088464946904441440339D3
:1012A0008978002904D13269934209D1316107E07C
:1012B000F1681B0A8A18013A1278DBB29A4207D009
:1012C0007368BFF35F8F00221A6087F31088AEE760
:1012D000614600F0E9FAF3E700400540340E0020D3
:1012E000410C0010F0B5EFF30582D6464F46464656
:1012F0001000C0B51038EFF3108872B6214C236887
:10130000002BFCD0BFF35F8F0123190081401E4DDD
:101310001F006963AA461D4D29601D4D2E78AC46FD
:101320003500C5402F402B4215D053465F6A194BFC
:101330008500EB589F4218D36246174B8E43EB58FB
:101340001670BFF35F8F0022226088F31088002B95
:1013500006D0984704E0BFF35F8F276088F31088BA
:10136000E0BCBA46B146A846F0BD0C4B92009C4684
:10137000624413681360BFF35F8F0023236088F318
:101380001088EDE7280100D0004005403C70054082
:10139000611C0020381C002054160020D03F05405E
:1013A00010B5034B01001800024AFFF7A1F810BD69
:1013B0005C1C0020A8470010034B596A0A00986A79
:1013C000596A8A42FAD1704700400540064A536A7A
:1013D0009942FCD807D1044B02E05A6A914202D1EB
:1013E0009A6A8242F9D370470040054070B5040004
:1013F0000D00EFF3108672B61A4A1368002BFCD06A
:10140000BFF35F8F002D1BD02000FFF73DF9164979
:1014100081420AD02000FFF73FF901212000FFF7A9
:1014200003F90123A340114A1360114BA400E550B6
:10143000BFF35F8F00220B4B1A6086F3108870BDDC
:101440000121A1400A4BA200D5500A4B20001A7876
:101450008A4305491A70FFF739FA00212000FFF787
:10146000E3F8E5E7280100D0E512001038600540F8
:1014700054160020611C0020F0B54F46D646464663
:10148000C0B507002B4C616A0D00A66A616AA942CB
:10149000FAD18B4208D805D00120E0BCBA46B1464B
:1014A000A846F0BDB242F7D9EFF3108A72B62248CF
:1014B00001680029FCD0BFF35F8F0125BD401F49A3
:1014C0001C4C8846097889462943C9B28C46414656
:1014D00060460870391D890065630A511849B800D3
:1014E0004350216A0020294219D0616A0800A66A87
:1014F000616A8142FAD18B4219D801D1B24216D821
:10150000CC450BD00B4B1F221D625D6301233A407B
:1015100093400C4A136043464A461A700120BFF3B9
:101520005F8F0022044B1A608AF31088B5E7002011
:10153000F5E7C04600400540280100D0611C0020AE
:10154000381C002080E200E0EFF3108C72B60A49EC
:101550000B68002BFCD0BFF35F8F01238340074A49
:101560000748136202789A430270BFF35F8F00232B
:101570000B608CF310887047280100D000400540B4
:10158000611C002070B506000D00140000291DD05C
:10159000002A12D073688068984762006B001219A5
:1015A0005B193168033A033B002808D08A1895700C
:1015B000C818CB5C002B0BD10470280070BDCB1871
:1015C0009C7088188A5C002A05D105702000F5E718
:1015D00053700470F1E75A700570F7E710B5836037
:1015E0000023CCB243730133426004738373C4732A
:1015F0000068421C012C05D90133DBB213700332A1
:101600009C42F9D1FF230B405A00D318C018002385
:101610000338437010BDC04670B505000C1E07D0DE
:10162000630001681B19033BCB185A78002A01D1CB
:10163000200070BD500080180338091800204E7833
:101640004870210058702800FFF79CFF310004000B
:101650002800FFF7E1FF0600002C20D00028E7D08B
:10166000320021006B68A8689847720063009219E5
:101670001B192968033A033B002808D08A18947084
:10168000C818CB5C002B00D053700670D0E7CB1885
:101690009E7088188A5C002A00D05A70047034004A
:1016A000C6E7C046F0B557464546DE464E46E0B56D
:1016B0000D006F0001687F19033F0400C85D83B00F
:1016C0000192CA19002850D043001B18033BCB18C5
:1016D0005E78B446002E1AD1019E002E42D0E67BE1
:1016E000002E04D073009B19CB18033B5D70A37BC5
:1016F000002B00D1A573E57300282FD10023537070
:1017000003B0F0BCBB46B246A946A046F0BD72008D
:101710006244033A8A1851788846002151708946FC
:101720005970320001002000FFF72CFF434682462B
:10173000002B07D05B0021684344033BCB185A7849
:10174000002A16D1424651462000FFF71BFF2168B0
:10175000019BCA19002BC2D10028CFD043001B180F
:10176000033BCB1800219970C8E7019B002BB6D131
:10177000C4E7500080180338091848788346484663
:101780004870587041462000FFF7FCFE59468046DD
:101790002000FFF741FF414602002000FFF7F2FE64
:1017A0008046CFE7F0B557464546DE464E46E0B5A3
:1017B00083B00191457B04006F0000687F19033FEF
:1017C000C15DC219002952D04B005B18033BC318FE
:1017D0005E78B446002E1CD1019E002E44D0E67BDC
:1017E000002E04D073009B19C318033B5D70A37BCC
:1017F000002B00D1A573E573002931D10023280007
:101800005370617303B0F0BCBB46B246A946A04614
:10181000F0BD72006244033A82185078804600207E
:1018200050708146587032002000FFF7ABFE4346EF
:101830008246002B07D05B0021684344033BCB1852
:101840005A78002A17D1424651462000FFF79AFEE7
:10185000019B01002068C219002BC0D10029CDD006
:101860004B005B18033BC31800209870C6E7019B30
:10187000002BB4D1C2E7500080180338091848780B
:10188000834648464870587041462000FFF77AFE6C
:10189000594680462000FFF7BFFE41460200200067
:1018A000FFF770FE8046CEE770B5050000292CD00A
:1018B000437B8B422ED04C0000686418033C041913
:1018C000A278002A21D053009B18033BC25CC618A3
:1018D0008A4202D11BE0002A08D053009B18033B28
:1018E000C3185A788A42F6D162785A7000230122CE
:1018F0002800A3706370FFF7D5FE697B0200280003
:10190000FFF740FE6873012000E0002070BD63789F
:101910003370EBE701221900FFF7C4FEF2E7C0467F
:1019200010B50C2082B000F0AFF9FEF7D9FD002809
:1019300010D08B4B8B488B498B4A1860596098604C
:10194000D960186159619861D961186259625A6207
:1019500002B010BD854CA06700F0ECF90122844B69
:101960001A60636C012BFCD10322824B1A607F4A00
:10197000936B012BFCD1013301217F4A7F480093F7
:10198000043300F031F905237D4A009301217D489D
:1019900000F02AF97C4B5A68FF2A02D880225200B4
:1019A0005A608022734B6E4C12011A602169002923
:1019B00007D0606900F0C6FA013043001B18033BF2
:1019C000FDD2E022704B714819680A400260022281
:1019D0001968514001320A40042102609A6811429C
:1019E000FCD080216A4A09011160802252005A60AD
:1019F000684B2361684B5968FF2900D85A6003225D
:101A000001215B4B1A60644A93681942FCD0E023C1
:101A10001068034061480360126803234A400221B2
:101A200013405D4A036093681942FCD080215C4BEF
:101A30000901196080215B4B4900516063615A4B79
:101A40005A68FF2A00D859608022584B12011A6048
:101A5000E169002907D0606900F074FA01304300A1
:101A60001B18033BFDD2E0234F4A11680B4050493D
:101A70000B6080214F4B090119608021394B4900CF
:101A80005160E3614C4B5A68FF2A00D859608022AC
:101A90004A4B12011A60216A002907D0606900F0E0
:101AA00051FA013043001B18033BFDD2E023424AA8
:101AB00011680B4042490B608021424B09011960BB
:101AC00080235B0053608022264BD20223623E4B70
:101AD0005968914200D25A6080223C4B12011A6030
:101AE000616A002907D0606900F02CFA01304300D8
:101AF0001B18033BFDD2E023334A11680B403449E5
:101B00000B608021334B090119608023DB02536095
:101B1000154B6362304B5A68FF2A02D8802252006C
:101B20005A6080222D4B12011A60A169002907D04A
:101B3000606900F007FA013043001B18033BFDD237
:101B4000E023254A11680B4025490B608021254B75
:101B50000901196080235B005360124BA361F7E613
:101B6000E00E0020006CDC021BB70000008000408B
:101B70003CB0004030B00040002F68590080024067
:101B8000008C864700C0024030800040309000400A
:101B900030A00040001BB7003C8000403C9000405B
:101BA0003CA00040405973075480004054B00040AE
:101BB0005490004054A000406080004060B000405D
:101BC0006090004060A000406C8000406CB000401D
:101BD0006C9000406CA000404880004048B000403D
:101BE0004890004048A00040F8B5040021481D007E
:101BF00017000E0000F0A6F90100380000F0A2F96D
:101C0000069B29041B0319432368002B20DB1A4B76
:101C10001A4DE21853425A4180235B019C4612033D
:101C2000174B62441A60174B1A601700AB689F434A
:101C3000FBD1C022231D92011A4321232660A060FC
:101C400013602368002BFCDA0823E1601360F8BD01
:101C50003F2322681340B342D9D1A3681B051B0D53
:101C60008342D4D1EE22E368D20213408B42CED11C
:101C7000EDE7C046001BB7000040FDBF00C00040BC
:101C800000E0004000F000408023024A9B00034334
:101C9000D36270470080054010B580241C4BE405DA
:101CA0001C6000281AD001231A4C18431A4BDC611F
:101CB0001A4C44401C62596298628021144BC90539
:101CC0001960174817490860E021C9041960002A03
:101CD00007D18022144B12061A6010BD0E4BD8613A
:101CE000EBE753019B1A9B009A18802312015B04B7
:101CF0009A4209D213000D490B60074B5A608022AB
:101D0000094BD2051A60E8E7094B1A00F3E7C04611
:101D100000B00540D3C007B0008005402D3FF84F0C
:101D2000FCFF01000820014000A00540E81B002046
:101D3000FFFFFF00AA23064A1B0113602F2305495A
:101D4000D360054B19605368002BFCDA7047C0461E
:101D50000040024000B0FA00006002402B4B2C4AC9
:101D600070B51A602B4A2C4B2C491A6014008B68F2
:101D70009C43FBD12A4D2B4EB54208D2013E761B27
:101D8000B60808CD984723000134B342F9D1FFF7D4
:101D9000C7FD254A204B1A60204A9368DB43DB01CC
:101DA000DD09002BF9D14022204B214E214C9A67AE
:101DB0005A671A67DA66B44208D2236820000834EA
:101DC000002B1FD0FEF7FCFEB442F6D31A4C1B4E7C
:101DD000C022B168200000F0ADF9B460FEF7F8FB56
:101DE000FEF7B0FEFFF7A0F8154C164EB44208D22D
:101DF000013E361BB60808CC98472B0001359E42A1
:101E0000F9D170BDFEF7CEFED5E7C04600E0004038
:101E1000BFCDFBFEFE7F3C0000F0004000C0004054
:101E2000C80E0020D80E0020FFFFFF0100F0014087
:101E3000C80E0020C00E00200000002000ED00E0D1
:101E4000D80E0020E00E002000BEFDE710B5FFF721
:101E5000FBFFC0460FB400B5084883B000F006FA97
:101E6000049B002B07D005A91800019100F018F879
:101E7000034800F0FBF90120FFF7E6FFCC47001014
:101E8000DC47001010B50148FFF7E4FFE047001001
:101E900010B5002800D110BD00F09CF9FBE7C0464A
:101EA00010B5094A0300146884B0002C08D0012240
:101EB00000910648524203A9A047012004B010BD7A
:101EC00000F0D4F90020F9E7E41B0020911E001077
:101ED00001480421014B1847600E0020011F00102B
:101EE000142310B50100188804331B88984710BDCF
:101EF000162310B50100188802331B88984710BDBF
:101F0000F8B54746CE4680B50F1E19D01423994622
:101F1000043304000025012698464B4618884346A2
:101F200021681B88984701C4431E984101354042EF
:101F30000640AF42F1D13000C0BCB946B046F8BD52
:101F40000126F8E7114A936F9B0813D21066516679
:101F5000002905D0FFE7FFE7FFE7516F106F7047DB
:101F600004B5002801D00020C04302F0C1FB0021CD
:101F700004BDC046F0B5146E556E576F166FFFF76F
:101F8000E5FF1466556657671667F0BD000000D080
:101F9000132370B51D78012D15D010DD1D48FFF7F6
:101FA000A7FF1D4C01008022200000F0C3F8022D85
:101FB0002DD01A48FFF794FF194B186070BD194BCC
:101FC000154CA364F5E7174B134C23606360A360C3
:101FD000E36023616361A361E36123626362A362DF
:101FE000E36223636363A363E36323646364A364BF
:101FF000E36423656365A365E36523666366A3669F
:10200000E36623676367A367E367A364D1E7054BD0
:10201000A364CEE753440000101000204C330000AE
:10202000281C00202920001007B5604601880A0AF4
:102030000230DF2AFAD1C9B2820804D3028840886C
:102040000004104300E00068014A5050039007BDAF
:102050001010002051434343C9188C46110C83B221
:102060004B4310B4040C614392B280B250436243BC
:102070001C041B0C001910BC59411304120CC0188D
:102080005141614470470000132310B512481C7879
:10209000FFF72EFF0100012C0AD003DD80220F483C
:1020A00000F048F80E48FFF71BFF0E4B186010BDFC
:1020B0000A4C5422200000F03DF80B4B6365A365E9
:1020C000E36523666366A366E36623676367A367C6
:1020D000E3672362E361E5E7534600001011002047
:1020E0004C330000281C0020ED20001007B560468E
:1020F00001880A0A0230DF2AFAD1C9B2820804D361
:10210000028840880004104300E00068014A5050F3
:10211000039007BD1011002001480421014B18470E
:10212000700E0020011F0010014B1B6818470000B3
:10213000700E0020014B5B6818470000700E0020F5
:10214000F0B5C64600B5437D07000D001600002B14
:1021500038D0002A2EDD00216A1E90466A5C037D7D
:102160004C1C00200A2A0CD0A64216D043461B5D08
:1021700021000D3B5A4253416A5CDBB24C1C0A2AD7
:10218000F2D1002BF0D1814217DC022110483B68CC
:102190009847A64207D02000E8E7864203DD311ABF
:1021A0003B6828189847AD19013D2B780D3B5A42E2
:1021B00053413B7580BCB846F0BD091A3B682818EE
:1021C0009847E2E70368110028009847F2E7C04605
:1021D00048480010F0B5CE46474680B583B06B4600
:1021E0000600DD1D2870FFF7E7F800231A4A1218D1
:1021F0004B41802109068B4202D30122174B5242E8
:1022000017490800884602F09BFA164B81461C6865
:10221000002C14D0144F02E02469002C0FD0236846
:10222000002BF9D03B68002B01D0A342F4D1200051
:1022300001222900FFF784FF2469002CEFD14B46CF
:10224000002B05D1300003B0C0BCB946B046F0BD8C
:10225000404602F045FAF5E740420F00FFFFFF7FDE
:10226000C00E0020D8170020E0170020F0B5DE4691
:1022700057464E464546E0B585B0070002F0EEF9F8
:102280000600FFF799F800232B4A12184B418021D2
:1022900009068B4202D30122284B524228490800EA
:1022A0008B4602F04DFA274B01901C689A46002C91
:1022B0003BD0254B984602ABDD1D0A23994602E030
:1022C0002469002C17D02368002BF9D043461B68E3
:1022D000002B01D0A342F3D1200032003900FFF7D8
:1022E0002FFF4B462000012229002B70FFF728FF0B
:1022F0002469002CE7D1019B002B18D153461C68A0
:10230000002C06D06368002B0BD098472469002C62
:10231000F8D1300005B0F0BCBB46B246A946A04695
:10232000F0BD2469002CEDD1F3E70028F1D0584628
:1023300002F0D6F9E2E7C04640420F00FFFFFF7F00
:10234000C00E0020D8170020E01700200A4A1368AA
:10235000002B05D10CE01A001B691032002B07D0AE
:102360009842F8D1002902D10369136001617047D6
:102370000029FCD01060FAE7D817002010B500F053
:10238000D9F910BD7047C0460022014B1A70704742
:102390005E1C00204B790020FF2B0BD18B79002B8A
:1023A00008D1CB79012B05D1082A03D9024B8A78B1
:1023B00009301A707047C0465E1C0020012070472B
:1023C00070B5012901D0012070BD134953791079EE
:1023D00009781B02034300209942F5D15378012B61
:1023E00008D0022BF0D1002064220021FFF754FC1A
:1023F0000120E9E79478D278050012021443D2054F
:1024000002D5620A93401D000448FFF769FD7F2151
:1024100003002140280098475E1C00205542000020
:1024200001230370004870474C4800104B780A782D
:102430001B0213438A7810B512041A43CB781B068B
:1024400013439622D200934200D010BD0348FFF7F9
:1024500047FD0021030008009847C0465542000090
:10246000024B1860024B19607047C0466417002089
:102470006817002010B5024B1878FEF7E7F810BD7A
:102480005F1C0020114B70B51A68002A1AD0EFF3B8
:10249000108172B610680028FCD0BFF35F8F002057
:1024A0000B4A596010701B68BFF35F8F186081F38F
:1024B000108800240025074B1878FEF7C7F829007C
:1024C000200070BDFA240025A400F4E7081C0020B9
:1024D000601C00205F1C002070B5040000200E006E
:1024E00001F012FB002836D0002001F025FB002867
:1024F00031D0FEF761FF0023184A12184B418021AA
:1025000009068B4216D2164D280002F019F9002850
:1025100021D0002001F0F8FA00280FD1012000217D
:10252000404200F0C1FC03246442280002F0D8F8C5
:10253000200070BD01220B4B5242E4E7002001F065
:10254000FBFA0028EAD021003200002001F000FB55
:10255000041EEAD1E7E703246442E9E740420F00A2
:10256000301C0020FFFFFF7FF8B5DE46574680B5E0
:1025700005000C00FEF720FF0023374A12184B41DC
:10258000802109068B4202D30122344B5242344946
:1025900008008A4602F0D4F8002803D1C0BCBB462C
:1025A000B246F8BD002001F0AFFA00284AD000265C
:1025B000002C43DD2B4B9B4614E0A919002001F0B1
:1025C0003BFB070001200021404200F06DFC002091
:1025D00001F0F6FAFEF7F0FE224BF619186059608A
:1025E000B4422BDD002001F041FBA71B0200B842E2
:1025F00000DD3A00002AE0D101200021404200F035
:1026000053FC002001F0DCFA002001F07DFA0028E4
:1026100014D0002001F02AFB0028E1D1FEF7CCFE07
:102620005B460F001A685B68002184460E4812184A
:102630004B419F4202D8D3D19445D1D9504602F0A4
:102640004FF8ABE700200021064B18605960504658
:1026500002F046F8A2E7C04640420F00FFFFFF7FAE
:10266000301C00200810002020A1070010B5244CC9
:1026700084B00021200002F043F800281CD1214B37
:102680001A68002A16D0EFF3108172B6106800287D
:10269000FCD0BFF35F8F01241B48596002781B6890
:1026A000D2B20470BFF35F8F0020186081F31088EE
:1026B000002A0AD004B010BD01200021404200F0E1
:1026C000F3FB200002F00CF8F4E7FEF763FC0400D3
:1026D000FEF772FEFA220023920012184B4180216D
:1026E00009068B4202D30122084B5242012102917A
:1026F00000210191064920000091FEF74FFCD9E727
:10270000301C0020081C0020601C0020FFFFFF7F01
:1027100085240010054B10B51868002804D0044B20
:102720000022196801F060F810BDC046641700204F
:1027300068170020D02310B51B0684B01C68FEF774
:1027400029FCFEF7E9FCA04202D0002004B010BD35
:10275000274B1B7801F06CFC2648FEF723FA01207A
:10276000FEF702FAFF23244C244920701840FDF79D
:1027700093FF20780121FDF757FF0520FDF76EFF3D
:10278000002827D1FEF706FC0400FEF715FEFA220A
:102790000023920012184B41802109068B4202D37C
:1027A0000122174B5242012102910021019115494A
:1027B00020000091FEF7F2FB0822040000211248DD
:1027C000FFF7B2FC002CC0DB10480121FFF7BEFD73
:1027D0000120BBE700220E490520FDF787FFFDF72A
:1027E00005FF094B01001800FEF706FAECE7C046AA
:1027F000584A0010301C00205F1C00206D2600107D
:10280000FFFFFF7F85240010081C0020800E0020A1
:1028100075240010004870471C490010004870479C
:10282000C848001010B5040017480378002B20D0CA
:10283000002C06D1154B16484380063BFF3B038016
:1028400010BD052C19D8134BA400E05812490123E0
:10285000013804E001330A800231142B0FD0C25C2E
:10286000002AF7D1C022DBB25B0092000848134374
:10287000E5E7112100F01AF8DAE70020E0E7CA23C3
:1028800003489B00DBE7C046481C00200904000009
:10289000B0170020B0480010B217002010B5024851
:1028A00000F0D8F810BDC046201C002030B54B1EEB
:1028B000012900D1A7E0664A11780D092C003034B7
:1028C0009F2900D9A2E00470012B00D1BEE00F21A6
:1028D000147821400C003034092900D998E0447064
:1028E000022B00D1B2E054782509290030319F2C09
:1028F00000D990E08170032B00D1A7E00F21214087
:102900000C003034092900D987E0C470042B00D1B1
:102910009CE094782509290030319F2C00D97FE074
:102920000171052B00D191E00F2121400C003034C2
:10293000092900D976E04471062B00D186E0D478CD
:102940002509290030319F2C00D96EE08171072BB9
:1029500000D17BE00F2121400C003034092966D8DA
:10296000C471082B00D171E0147925092900303198
:102970009F2C5FD80172092B68D00F2121400C00D9
:102980003034092958D844720A2B5FD0547925096C
:10299000290030319F2C52D881720B2B56D00F2139
:1029A00021400C00303409294BD8C4720C2B4DD077
:1029B00094792509290030319F2C00D90731017302
:1029C0000D2B43D00F2121400C003034092901D9AF
:1029D00037310C0044730E2B38D0D1790C0922000A
:1029E00030329F2900D9073282730F2B2ED00F224D
:1029F0000A4011003731092A01D830321100C17361
:102A0000102B23D010300023037030BD07345AE759
:102A100037310C0063E707316CE737310C0074E79E
:102A200007317DE737310C0085E707318EE7373115
:102A30000C0095E707319DE737310C00A3E707311C
:102A4000AAE737310C00C4720C2BB1D1C018DAE7F9
:102A5000201C002030B5002589B004000922002187
:102A600001A80095FFF760FB0922002105A8049545
:102A7000FFF75AFB4B236A466846137004A90D22E0
:102A800001F026FE1521082220006944FFF752FBC1
:102A900009B030BD10B501210520FDF7C5FD10BD01
:102AA00010B500220021024800F058F910BDC046C0
:102AB000041800208022024B5202DA647047C0469C
:102AC00000201150F0B5C64600B5060000F020F910
:102AD0000C231B4DFF22AB6705201A49FDF706FEAC
:102AE00040239846184C402200212000FFF71CFB91
:102AF00043460127238321210023144A6770A260E3
:102B0000136063545F316184414621870539635402
:102B10000F4A10496360E260A1620B606362E26287
:102B200001F006FE80239B052F64EB6490230A4A84
:102B30003000EA50FFF7BEFF80BCB846F0BDC0468B
:102B4000000011509D040020E41700208400105064
:102B5000000110508000105010D001000B785B066F
:102B600002D14B78052B00D070478A78014B1A6050
:102B7000FAE7C04600001150F0B5C64600B5CC7863
:102B800088780A794B797F21A40701401B02C50987
:102B900013434F00A20F1400324E7A195201B2189B
:102BA000907001206840507000205B055B0DD07074
:102BB0001383D4768046CA00012D33D02A48844638
:102BC000880162448446B444604682604046106096
:102BD000002933D0254AC9009046624641445160DD
:102BE0003F223F339343022C00D15B0020487A19E7
:102BF00001685201B218D1601E4ACB1803605140DF
:102C00005A40802388465B019A4228D84346A4064E
:102C10001C4380237F197F01F61972681B0623432A
:102C2000136011E014488446880162448446B44429
:102C30006046826240461060002909D100236D0180
:102C400075196B600D4BEB60012080BCB846F0BD80
:102C5000084AC9009046624641445162C0E7FFF706
:102C600011F9D3E7E417002084001050040010503D
:102C7000EC1B00200000105080001050000110508C
:102C800010B501F055FD10BD10B57F200C0020409F
:102C90004000E409110000191A00034B4001C0185C
:102CA00000F05CF8012010BDE41700207F2318001D
:102CB00010B50840CA090B4203D107497D3B9B1A56
:102CC0008B66400080188022044B40010021C01810
:102CD000120101F045FD10BD00201150E417002045
:102CE0007F22130010B50B400A4200D110BDC90964
:102CF0005B005B1804485B01C018002300220349F5
:102D0000C37001F02DFDF1E7E4170020FFF7FFFF8E
:102D100080220D4B520410B51A600C4B0C491A60FE
:102D200010008B689843FBD10A4C9C2200212000A4
:102D3000FFF7FAF98022002152010748FFF7F4F962
:102D40000923636710BDC04600E0004000F000406A
:102D500000C000400000115000001050002310B5CA
:102D6000C3820133828283760161040001F0D8FCC2
:102D7000002804D080219023074A8902D1502000E6
:102D800001F09EFC002802D00123237710BD200013
:102D900001F0DEFCFAE7C04600201150024B5878E3
:102DA000431E9841C0B2704738150020024B187876
:102DB0004007C00F7047C04638150020034B1878F5
:102DC000FF38431E9841C0B27047C046BC0E002079
:102DD000F0B5C64600B52A4E05003378FF2B01D06A
:102DE00001203FE0532200212648FFF79DF9264CA1
:102DF0002000FDF7D7FE254B1C60254C2000143C1D
:102E0000FDF7ECFE200001F0E5FB224B224F1C6099
:102E1000224B9846002B1DD03800FFF701FB204BBA
:102E200018603B7842460024002A15D01D4A90467F
:102E300042469C4219D3904701343B78E4B2A34206
:102E4000F6D228003570FFF73DFE2800FFF722FE7E
:102E5000012007E03B78E5E700F014FF3B78002B0A
:102E6000EFD0002080BCB846F0BD0D4A6300126868
:102E70001B19DB00D318002BF3D01A68DBE7C04620
:102E8000BC0E002038150020F01400208C15002006
:102E9000B40E002090150020591C002021240010A1
:102EA00010120020853C0010F0B5DE4657464E4615
:102EB0004546E0B591B001F0C1F8002800D115E118
:102EC000CA4BCB4E0193CB4B0DAC0293CA4B9B46E6
:102ED00035686A69EFF3108172B61368002BFCD075
:102EE000BFF35F8FA9612800210001F0B1F96A6981
:102EF000AB69BFF35F8F0021116083F31088002856
:102F000000D1F3E06378082BE2D8019A9B00D358F4
:102F10009F466368002BDBD0A0689847D8E77F22E4
:102F20002179B44D0A405300C809EB181B1818004A
:102F300001273030C578BD43C570C5780337BD4320
:102F4000C570002A00D1EEE0AC4ADB7C002A06D036
:102F5000AB4A1278934200D264E19B1ADBB2002B99
:102F600000D0C3E0A74DA36862792078A847AFE7F7
:102F70000122A04D01212B78042013432B70332311
:102F8000EA5C8A43EA54EA5C8243EA540133EA5C2D
:102F90008A43EA54EA5C8243EA54237800209A4642
:102FA00000F024FD602223791A40602A0DD0402AC7
:102FB00000D1BEE0DB06DB0E012B00D13DE1022B90
:102FC00000D1D3E0002B00D1C2E020780021FFF730
:102FD0006DFE80212078FFF769FE79E7029B1B7860
:102FE000DB0700D474E7884B002B00D170E700E0CA
:102FF00000BF6DE77F4D2B78DB0700D468E7834B7C
:10300000002B00D164E728780007C00F00E000BF64
:103010005EE723787A4F794A984600253B78002A64
:1030200049D0B1463E005F463A009D4265D34046D6
:10303000904701353378EDB2AB42F5D24E46BB46F0
:103040006C4D532200212800FFF76EF81022FF215B
:10305000E81CFFF769F828002022FF211330FFF752
:1030600063F82EE02378664F644A984600253B7843
:10307000002A2FD0B1463E005F463A00AB4247D807
:103080004046904701353378EDB2AB42F5D24E461B
:10309000BB46584D532200212800FFF745F8102267
:1030A000FF21E81CFFF740F828002022FF21133001
:1030B000FFF73AF815E0404600F022FE3B78002B7F
:1030C000BED000F089FC524B002B00D100E700E09D
:1030D00000BFFDE6404600F013FE3B78002BD8D041
:1030E000444D00F079FC2379AB70F1E611B0F0BCEF
:1030F000BB46B246A946A046F0BD464A6B001268E0
:103100005B19DB00D318002B00D1AEE15A688EE7C3
:10311000404A6B0012685B19DB00D318002B00D10A
:10312000A6E15A68ACE7A3686279207800F072FCE7
:10313000CEE63948002800D147E700F057FC0121CE
:1031400050460EAA00E000BF002800D0C0E63CE7D1
:10315000202A00D1A6E0002A00D036E76379092BA7
:1031600000D932E72D4A9B00D3589F467023217A1D
:103170000B4200D029E70F330B405B00CF09E81862
:10318000C019C07C039384461C48002808D01C4802
:103190000078844500D2A8E06346181AC3B29C4662
:1031A0006046002800D09AE0002A00D059E11C4B6C
:1031B000984663791A00994602239A43012A00D15E
:1031C00059E14B46002B00D0FFE6039B0CAAEB18FD
:1031D000DB193033DB7802329B07DB0F138050465C
:1031E00002230EA900F0A2FB72E6C0469849001027
:1031F0009015002038150020013D001021240010FA
:10320000591C0020F53E00100000000000000000E6
:10321000000000001012002000000000BC49001057
:10322000244A0010BF4A58001268C318DB00D318A4
:10323000002B00D15AE71D6995E6237A0F2B00D9A0
:10324000C3E6B94AEB18DB78002A05D0B74A1278F2
:10325000934265D39B1ADBB2002B00D0B5E6B4488D
:10326000B44D00F0C3FB01215046EB680EAA98470D
:10327000002800D02CE66022150023791D401A4258
:1032800000D0A2E663790A3B012B00D99DE600F04D
:10329000ADFB63790A2B00D12FE150460EA900F057
:1032A0002FFB15E6237A0F2B00D98EE69E4AEB18EA
:1032B000DB78002A06D09D4A1278934200D2FFE0C4
:1032C0009B1ADBB2002B00D07FE69948994D00F0A5
:1032D0008DFB01215046EB680EAA984734E7002A7F
:1032E00000D072E60023984663E763465B00984689
:1032F000C4446346DB009C468A48006860448046BC
:10330000002A00D155E7002800D15EE6C06800F031
:103310006DFB434601215046DB680EAA984713E730
:10332000804A59001568CB18DB00ED18002D00D13C
:103330004BE6E86895E7E388012B00D045E60822D4
:103340002B78504693430EA92B7000F0D9FABFE5B5
:10335000022029780CAB9A1C8B068908DB0F0140F0
:103360000B433BE7A37999466B78994507D06B7877
:10337000002B00D048E14B46002B00D0E6E04B4646
:1033800050460EA96B7000F0BBFAA1E56B780CAA51
:1033900002321370504601230EA900F0C7FA97E5D8
:1033A000E3881A0AD8B20F2A00D90EE662499300C0
:1033B000CB589F460EA800F01FFB5046A179FFF79F
:1033C0006FFB02222B7813432B7081E5E388012BDE
:1033D00000D0FAE508222B78504613430EA92B7033
:1033E00000F08EFA74E5554B002B00D1EDE500E0BE
:1033F00000BF021E00D1E8E5D37891781B020B4391
:1034000050460EA900F092FA9EE64D4B002B00D1DB
:10341000DBE500E000BF021E00D1D6E55046137880
:103420000EA900F083FA8FE62189FFF7FBF9021E4F
:10343000F4D1CAE5022A00D15DE1424B002B00D154
:10344000C3E500E000BF0200002A00D1BDE5D3E7DC
:10345000FFF7E0F9122302000EA9504600F066FAC9
:1034600072E6344B3248984651E74E46BB4628E652
:103470004E46BB4634E6E288002A0BD14B46324A20
:103480001078012B27D0039BEB18DF193037FB781E
:103490009B073BD54346002B00D119E5D86800F0C7
:1034A000A5FA43460121DB680EAA50469847002042
:1034B00000F09CFA3423EB5CDB0700D508E5ECE672
:1034C000184A59001568CB18DB00ED18002D00D103
:1034D0007BE5E868FBE6039BEB18DF193037FB78E8
:1034E0009B07D7D5FFF7FCFB0222FB7893434A46A4
:1034F000FB70FB789343FB70CCE70CAB9A1C5046F7
:1035000001230EA9157000F011FAE1E4FFF7CEFBDC
:103510000222FB7813430122FB70FB781343FB70FC
:10352000B8E7C0461012002021240010591C0020CA
:10353000113E0010244A0010E44900100000000071
:103540000000000000000000BC0E0020581EC0B2A9
:10355000FFF764F9002800D137E543780793022B81
:1035600000D032E50121C37907009A115B110A40AE
:103570000B4052011B0113432A782F318A43134316
:103580002B70C37882781B021343C3180693664BD3
:10359000A8460593654B09370A934B46B1460B93F2
:1035A000069BBB4200D8AAE001227B7803920B2B3A
:1035B00003D1FB7803933B78FF187B78042B21D150
:1035C0000025069BDB1B9BB20493059B1A780A9B84
:1035D000AB424DD0564B0893564B0993089B099E1E
:1035E000AA427FD839005046049A98478446082852
:1035F00002D9049A824247D2059B01351A78EDB26E
:10360000AA42EBD24E46E0E45046FFF739FBAB78D6
:10361000454F464A039300213B78002A1FD0464A73
:1036200004922A000D009046049A9D4250D35046C1
:10363000904701353B78EDB2AB42F5D24546532277
:1036400000212800FEF770FD1022FF213B48FEF705
:103650006BFD2022FF213A48FEF766FD05E050464B
:1036600000F04EFB3B78002BE9D0039BAB7082E669
:10367000049E39003200504600F058FB844608286A
:10368000C0D98642BED32B4E039B012B44D00022CF
:10369000404609E0BB78D318DBB2C318D978FF29BC
:1036A000B0D10132DD70D2B2039B9A42F2D16646AC
:1036B0002B00390080463200214800F045FDB44619
:1036C000059B67441B78AB4200D369E74E467CE418
:1036D0001C4A6B0012685B19DB00D318002B19D051
:1036E0005A68A4E71823174A6B431668F618002E89
:1036F00088D0B36876E7FFF791F80200A4E60B9B49
:103700004E469946104B4546002B00D137E600E067
:1037100000BF34E64546A8E7054BB2689A42B6D1E9
:10372000079B0393B3E7C046591C002021240010D7
:103730002D3D0010244A0010013D00103B150020D3
:103740004B1500201012002000000000F8B557466D
:103750004E46DE4645460C00E0B516001F00002A26
:103760003CD01F4B00259A46702399461D4B9B4623
:1037700017E05B462000997800F0A8FC00281FD0D5
:1037800021004046FFF7F8F9002819D0A378DA099C
:10379000012A1CD00A9A013513702378E418B54227
:1037A0001CDA6378052B0BD1E3789B079B0FBB4298
:1037B00006D153464A461B789846A3781A42D8D079
:1037C0000020F0BCBB46B246A946A046F8BD0B9A05
:1037D000013513702378E418B542E2DB0120F0E7ED
:1037E000BC0E002038150020802310B51B0184B0CA
:1037F00001930E4B02901C6803916269EFF31083F2
:1038000072B611680029FCD0BFF35F8FA36120005E
:1038100001A900F0DFFD6269A369BFF35F8F00219A
:10382000116083F3108804B010BDC04690150020CD
:10383000702270B5094B0C001D788B781A4201D0AC
:10384000002070BD064B2000997800F03FFC002856
:10385000F6D021002800FFF78FF9F2E7BC0E002018
:10386000381500200B007F2010B51840DB093333DA
:103870004000044AC018044B1168C01800F0E2FB75
:1038800010BDC0468C150020381500200B007F208D
:1038900010B51840DB0933334000044AC018044B0C
:1038A0001168C01800F0F6FB10BDC0468C15002052
:1038B0003815002070B57F240F480C4064000419AF
:1038C000CD0964193034E078C00701D5002070BDFF
:1038D0000126E578094835430078E570FFF7D4F90B
:1038E0000028F4D10122E3789343E370E3780332B4
:1038F0009343E370EAE7C04638150020BC0E002071
:1039000070B5094C0600082220000D00FEF712FCDD
:1039100000238021E360A3602B78300099430022CC
:103920000023FFF7C7FF70BDDC140020F8B5CE46BA
:1039300047469046264E80B58146082230000D004D
:103940001F00FEF7F7FB4346B3600023F381EC79D9
:10395000AB7924021C43231CBC4200D93B1C9FB200
:10396000B381002C0ED0002F18D04346002B2CD052
:103970003B1C402F1BD89FB233787F2B1CD80021D3
:10398000144A0FE080212B780022994348460023F7
:10399000FFF790FFC0BCB946B046F8BD7F230022B8
:1039A000317899433B004846FFF784FFF2E7402314
:1039B0009FB233787F2BE2D9064C3A004146200073
:1039C000FEF7B8FB80212200ECE70020E2E7C046CA
:1039D000DC140020F814002010B514220021024845
:1039E000FEF7A2FB10BDC046DC140020014B18619D
:1039F0007047C046DC14002010B5054C01000822B9
:103A00002000FEF797FB0023A360E36010BDC046D3
:103A1000DC14002070B5394C1D0023780600DA094B
:103A2000C9098A4213D00020002D00D070BD344B4C
:103A3000002B03D021003000FFF790F82369002B02
:103A400003D022000321300098470120EEE7A06850
:103A50007F2B05D8002834D02A002A49FEF76AFBBC
:103A6000E289A1685219E38892B24919E281A16002
:103A7000934214D03F2D12D9A389981A051C80B205
:103A800040282AD82078ADB27F2828D800219A4231
:103A900032D01C4A2B003000FFF70CFFC6E7236929
:103AA000002B05D0220002213000984700280AD0C0
:103AB000802123780022994330000023FFF7FAFE8B
:103AC000B4E70020B2E700213000FFF7EFF8300044
:103AD0008021FFF7EBF80120A8E74025D2E79A42C2
:103AE00007D0084C2A002000FEF724FB802122008A
:103AF000D0E780210022CDE70022CBE7DC140020B4
:103B00005D2B0010F814002010B50400FFF746F9F3
:103B1000002801D1002010BDFFF748F90028F9D195
:103B2000B22292006243034B01309B181B7918406C
:103B3000F1E7C04614120020B2239B00434310B5A6
:103B40000248181800F050FB10BDC0462412002097
:103B5000F0B5B225AD0045432C00C646174F1034D2
:103B6000E41900B5200092B200F0C0FB060020006E
:103B700000F058FB3F2803D8300080BCB846F0BDA9
:103B80007B190020D9789846FFF76CFE0028F3D007
:103B9000200000F047FB3F280AD992239B00EA1837
:103BA0004346D219D97800204023FFF783FEE3E78C
:103BB00043460020D978FFF769FEDDE714120020A4
:103BC000F8B50400FFF7EAF8002801D10020F8BD9D
:103BD000FFF7ECF80028F9D1B2239B005C432500E5
:103BE000144E2435AD19280000F0FEFA0028EDD05F
:103BF00037190020B978FFF735FE0028E6D0A22358
:103C00009B009C466444A41921002800402200F037
:103C10006DFBB978051E08D0030022000020FFF7D5
:103C200049FE0028D2D02800D1E70020FFF72EFE61
:103C3000CCE7C0461412002070B5B224A40044435F
:103C4000094B0500E418200092B200F007FC0600C2
:103C5000200000F0C9FA3F2801D8300070BD2800CC
:103C6000FFF7AEFFF9E7C04638120020B2239B00F1
:103C7000434310B50248181800F0D4FA10BDC046EE
:103C800038120020B222F0B51B4C83B00021200076
:103C90009200FEF749FAFF236371184B8026002536
:103CA000E3800127082321002000760023733200DF
:103CB000278138310095073B103000F05FFA210072
:103CC000200039313200FF3101230097243000F009
:103CD00055FA8E239B00E6183000FCF763FF902313
:103CE0009B002662E6183000E561FCF75BFF266367
:103CF000656303B0F0BDC0461412002000C2FFFF90
:103D000010B5094C052200212000FEF70DFA200015
:103D10002434103000F05EFC200000F05BFC012138
:103D2000200000F077FC10BD14120020F0B54B7994
:103D3000060083B0022B02D18B79022B03D0002521
:103D4000280003B0F0BD2F4FBB78002BF7D18B7844
:103D500009253B700C780C196378242B0BD1082AA9
:103D600002D81FE0AA421DD32378E4185D196378B6
:103D7000ADB2242BF6D0052B31D0042B12D16379B0
:103D80000A2B0FD1204B2778019301330093022295
:103D900002233000E119FFF7D9FC0028CFD00E35FF
:103DA000ED19ADB2194C200000F03CFA3F28C7D9FC
:103DB0002600103E0020F178FFF754FD0028BFD008
:103DC000200000F02FFA3F2817D98E239B00E2181D
:103DD000F93BF178FF3B0020FFF76CFDB0E72100D5
:103DE0003000FFF725FD0028A9D0A3787B70237849
:103DF0005D19E4186378ADB2BFE7F1780020FFF7F2
:103E000045FD9DE714120020161200202412002008
:103E1000F8B5602314001278050013400020202B11
:103E200012D12F4A6379277916781B023B439E42B1
:103E30000AD16378222B27D007D8202B17D0212B2B
:103E400002D101293DD00120F8BD232BFCD101294D
:103E50003FD00329F7D1234B002BF4D0E178A3788E
:103E600009020020194300E000BF0120ECE701290E
:103E700027D00329E7D11C4B002BE4D00020911D53
:103E8000FEF7D4FA0120DFE7012922D00329DAD195
:103E900001252E00A378E478023924021C43147112
:103EA000264024321000714000F0B4FB0F4B002B71
:103EB000C9D06208002031002A4000E000BF012084
:103EC000C2E7072321002800094AFFF72FFD012040
:103ED000BAE721002800FFF713FD0120B4E7C04630
:103EE00014120020000000002D240010000000002B
:103EF0001A120020F8B545465746DE464E46E0B554
:103F0000464D1F00EA7880460C00AB788A4246D0C6
:103F100000208B421AD0F0BCBB46B246A946A04650
:103F2000F8BD3F4B002B04D0484600F073F9002841
:103F30006CD0484600F076F93F2807D94E46103E2F
:103F40000020F178FFF78EFC002851D1AB78A34216
:103F500001D00120DFE7334B002B02D0002000E02E
:103F600000BF0020FFF72CFE0028F2D12E4C2000CD
:103F700000F03AF90028ECD1002FEAD0BF06E8D1D2
:103F8000243C4046A178FFF76DFC0028E1D00023D7
:103F900000224046A178FFF78DFC0120BBE7922369
:103FA0009B00EE1810239B46AB4431005846BAB232
:103FB00000F054FA1D4BD946002BB2D06B79FF2B81
:103FC000AFD0002FADD0F219924603E00136B245D2
:103FD000A7D06B7932789A42F8D1484600F01AF9A6
:103FE0000028F3D14B46103B597900E000BFEDE7C4
:103FF000484600F017F93F280BD98E229200402343
:10400000F1784A440020FFF755FC9FE7FEF782FB5A
:104010008FE7F1780020FFF739FC97E714120020B2
:1040200015270010000000003812002000000000DA
:1040300010B50020FEF7CCFE10BDC04610B5FEF74F
:10404000BDFE10BD037870B5DB0704000E00DD0F68
:10405000002B17D103785B0701D5280070BD012123
:104060003000494200F054FB2378DB07DD0F002BC2
:104070000AD123785B0708D404222378012513434F
:10408000237002E00025E8E70025300000F028FB5F
:10409000E3E7C04670B50C0001210600494220004C
:1040A00000F036FB33785B07DD0F002B04DB2000CC
:1040B00000F016FB280070BD3378DB0704D404221F
:1040C000337893433370F2E70025F0E743790279C0
:1040D0001B0213435B055A0DC3789B079B0F022BF2
:1040E00005D0032B15D00020012B08D070470229E2
:1040F0001ED00020402393424041C0B2F6E702396F
:104100004B4259410D4B9C46614491424041C0B2E3
:10411000ECE702394B1E9941094B49421940802373
:10412000DB009C460020614491424041C0B2DDE783
:10413000044BD01843425841C0B2D7E7FF030000F8
:1041400040FCFFFF00FEFFFF8A1870B5914207D2C6
:104150007F264C78052C04D00C7809198A42F8D8AF
:1041600070BD34008D782C4064000419ED0963554E
:104170000C7809198A42ECD8F2E7C046F0B5C64679
:1041800000B5040006A805788020884617001E00A8
:104190000002824226D8E068002803D0012149426B
:1041A00000F0B6FA2069002803D00121494200F04E
:1041B000AFFA4346236073045B0CED031D430023F9
:1041C000E0686381A780E5802381002801D000F0AA
:1041D00087FA2069002801D000F082FA012080BC13
:1041E000B846F0BD0020FAE710B5048941898288FD
:1041F000A3B288B28C4207D31B1A9BB2101C9A42FE
:1042000000D9181C80B210BD5100091A5B189BB26E
:10421000F4E7C04603894089181A43425841C0B2A6
:104220007047C04610B5048941898288A3B288B21C
:104230008C4207D31B1A9BB200209A4201D9D21A92
:1042400090B210BD5100091A5B189BB2F4E7C0464A
:1042500070B5040000690E00002803D00121494216
:1042600000F056FA25896089A288A9B283B28542F6
:104270002BD3CD1AADB2002D2DD0AA4208D2914237
:104280002FD3891A8BB263819A4203D89B1A9BB2AF
:104290009A42FBD9E28821685204520C5343300001
:1042A000C918FDF747FF63890125591C89B2A28807
:1042B0008B4212D95200891A89B220696181002883
:1042C00001D000F00DFA280070BD5500ED1A4D190F
:1042D000ADB2002DD1D1618989B252009142ECDB9F
:1042E000E9E789188BB26381CEE7C046F0B5464650
:1042F0004F46D646C0B5060000698946904600285C
:1043000003D00121494200F003FA31897289B5884E
:104310008BB294B2914254D31F1BBFB2002F4AD02C
:10432000BD4205D2AB4251D25B199CB22F007481C1
:104330004346B8453DD89FB2A54203D8641BA4B2FA
:10434000A542FBD9F28831685204520C9046624370
:104350002B1B9BB2891842469F4225D953439BB2DF
:104360001A0048469A46FDF7E5FE434648467D1B3F
:1043700064195C4331685044A2B2FDF7DBFE7189D9
:10438000B588CB199BB26A00994216D99B1A9BB289
:1043900030697381002801D000F0A2F93800E0BC38
:1043A000BA46B146A846F0BD48467A43FDF7C2FE7C
:1043B000E5E73B1CBFE773899BB26A009342E7DBEA
:1043C000E4E76F003F1BDF19BFB2A7E75B1B9CB29E
:1043D000ACE7C046F8B50400C0680E00002803D062
:1043E0000121494200F094F9258920896189A28838
:1043F000ADB283B28FB2884228D3DB1B9BB29A4204
:1044000009D8E779FF0906D1E068002801D000F05B
:1044100067F93800F8BD2B00954203D39B1A9BB275
:104420009342FBD2E28820685204520C534331007D
:10443000C018FDF77FFEA2886B1C9BB252009D4204
:1044400009D99B1A9BB201272381DDE75100C91BC3
:104450005B189BB2D3E79342F5DBF2E7F0B5574622
:104460004546DE464E46E0B5140005000F0083B019
:10447000002A75D0C068002803D00121494200F00D
:1044800047F92E89E9796A89AB88B6B292B2C9092F
:1044900045D1964200D36DE059008A1AB21892B203
:1044A000002189469A4234D29A1A111C92B2A24231
:1044B00000D9211C8AB29146EA885204520C9046D7
:1044C0004A46B21892B292464A46D21A92B29346DD
:1044D00034009E4203D3E41AA4B29C42FBD242466B
:1044E000624328681B1B9BB2801842464B4554D33D
:1044F0004B4639005A43FDF71DFEAB885B00B245C1
:1045000001D39A4503DB5246D31A9BB29A465346CF
:104510002B81E868002825D000F0E2F822E0E98845
:104520004904490C88469C4227D2964247D3B11A87
:1045300089B28C465800E11A89B28B466146091946
:10454000814208DBD11889B20E1BB6B28A46B2424C
:104550003BD9361AB6B2A21992B29246A146B7E733
:1045600000239946484603B0F0BCBB46B246A94674
:10457000A046F0BDB21A92B292E700218946002B04
:10458000C7D04146E41A4C431600D118002289B224
:104590008A46994693463F199AE753439BB21A00BD
:1045A00039005C440193FDF7C5FD414622004A43B2
:1045B000019B286892B2F918FDF7BCFD9DE75800F1
:1045C000811A711889B28C46B5E7A146B04200DD68
:1045D0007EE7BEE710B50400C068002803D00121C3
:1045E000494200F095F82069002803D00121494292
:1045F00000F08EF80023E06863812381002801D059
:1046000000F06EF82069002801D000F069F8012060
:1046100010BDC04670B50400C0680D00002803D06E
:104620000121494200F074F82069002803D00121DB
:10463000494200F06DF87F21E379ED011940E0680F
:104640002943E171002801D000F04AF820690028D0
:1046500001D000F045F8012070BDC04610B58307B9
:104660000AD00300032102E001330B4205D01A787F
:10467000002AF9D1181A10BD030019680C4A0D4C14
:104680008A188A4322420FD15968094A04338A188A
:104690008A43224208D15968054A04338A188A435A
:1046A0002242F1D000E001331A78002AFBD1E1E781
:1046B000FFFEFEFE80808080F8B5C046000000004E
:1046C00001B40248844601BC604700BFD509002000
:1046D00001B40248844601BC604700BFC902002003
:1046E00001B40248844601BC604700BF2D0200208F
:1046F00001B40248844601BC604700BF750D00202C
:1047000001B40248844601BC604700BFC1000020DC
:1047100001B40248844601BC604700BF9D010020EF
:1047200001B40248844601BC604700BFAD090020C7
:1047300001B40248844601BC604700BF89030020E1
:1047400001B40248844601BC604700BF010100205B
:1047500001B40248844601BC604700BF490B0020F9
:1047600001B40248844601BC604700BFF10A002042
:104770004E6F207370696E6C6F636B73206172652E
:1047800020617661696C61626C6500004E6F207516
:1047900073657220495251732061726520617661A0
:1047A000696C61626C650000486172647761726572
:1047B00020616C61726D20256420616C726561649A
:1047C0007920636C61696D65640000000A2A2A2AF9
:1047D0002050414E4943202A2A2A0A000A0000009C
:1047E00048617264206173736572740052656C6510
:1047F00061736500626F6F74325F77323571303884
:1048000030000000312E352E310000007069636FDA
:1048100000000000636172004E6F76203235203256
:104820003032330006005250D3F07542EC4700108E
:1048300006005250E182887FF44700100600525073
:10484000BBFF3CB60C4800100D0A00008523001089
:104850008923001095230010C1230010BD230010F0
:104860000000000055534220737464696E202F20AD
:104870007374646F757400000600525053B4F4A151
:1048800064480010526173706265727279205069D9
:10489000000000005069636F00000000426F617209
:1048A00064204344430000005265736574000000B7
:1048B000000000008448001094480010481C0020AC
:1048C0009C480010A8480010090254000301008011
:1048D0007D080B0002020200000904000001020230
:1048E0000004052400200105240100010424020223
:1048F00005240600010705810308001009040100D2
:10490000020A0000000705020240000007058202BB
:104910004000000904020000FF000105120100022E
:10492000EF0201408A2E0A0000010102030100008B
:10493000556E68616E646C65642049525120307810
:1049400025780A006570202564202573207761731F
:1049500020616C726561647920617661696C616265
:104960006C65000043616E277420636F6E74696E1E
:1049700075652078666572206F6E20696E6163745C
:10498000697665206570202564202573000000008D
:104990006F757400696E0000D02E00106430001036
:1049A00012300010D02E0010F42F0010DC2F001059
:1049B000702F00101E2F0010122F00105033001007
:1049C00036330010CA2F0010CC330010CA2F00104D
:1049D000B4330010A0330010CA2F00108C33001025
:1049E00064330010CA2F001050340010343400100B
:1049F00028340010CA2F0010CA2F00100A340010EB
:104A000034340010CA2F0010CA2F0010CA2F001013
:104A1000CA2F0010CA2F0010CA2F0010CA2F001072
:104A2000E6330010853C0010013D00102D3D0010C4
:0C4A3000113E0010F53E001000000000D8
:104A3C002448001030480010880200103C48001038
:104A4C0094020010A0020010AC0200107848001074
:104A5C0003000068EFF3108C72B60268002AFCD0D9
:104A6C00BFF35F8F04229A56002A04DB002900D082
:104A7C000A60002004E0D0220120120612681A718C
:104A8C001B68BFF35F8F00221A608CF3108870478D
:104A9C00F0B5C646150000B504001E000268EFF321
:104AAC00108172B61368002BFCD0BFF35F8F042308
:104ABC00E356002B2DDB2268BFF35F8F00201060C4
:104ACC0081F31088D0221206127852B290469A4284
:104ADC0003D1002080BCB846F0BD00270BE0236852
:104AEC00BFF35F8F1F6081F310882800310000F046
:104AFC0033FE0028EDD12268EFF3108172B61368F3
:104B0C00002BFCD0BFF35F8F23797F2BE7D9434673
:104B1C0002E0D0231B061B6823712368BFF35F8F51
:104B2C0000221A6081F310880120D3E7F0B5C64645
:104B3C0000B50D00040000F0FFFDFA2206000F0086
:104B4C00002328000021920000F0E6FD8023361897
:104B5C004F411B069F4202D30126174F7642D023AA
:104B6C001B061B68002598460BE02368BFF35F8F7C
:104B7C001D6081F310883000390000F0EDFD002835
:104B8C0018D12268EFF3108172B61368002BFCD099
:104B9C00BFF35F8F23797F2BE7D9434623712368BB
:104BAC00BFF35F8F00221A6081F31088012080BC54
:104BBC00B846F0BD0020FAE7FFFFFF7F0268EFF375
:104BCC00108172B61368002BFCD0BFF35F8FFF23EC
:104BDC0003710368BFF35F8F00221A6081F31088A2
:104BEC0040BF704710B5084C2378002B0AD18023A6
:104BFC00064807495B051A68C25004338B42FAD148
:104C0C000123237010BDC0465B1C002064160010ED
:104C1C000001001010B5014B984710BD651600201F
:104C2C00034B1A68C0239B009343024A13607047DE
:104C3C000C8001400C900140054B1A6880239B00AE
:104C4C005340C02292001340024A13607047C04682
:104C5C000C8001400C9001401423F0B5D6464F4611
:104C6C0046469A46814618880433C0B598460E00CD
:104C7C001B8826491400984753460700188843465A
:104C8C0023491B88984753460500188843462149F9
:104C9C001B8898478046FFF7A5FFB847A847FFF742
:104CAC00CBFF221E20D0C02108270220490511E08D
:104CBC00002C14D0131B0D2B20D9002D0AD023004F
:104CCC00002A05D00B6E013A3370130001362343D2
:104CDC00002B09D03D008B6A1D401842E8D1002DF5
:104CEC00EDD123001343F5D1FFF79AFFC047FFF72F
:104CFC0091FFE0BCBA46B146A846F0BD4B461B78C6
:104D0C00013C0B6601239C46E144E8E74946000060
:104D1C0045580000464300000022154B10B59A6020
:104D2C00DA601A615A619A61DA611A625A629A629D
:104D3C00DA621A635A639A63DA631A645A649A647D
:104D4C00DA641A655A659A65DA651A665A669A665D
:104D5C00DA661A675A679A67DA67F03292000021AE
:104D6C00044800F0D1FC044B044A1A6010BDC04644
:104D7C000000105024180020EC1B00208001105063
:104D8C00F0B55746DE464E464546E0B5244B87B057
:104D9C009F6D002F23D0234B002499460123984666
:104DAC00214B01269A4604E001347600E4B2202C13
:104DBC0015D03E42F8D04B469E65434665086D00C3
:104DCC00A343ED186D015544280000F0BBFB0028EF
:104DDC000CD10134B743E4B27600002FE7D107B011
:104DEC00F0BCBB46B246A946A046F0BDAB7802A8C3
:104DFC009B46EB8A062200210630019300F084FCCE
:104E0C00E023594602AADB009380019B117203A890
:104E1C000121059300F0BEFB280000F02BFBD8E726
:104E2C000000115000301150E41700209823C84A9C
:104E3C00F0B5D55880232C009B02102685B01C4061
:104E4C001D427AD0C34BC44C9A6AC44B00261A60DC
:104E5C003B23E35C022B00D1DFE07B23E35C022BE2
:104E6C0000D1B9E1BB23E35C022B00D1A9E1FB2308
:104E7C00E35C022B00D199E13C23FF33E35C022B72
:104E8C0000D158E17C23FF33E35C022B00D145E1D8
:104E9C00BC23FF33E35C022B00D132E1FC23FF3354
:104EAC00E35C022B00D11FE1AD4BE35C022B00D184
:104EBC000EE1AC4BE35C022B00D1FDE0AA4BE35CB2
:104ECC00022B00D1ECE0A94BE35C022B00D1DBE020
:104EDC00A74BE35C022B00D1CAE0A64BE35C022B90
:104EEC0000D1ABE0A44BE35C022B00D17FE1A34BE0
:104EFC00E35C022B00D196E1002E08D1A04B1B786D
:104F0C00002B04D180219F4A90338902D150904BC1
:104F1C000A229C6C6B460021981D00F0F5FBC02307
:104F2C00640501AE9B00640D3380300002940121B6
:104F3C00802400F02FFB944EA402EB0669D480234E
:104F4C005B021D4214D0012223211C43824B5A5474
:104F5C00DA70C0238D4ADB00019302AB03CA03C392
:104F6C00012101A800F016FB8022864B92021A65E3
:104F7C0080235B011D4233D18023DB011D421CD1F8
:104F8C0080231B021D4204D1AC4200D0C8E105B005
:104F9C00F0BD1C436B460A220021981D00F0B4FBA7
:104FAC00A02301AEDB0033800121300000F0F2FAC7
:104FBC008022744B12011A65E6E71C436B460A22E9
:104FCC000021981D00F0A0FB802301AEDB00338094
:104FDC000121300000F0DEFA10226A4B1A65CFE78F
:104FEC0000221C435A4B01AE1A60FFF795FE6B462C
:104FFC000A220021981D00F087FB80235B00338080
:10500C000121300000F0C6FA80225E4B12031A65B3
:10501C00B2E7FFF7B5FE340091E73833E65C002EBB
:10502C0000D11AE70233E25C002A00D115E7200018
:10503C0000222030E25400F04FFA0EE7544BE75CAC
:10504C00002F00D14EE70233E25C002A00D060E171
:10505C00494BE35C022B00D1DBE0484BE35C022BB9
:10506C0000D054E74B4BE35C002B00D0E0E04EE764
:10507C00494BE75C002F00D12FE70233E25C002A9A
:10508C0000D03EE13E0028E7444BE75C002F00D106
:10509C001EE70233E25C002A00D02AE13E0017E74B
:1050AC003F4BE75C002F00D10DE70233E25C002A96
:1050BC0000D016E13E0006E73A4BE75C002F00D12A
:1050CC00FCE60233E25C002A00D002E13E00F5E689
:1050DC00354BE75C002F00D1EBE60233E25C002A93
:1050EC0000D0EEE03E00E4E6F933FF33E75C002F3E
:1050FC0000D1D9E60233E25C002A00D0D8E03E00B1
:10510C00D2E6B933FF33E75C002F00D1C6E6023399
:10511C00E25C002A00D0C2E03E00BFE67933FF33E8
:10512C00E75C002F00D1B3E60233E25C002A00D02A
:10513C00ACE03E00ACE63933FF33E75C002F00D126
:10514C00A0E60233E25C002A00D096E03E0099E62D
:10515C000000115000400540E4170020DC1700202F
:10516C003B0200007B020000BB020000FB020000BF
:10517C003B0300007B030000BB030000FB030000AB
:10518C005A1C00200030115010000200000010507A
:10519C007A030000FA0300003A030000FA02000050
:1051AC00BA0200007A0200003A020000F833E75C11
:1051BC00002F00D160E60233E25C002A55D13E009C
:1051CC005AE6B833E75C002F00D150E60233E25CBC
:1051DC00002A42D13E004AE67833E75C002F00D12A
:1051EC0040E60233E25C002A2FD13E003AE64F4BF8
:1051FC00E35C002B00D17AE6EF239B00E25C002AF3
:10520C0000D12AE70022E2541C3BE01800F064F9BC
:10521C0023E7464BE35C002BEED1454BE35C022BC2
:10522C0000D074E63E00434BE35C002B00D163E6F8
:10523C00FF239B00E25C002A00D168E60022E254C6
:10524C001C3BE01800F048F961E6200000226030B9
:10525C00E2543E0000F040F904E620000022A030A9
:10526C00E2543E0000F038F901E620000022E03064
:10527C00E2543E0000F030F9FEE52000002221301F
:10528C00FF30E2543E0000F027F9FBE5200000223D
:10529C006130FF30E2543E0000F01EF9F8E52000CA
:1052AC000022A130FF30E2543E0000F015F9F5E584
:1052BC0020000022E130FF30E2543E0000F00CF9F7
:1052CC00F2E50022E2541C3BE01800F005F93E0028
:1052DC00EFE50022E2541C3BE01800F0FDF83E0024
:1052EC00ECE50022E2541C3BE01800F0F5F83E001F
:1052FC00E9E50022E2541C3BE01800F0EDF83E001A
:10530C00E6E50022E2541C3BE01800F0E5F83E0014
:10531C00E3E50022E2541C3BE01800F0DDF897E6D0
:10532C0021000548694000F01FFAC046BA0300008E
:10533C00FB030000FA03000030490010084A030088
:10534C00126C0020920703D49A78D209012A00D05B
:10535C007047D87E023843425841C0B2F8E7C04685
:10536C000000115010B5FFF7E9FF00280CD00749D9
:10537C00074B8C46074A9B6A126863449B1A0020B1
:10538C00C6229A424041C0B210BDC046E0FCFFFFAD
:10539C0000400540DC170020F8B5028B838A04001E
:1053AC000F00161C9A4200D91E1CE27880211500B1
:1053BC00681E8541B6B2C90031436D030D4301210E
:1053CC004A409B1BE27062789BB2A382002A09D0F0
:1053DC00002B02D18023DB011D43002F00D02D04B4
:1053EC002800F8BDE068BB01C0183200216900F04C
:1053FC009BF923699B19236180231B021D43A38AFC
:10540C00E6E7C046836870B504001D68002900D02B
:10541C002D0C6378AD05AD0D002B09D1E38AEB188B
:10542C00E382238BAB4201D90023A382280070BDF9
:10543C00E368890159182A00206900F075F9E38A9C
:10544C00EB18E38223695B192361EAE710B50400CA
:10545C00836800211B68FFF7D5FF63681B685B003E
:10546C0002D5238B834200D010BD01212000FFF711
:10547C00C9FFF9E700238376436103617047C04697
:10548C0010B58368002901D01C682140002A11D076
:10549C008024E400114322420CD01A6822420BD122
:1054AC000A4A0A401A60FFE7FFE7FFE7FFE7FFE75A
:1054BC00FFE78368196010BD81787F20CA09044B0F
:1054CC0092000140D258034800F04EF9FFFBFFFF59
:1054DC00980E002044490010436870B500218025C7
:1054EC001E680400FFF758FF134B6D011B6C05433E
:1054FC009B070FD5A3785B060FD0104B1E40802363
:10550C009B05334362680021136020002A00FFF7DB
:10551C00B7FF70BDA378DB09EFD0A38A002BECD0CA
:10552C0001212000FFF738FFA023054ADB0532409C
:10553C0005431343E6E7C04600001150FFFFFFAFE1
:10554C00FFFFFFDF70B5857E0400002D14D0FFF740
:10555C007DFFA38A002B01D1280070BD2000FFF72E
:10556C0001FF002803D0012300252377F4E7200056
:10557C00FFF7B2FF0025EFE781787F20CA09034BC4
:10558C0092000140D258024800F0EEF8980E00202C
:10559C0064490010F0B54378050085B0042B00D1A8
:1055AC0075E046D8022B00D183E0032B55D1504E29
:1055BC00504A00243378002A00D192E04E4F03E089
:1055CC000134E4B29C4213D8A342F9D96200396881
:1055DC001219D2008A18002AF2D05269002AEFD090
:1055EC0069682878904701343378E4B29C42EBD94F
:1055FC00424B1A78520748D504211A788A431A70FC
:10560C006B460A220021981D00F07EF86A462B7822
:10561C001371052353713A4B1C686269EFF31081C7
:10562C0072B61368002BFCD0BFF35F8FA16101A988
:10563C0020E0052B11D1314B1A78D20725D5042146
:10564C001A788A431A702E4B1C686269EFF310812A
:10565C0072B61368002B09D1FBE7294B1C686269F1
:10566C00EFF3108172B61368002BFCD0BFF35F8F81
:10567C00A1612900200000F067F86269A369BFF3FB
:10568C005F8F0021116083F3108805B0F0BD1B4BB8
:10569C001A78D207F9D504211A780A431A70184BD4
:1056AC001C686269EFF3108172B61368002BDDD1B0
:1056BC00FBE70120114A117881431170117899434D
:1056CC00002311700421537013788B4313700C4B0F
:1056DC001C686269EFF3108172B61368002BC5D198
:1056EC00FBE700220132D2B29A42FBD980E7C046D6
:1056FC00591C002021240010101200203815002005
:10570C00901500207047C04601B40248844601BC85
:10571C00604700BF2921001001B40248844601BC37
:10572C00604700BF5520001001B40248844601BCFC
:10573C00604700BF3521001001B40248844601BC0B
:10574C00604700BFB913001001B40248844601BC85
:10575C00604700BFD543001001B40248844601BC29
:10576C00604700BF1912001001B40248844601BC06
:10577C00604700BF551E0010100000000000000024
:10578C00000001000000000000000000000002000A
:10579C0000000000000000000000030000000000FA
:1057AC00000000000000FF000000000001B5486888
:1057BC0001318E460047704609380149884701BDC2
:1057CC00910A00104C0E002000000000080F002071
:1057DC00701700200000000000000000801700205F
:1057EC00000000000000000010000000000000009D
:1057FC00503300004C33000054330000523300008F
:10580C004D5300004D43000053340000433400005E
:10581C006925001000000000D9240010612400103C
:10582C000000000000010000904900109449001095
:10583C009415002010000C00000000000000000077
:10584C00000000000000000000000000FF0000004D
:10585C00000000000000000019210010D11E0010F3
:10586C00911F001089200010E50200109D280010E7
:04000005100001E9FD
:00000001FF
